:4000000000800020110000007D0C00007D0C000080B500AF024A034B1B68136000F05AFEBC760040FA46004010B5054C237833B9044B13B10448AFF300800123237010BDAD
:400040000882FF1F00000000D05A0000084B10B51BB108480849AFF300800848036803B910BD074B002BFBD0BDE81040184700BF00000000D05A00000C82FF1F0881FF1FEB
:400080000000000080B584B000AF01F0F5FB01F095FE00F0ABFD02F0D9F802F067FC234802F07CF9224802F0C7F962B613E0214B1B78002B0FD01F4B00221A701E481F492D
:4000C00004F080FC0346002B05D11D4B01221A701C4801F075FD1A4B1B78002BE7D01A4B1B78002B17D0194B1B683A1D104618491A4604F017FC3B1D184601F061FD134BC7
:400100001B689BB25B009BB21248194601F078FD0D4B00221A70074B1B78002B05D0064800F01AF8034B00221A70BFE7810B0000D50B00002682FF1F5082FF1FE0890000C4
:400140002482FF1FF48900002882FF1F1881FF1F008A00003492FF1F80B588B000AF78607B680133FB61FB691B78412B40F09080FB690133FB6185E0FB695A1CFA611B7826
:40018000413B192B78D801A252F823F0F5010000790200007902000079020000790200000102000079020000790200007902000079020000790200007902000079020000ED
:4001C00079020000790200001902000079020000430200005B0200007902000079020000790200007902000079020000790200007302000000F058FB002001F075FE3CE097
:4002000007F11803F869B4491A4604F0AFFBBB69184600F045FC30E007F11803F869AE491A4604F0A3FBBB69002B09D0BB69FF2B06D8BB69A94AB2FBF3F3184602F078F871
:400240001BE007F11803F869A3491A4604F08EFBBB69184600F0E8FB0FE007F11803F8699D491A4604F082FBBB69184600F070FB03E000F031FB00E000BFF869984904F026
:40028000C5FBF861FB691B78232B7FF475AF1FE1FB691B78442B40F01281FB690133FB6107E1FB695A1CFA611B78413B192B00F2FA8001A252F823F021030000A704000081
:4002C000A704000027030000A704000053030000A7040000A7040000A7040000A7040000A7040000A7040000A7040000A7040000CF030000A7040000A7040000A7040000FD
:40030000A7040000A7040000A70400003104000093040000A7040000A7040000A104000000F0FAFAC0E007F11403F8696D491A4604F01CFB6C4B1B68642B09D86B4B1B78ED
:40034000512B05D17B69684A136000F0E5F8ABE0AAE007F11003F8695F491A4604F006FB3B6946F2A812934230D83B693D2B17D85F4B45F6C0521A605D4B1B689BB2013B44
:400380009BB21846012102F087FB3B694FF4FA62B2FBF3F39AB2574B1A8000F0BDF815E0534BC0221A60524B1B689BB2013B9BB21846012102F070FB3B694F4AB2FBF3F367
:4003C0009AB24C4B1A8000F0A7F86DE06CE00023FB6007F10C03F86942491A4604F0C6FAFB68B3F5C87F22D8FB68184603F0B2FE02460B46104619464FF000023F4B04F016
:4004000049F802460B46104619464FF000023C4B03F016FF02460B461046194604F0D2F90346DAB2374B1A7000F076F83CE03BE00023BB6007F10803F8692A491A4604F071
:4004400095FABB68B3F5C87F22D8BB68184603F081FE02460B46104619464FF00002274B04F018F802460B46104619464FF00002234B03F0E5FE02460B461046194604F0D4
:40048000A1F90346DAB2204B1A7000F045F80BE00AE0FB691A78154B1A7000F03DF803E000F048FA00E000BFF869184904F0AEFAF861FB691B78232B7FF4F3AE08E01448C9
:4004C000144904F07FFA0346002B01D101F068F92037BD4680BD00BF088A000000366E010C8A0000148A00006C81FF1F7C81FF1F7081FF1F7481FF1F90D003000000794075
:4005000000406F402A82FF1F6881FF1F188A00005082FF1F248A0000B0B584B000AF4FF00003BB607D23FB710023BB7100F002FA9B4B1B78493B0E2B00F29E8101A252F89B
:4005400023F000BF8105000079080000790800007908000079080000790800007908000079080000470600007908000079080000D106000079080000790800008F070000DE
:400580000023FB6058E0FB79184603F0F3FD04460D46B86803F000FE02460B461046194602F046FB02460B462046294603F048FE02460B4614461D46FB79184603F0DAFD08
:4005C00002460B462046294603F088FC02460B461046194604F0CEF803463B60B86803F0DBFD04460D466F4B1B88184603F0C2FD02460B4668A1D1E9000103F04BFF024653
:400600000B462046294603F069FC02460B461046194604F0F7F80346BB60BA793B681344FA2BA8BFFA23D9B25F4AFB6813440A461A70FB680133FB605A4B1B881A46FB680C
:400640009A42A0DC19E10023FB603AE0574B1B68184603F07FFD02460B46104619464FF00002534B03F016FF02460B4614461D464C4B1B88184603F07DFD02460B4620460F
:40068000294603F0DDFD02460B461046194604F071F80246FB689A4202DDFB795B0000E000233B60BA793B681344FA2BA8BFFA23D9B23D4AFB6813440A461A70FB6801336D
:4006C000FB60384B1B881A46FB689A42BEDCD4E00023FB6054E0F86803F04CFD04460D46304B1B88184603F035FD02460B462046294603F0CFFE02460B46104619464FF045
:4007000000022C4B03F09CFD02460B461046194604F030F80246284B9B5C3B60386803F029FD02460B46104619464FF00002234B03F0B0FE02460B4614461D46FB795B0081
:40074000184603F017FD02460B462046294603F077FD02460B461046194604F00BF803463B60BA793B681344FA2BA8BFFA23D9B20D4AFB6813440A461A70FB680133FB60D8
:40078000084B1B881A46FB689A42A4DC75E00023FB606AE0AFF30080182D4454FB2119407C81FF1F7481FF1F7082FF1F6C81FF1F000059400040AF40A06A000000406F4089
:4007C000F86803F0D7FC04460D46314B1B88184603F0C0FC02460B462046294603F05AFE02460B46104619464FF00002294B03F027FD02460B461046194603F0BBFF0246F4
:40080000254B9B5C3B60386803F0B4FC02460B46104619464FF00002204B03F03BFE02460B4614461D46FB795B00184603F0A2FC02460B462046294603F002FD02460B4640
:400840001046194603F096FF03463B60BA793B681344FA2BA8BFFA23D9B2114AFB6813440A461A70FB680133FB60094B1B881A46FB689A42A4DC00E000BF054B1B8808481D
:40088000194601F08BFE00F047F81037BD46B0BD7481FF1F0040AF40407A000000406F407082FF1FAFF3008080B500AF084B1B78002B0CD101F060FB01F0FEFC044B0122E1
:4008C0001A70044B1B781846012100F013FD80BD2782FF1F3092FF1F80B582B000AF0C4B1B78002B11D001F0F7FC0A4B1A78FB1D104600211A4600F001FEFB7903F0030306
:40090000002BF2D1024B00221A700837BD4680BD2782FF1F3092FF1F80B500AF044B1B78002B04D101F016FE014B01221A7080BD2982FF1F80B500AF044B1B78002B04D01B
:4009400001F018FE014B00221A7080BD2982FF1F80B584B000AF78602D4B1B78BB602D4B1B680C2B00D050E00023FB600AE02A4AFB6852F823207B689A4200D105E0FB6886
:400980000133FB60FB68052BF1DDFB68062B00D13BE0FFF7A1FF1F4B1B680C2B0ED11F4AFB6832F81330013B9BB21846012101F043FB184B1B680C2B0DD100E025E0184A7B
:4009C000FB6832F81330184602F018F8114B1B680C2B17D100E018E0114AFB6832F81330012B03D1002002F037F802E0FF2002F033F802F041F80B4A7B681360BB68002B43
:400A000003D000E001E0FFF74FFF1037BD4680BD2782FF1F0C81FF1F1C81FF1F4C81FF1F5881FF1F1081FF1F80B584B000AF7860184B1B78FB607B680C2B05D07B680A2B51
:400A400002D07B68082B04D17A68134B1B689A4200D11BE0FFF740FF7B68082B03D00E4B1B68082B08D100F0FDF80C4B1B68184600F016F800F0BAF87B68DBB2184601F0CC
:400A800053FAFB68002B01D0FFF70EFF1037BD4680BD00BF2782FF1F0C81FF1F1881FF1F80B483B000AF78607B685B00B3F5805F04DB064B40F2FF721A6002E07B68034A06
:400AC00013600C37BD465DF8047B70471881FF1F80B582B000AF72B63AE000F06FFF0346FB71234B1B78002B02D1FB79232B24D11F4B1B7819461F4AFB7953541C4B1B7800
:400B00005A1CD1B21A4A1170002B15D0FB79232B12D1194B01221A70154B1B78174815491A4603F061FF124B1B781A46134B002199540F4B00221A700AE001E000F03EFFF4
:400B400000F098FF0346002BF8D1094B00221A7000F090FF0346002B03D0074B1B78002BBBD000F00BFF62B60837BD4680BD00BF2582FF1F1092FF1F2682FF1F5082FF1FC5
:400B800080B582B000AF0023FB7000237B600F4B1A78FB1C104600211A4600F0AFFC78600B4B1B78002B0DD17B68002B0AD1FB7803F00303002B05D1044B1B78184601219C
:400BC00000F098FB0837BD4680BD00BF3092FF1F2882FF1F80B400AF034B01221A70BD465DF8047B704700BF2882FF1F80B500AF022001214FF4804241F6FF7301F0E8FAF0
:400C000003461A46134B1A7000F0F8FC03461A46114B1A70104B1A78104B1B689BB25B009BB210461946FE22062300F03FFD0A4B1A780B4B9BB2104645F6A0311A4600F08A
:400C400075FD044B1A78044B1B781046194600F037FC80BD3092FF1F4C82FF1F1881FF1F3492FF1F80B500AF01F0E6FA024B1B78184600F0F1FC80BD4C82FF1F80B400AFE7
:400C8000FEE700BF80B584B000AF78600F4B1A687B6813441A460E4BD31A802B09DC0B4B1B68FB60094B1A687B681344074A136007E003F0F7FD02460C2313604FF0FF3323
:400CC000FB60FB6818461037BD4680BD8081FF1F20A1FF1F80B586B000AF224B7B61224B3B61204B7B6135E03B691B68FB603B695B68BB603B699B683B6000237B600CE05B
:400D0000FB681A68BB681A60BB680433BB60FB680433FB607B6804337B607A683B689A42EED13B69DB683B6000237B6008E0BB6800221A60BB680433BB607B6804337B6021
:400D40007A683B689A42F2D13B6910333B617B69013B7B617B69002BC6D103F0A9FDFFF791F9FEE7010000002C90000080B582B000AF184B184A1A60184A184B1B6843F49B
:400D80000073136000237B600FE07B68032B04D8134A7B6852F8233000E0124B12497A6841F822307B6801337B607B682F2BECD90E4B1B78DAB20E4B1A700E4B0A4A1A601B
:400DC00000F08AF900F068FA0B4B00221A600837BD4680BD0CED00E00004FA0514ED00E0000000007D0C00000080FF1FBC7600400481FF1F08ED00E00081FF1F80B582B0E9
:400E000000AF78603960786800213A6803F081FD0837BD4680BD00BF80B584B000AFF860B9607A60F868B9687A6803F067FD1037BD4680BD80B487B000AF786039600023EE
:400E40003B6100237B6127E07B699B007A6813441B68BB60BB68FB73BB6823F0FF03BB6014E03B695B003A6813441B781A46BB68134419463B695B003A6813445B780B7098
:400E80003B6901333B61FB7B013BFB73FB7B002BE7D17B6901337B617B691E2BD4D91C37BD465DF8047B704780B582B000AF3F4BBF221A803E4B18221A703E4B04221A80E5
:400EC0003D4B18221A703D4B00221A803C4B58221A703C4B00221A803B4B58221A703B4B19221A803A4B1C221A703A4BF9221A80394B1B221A70394B40F2F3121A80384B05
:400F00001B221A70374B02221A704FF0402308221A70354B04221A70344B354A1278D2B21A70344B00221A80334B40F608721A80324B41F251221A800023FB7019237B6039
:400F400014E0FB785B00DAB22D4B1B78DBB203F00103DBB21343DBB203F00303FB704FF4F07000F06DF97B68013B7B607B68002B02D0FB78032BE4D11E4B07221A70214B0F
:400F800001221A70204B08221A701A4B00221A701E4B02221A701E4A1D4B1B78DBB243F07F03DBB213700837BD4680BD8040004082400040844000408640004088400040F5
:400FC0008A4000408C4000408E40004090400040924000409440004096400040984000409A4000400043004000420040A14600408901004904400040224200402042004086
:4010000025420040064000400840004001400040A243004080B483B000AF224B1B78FB71214B1B78BB71214B1B787B71204AFB7903F00703DBB213701E4AFB791B09DBB245
:401040001370194ABB7943F00303DBB21370174A7B7943F00303DBB21370174B4FF481521A80164B02221A70154B40221A70154B00221A70144B20221A70144B10221A70B0
:40108000134B10221A70094A7B791370064ABB791370104B44221A700C37BD465DF8047B704700BFCF010049F8460040F94600406E5800406F5800400C5100403D510040DC
:4010C0000159004003590040985A0040205B0040235B00407658004080B582B000AF72B6414A414B1B78DBB243F00403DBB213700023FB7113E0FA7913465B0013445B00E7
:401100003A4A13443B603B681A683B689B889BB210461946FFF772FEFB790133FB71FB79072BE8D94FF090403149FFF783FE31480421FFF763FE30480421FFF75FFE2F480F
:401140000421FFF75BFE2E4A2D4B1B78DBB243F00203DBB213702B4A2A4B1B78DBB243F00203DBB21370284A274B1B78DBB243F04003DBB21370254A244B1B78DBB243F096
:401180001003DBB21370224822490822FFF744FE214822490A22FFF73FFE214821490822FFF73AFE204821490822FFF735FE204A1F4B1B78DBB243F00803DBB213701D4BA8
:4011C00060221A70FFF770FE1A4B80221A701A4B01221A70FFF71EFF18480B490E22FFF71BFE0837BD4680BDE8460040388A00007C00004800760040087600401076004029
:401200000350014013500140A0430040C243004002510040B0060048C0510040B806004822510040C406004832510040CC060048224300400048004004000840B0430040D8
:40124000142816D902B4012114381049097811F0C001890904B40E4A515C04BC00BF00BF00BF8841FDD500BF00BF02BC704700BF00BF70F10400FCD570470B050709EFF33C
:40128000108072B6704780F310887047004800407A120000AFF3008080B483B000AF134B7F221A70124B80221A707F23FB710CE0FB79DB0003F1804303F5F043FA79013AC6
:4012C000D2B21A70FB79013BFB71FB79002BEFD1FB79DB0003F1804303F5F04300221A700C37BD465DF8047B704700BF8581FF1F8481FF1F80B485B000AF03460A46FB7194
:401300001346BB710123FB60FB79172B2FD8BB79002B0ED0FB791A01184B1344FA791101164A0A441278D2B242F02002D2B21A700DE0FB791A01114B1344FA7911010F4AB6
:401340000A441278D2B222F02002D2B21A70FB791A010A4B1344FA791101084A0A441278D2B242F00102D2B21A700023FB60FB6818461437BD465DF8047B70471070004046
:4013800080B485B000AF0346FB710123FB60FB79172B1DD8FB791A01114B1344FA7911010F4A0A441278D2B222F00102D2B21A70FB791A010A4B1344FA791101084A0A4437
:4013C0001278D2B222F02002D2B21A700023FB60FB6818461437BD465DF8047B704700BF1070004080B485B000AF03460A46FB711346BB710123FB60FB79172B18D8FB79CB
:401400001A010F4B13441B78DBB223F00E03FB72FB791A010A4B1344BA7902F00702D2B25200D1B2FA7A0A43D2B21A700023FB60FB6818461437BD465DF8047B704700BFC7
:401440001070004080B485B000AF0346FB710B46BB8013467B800123FB60BB8841F6FF72934202D14FF40053BB807B8841F6FF72934202D14FF400537B80FB79172B17D893
:40148000FB79DB0003F1804303F5EC430433BB60BB68BA881A80FB79DB0003F1804303F5EC430633BB60BB687A881A800023FB60FB6818461437BD465DF8047B704700BF97
:4014C00080B485B000AF03460A46FB711346BB710123FB60FB79172B07D8FB791A01064B1344BA795A720023FB60FB6818461437BD465DF8047B70471070004080B487B0BD
:4015000000AF0346B9607A60FB7301237B61FB7B172B1AD8BB68002B0AD0FB7B1A010E4B13445B7ADBB203F07F03DAB2BB681A707B68002B07D0FB7B1A01074B13441B7A7B
:40154000DAB27B681A7000237B617B6918461C37BD465DF8047B70471070004090B484B000AF0446084611461A462346FB710346BB710B467B7113463B710123FB60FB799B
:40158000172B34D8FB79DB0003F1804303F5EC43BA7902F07F02D1B27A79D201D2B20A43D2B21A70FB79DB0003F1804303F5EC433A7E1201D1B23A7902F00F02D2B20A43E0
:4015C000D2B25A70FB79DB0003F1804303F5EC433A7F02F00F02D2B29A70FB79DB0003F1804303F5EC430022DA700023FB60FB6818461037BD4690BC704700BF80B582B0DB
:4016000000AFFF23FB71FFF73AFE0346BB71104B1B78182B12D90F4B1B78FB710C4B1B78013BDAB20A4B1A70FB79DB0003F1804303F5F0431B78DAB2064B1A70BB79184607
:40164000FFF721FEFB7918460837BD4680BD00BF8481FF1F8581FF1F80B584B000AF0346FB71FB795BB2002B19DBFFF708FE0346FB73FB79DB0003F1804303F5F043094A5A
:4016800012781A70074AFB791370074B1B780133DAB2054B1A70FB7B1846FFF7F4FD1037BD4680BD8581FF1F8481FF1F90B484B000AF0446084611461A462346FB71034632
:4016C000BB800B46BB711346FB700123FB60FB795BB2002B23DBBB8823F47F6323F00F039BB2002B1BD1FB79DB0003F1804303F5F043BB60BB68BA881A80FB79DB0003F1F2
:40170000804303F5F043BA799A70FB79DB0003F1804303F5F043FA78DA700023FB60FB6818461037BD4690BC704700BF80B485B000AF0346FB710B46BB8013467B80012375
:40174000FB60FB795BB2002B17DBFB79DB0003F1804303F5F0430433BB60BB68BA881A80FB79DB0003F1804303F5F0430633BB60BB687A881A800023FB60FB681846143720
:40178000BD465DF8047B704780B483B000AF0346FB7101BE0C37BD465DF8047B704700BF80B400AF054A054B1B78DBB243F00103DBB21370BD465DF8047B7047F64600408E
:4017C00080B582B000AF0346FB80FB88044A127802FB03F31846FFF733FD0837BD4680BD9481FF1F80B584B000AF03463960FB710F4B1B68FB60FB791F2B02D90020FFF73E
:40180000C3FFFB7903F01F0310339B00FA6813441B68BB60FB7903F01F0310339B00FA6813443A681A60BB6818461037BD4680BD08ED00E080B582B000AF03460A46FB71F4
:401840001346BB71BB79072B02D90020FFF79CFFFB791F2B02D90020FFF796FFFB7903F01F0303F1604303F56443BA795201D2B21A700837BD4680BD80B500AF054B1B7814
:40188000002B04D100F008F8024B01221A7000F039F880BD2C82FF1F80B500AF04201149FFF7A0FF04200721FFF7C4FF0E4B00221A700E4B72221A700D4B7F221A700520F4
:4018C0000C49FFF78FFF05200721FFF7B3FF0A4B06221A70094B47221A70094B02221A7080BD00BF411C00003282FF1F886400408B650040191D0000296400403964004063
:401900008965004080B582B000AFFFF7B8FC0346FB71154A144B1B78DBB243F02003DBB21370124A114B1B78DBB243F01003DBB213700F4B10221A600E4A0E4B1B78DBB2BB
:4019400043F01003DBB213700B4B20221A60084B20221A6000F018FAFB791846FFF793FC0837BD4680BD00BF986400409B65004000E100E09965004080E200E080B483B035
:4019800000AF0C4B1B78DBB203F07F03FB710A4B1B78DBB2002B06D0FB7963F07F03FB71054B00221A70FB7918460C37BD465DF8047B70476B6500403682FF1F80B483B009
:4019C00000AF0023FB71234B10221A60224B1B78BB71224B1B787B71214B1B78DBB2002B03D1BA797B799A4218D0BB791D4AD35CFB71BB790133BB71BB79C72B01D9002314
:401A0000BB71154ABB791370154B1B78DBB2002B03D0134B00221A7012E011E0124B1B783B713B7903F02003002B09D00F4B1B78FB713B7903F01E03002B01D00023FB71E3
:401A40000B4B10221A60FB7918460C37BD465DF8047B704780E100E03382FF1F3482FF1F3582FF1F7498FF1F6B6500404B65004000E100E080B483B000AF1D4B10221A60EF
:401A80001C4B1B78DAB21C4B1B78DBB29A420AD11A4B1B78DBB2002B02D0C823FB711DE00023FB711AE0134B1B78DAB2124B1B78DBB29A4208D2104B1B78DAB20D4B1B78EE
:401AC000DBB2D31AFB7109E00B4B1B78DAB2094B1B78DBB2D31ADBB2383BFB71084B10221A60FB7918460C37BD465DF8047B704780E100E03382FF1F3482FF1F3582FF1F76
:401B000000E100E080B485B000AF0346FB71264B1B88FB81254B1B88BB81FA89BB899A4208D2FA89BB89013B9A420CBF01230023DBB209E0FA89BB89D31A40F2CF72934258
:401B40000CBF01230023DBB2002BE0D1BA89FB899A420AD1164B1B78DBB203F00403002B03D1144AFB79137019E0FB89B3F5FA6F01D30023FB81FB890F49FA79CA54FB89AB
:401B80000133FB81084AFB891380094B1B78DBB203F00203002B02D0084B20221A601437BD465DF8047B70473082FF1F2E82FF1F69650040496500403C99FF1F00E200E06C
:401BC00080B584B000AF78600023FB810B4B1B78002B10D009E0FB897A6813441B781846FFF790FFFB890133FB81FB897A6813441B78002BEFD11037BD4680BD2C82FF1F84
:401C000080B584B000AF78600B467B800023FB810A4B1B78002B0ED009E0FB897A6813441B781846FFF76EFFFB890133FB81FA897B889A42F1D31037BD4680BD2C82FF1F31
:401C400080B582B000AF0023FB712B4B1B78BB71BB797B71BB7903F01E03002B0BD0BB7903F01E03DAB2254B1B78DBB21343DBB2DAB2224B1A70BB7903F02003002B30D0DD
:401C80001F4B1B787B711F4B1B78DBB219461E4A7B7953540123FB71FB79002B21D01B4B1B78DBB2002B02D0194B01221A70154B1B78DBB20133DAB2124B1A70114B1B7885
:401CC000DBB2C72B02D90F4B00221A700D4B1B78DAB2104B1B78DBB29A4202D10B4B01221A70BB7903F02003002BAED1FEF7F0FE0837BD4680BD00BF6B6500403282FF1FE9
:401D00004B6500403482FF1F7498FF1F3582FF1F3682FF1F3382FF1F80B400AF18E0154B1B889BB2B3F5FA6F02D3124B00221A80114B104A128892B21146104A525CD2B296
:401D40001A700C4B1B889BB201339AB2094B1A80084B1B889AB20A4B1B889A4206D0094B1B78DBB203F00403002BD8D0BD465DF8047B70472E82FF1F496500403C99FF1FBA
:401D80003082FF1F6965004080B400AF094A094B1B78DBB243F01003DBB21370064A064B1B78DBB243F01003DBB21370BD465DF8047B7047A2430040B243004080B500AF62
:401DC000054B1B78002B04D100F008F8024B01221A7000F023F880BD3882FF1F80B500AF03200721FFF726FD03200949FFF7FAFC084A084B1B78DBB243F00603DBB213703C
:401E00000C2000F091F8044B00221A8080BD00BF2D2000000159004014A1FF1F80B582B000AFFFF72CFA0346FB71264A254B1B78DBB243F00103DBB21370234A224B1B78A1
:401E4000DBB243F00103DBB21370204B1B78BB71BB7943F00203BB71BB7923F00103BB711A4ABB7913701A4B80221A70194A194B1B78DBB223F04003DBB21370154A154B9D
:401E80001B78DBB243F00303DBB21370124B08221A70124B02221A70114A114B1B78DBB243F00803DBB213700A20FFF789FC0D4B08221A60FB791846FFF7E5F90837BD46EF
:401EC00080BD00BFAB430040BB4300400359004006590040055900400059004014460040275B004080E200E080B485B000AF0346FB71FB7903F00303FB710A4B1B78DBB24F
:401F000003F03F03FB73FB799B01DAB2FB7B1343FB73044AFB7B13701437BD465DF8047B704700BF0059004080B584B000AF0346FB71FB790A2B07D00C2B02D0082B06D051
:401F400008E0C423FB730BE08423FB7308E04423FB7305E0C423FB730020FFF715FC00BF044AFB7B1370FB79184600F015F81037BD4680BD0259004080B400AF054A054B8D
:401F80001B78DBB243F00103DBB21370BD465DF8047B70470059004080B584B000AF0346FB71FB790A2B0BD00C2B02D0082B0ED013E04FF48053FB604FF400637B8114E02E
:401FC0004FF48063FB604FF400737B810DE04FF48073FB6080237B8107E00023FB6000237B810020FFF7D0FB00BF0C4B00221A80FB6842F2107202FB03F303F59C5308332C
:40200000074A82FB03121213DB17D31A054A13607A89054B1A801037BD4680BD12A1FF1FAD8BDB680CA1FF1F10A1FF1F80B400AFBD465DF8047B704780B584B000AF0346CB
:402040000A46FB8013467B7100F0B2F80346FB7300F0A2F80346BB81FA88BB899A4200F08780454B1B78DBB203F00203FB72FB7B002B20D1BB89002B02D0FB88002B1AD1D6
:40208000BB89002B0BD13D4AFB8813803C4A3C4B1B78DBB223F04003DBB2137068E0384A374B1B78DBB243F04003DBB21370334AFB8813805CE0FB7A002B33D0314B0022A3
:4020C0001A70314B02221A70304B00221A70304A2F4B1B78DBB203F07F03DBB21370284B1B78DBB203F00803002B02D0FB88002B18D1284ABB891380224B07221A7000BF1F
:40210000204B1B78DBB203F00103002BF8D11A4A194B1B78DBB223F00203DBB21370194B00221A70144B1B78DBB203F00203002B13D0184AFB881380124A7B79002B01D0C0
:40214000032300E00123137000BF0E4B1B78DBB203F00103002BF8D10AE0084AFB8813800549054B1B78DAB2FB7A1343DBB20B701037BD4680BD00BFA2430040844000403E
:4021800086400040014000401040004014400040084000400240004080B400AF034B1B889BB21846BD465DF8047B70478440004080B400AF054B1B78DBB203F00703DBB27C
:4021C0001846BD465DF8047B704700BF8640004090B585B002AF0446084611461A462346FB710346BB710B46BB8013467B80114B00221A700F4B1878F979BA79002300933D
:40220000002301930023FFF7A9F90A4B1978BA887B88084611461A46FFF714F9054B1B7818460021FFF7DEF8024B1B7818460C37BD4690BD9C81FF1F80B500AF024B1B78FB
:402240001846FFF79DF880BD9C81FF1F80B582B000AF0F4800F06CF80D4800F083F8FFF70EF80346FB710B4A0A4B1B78DBB243F01003DBB21370FB791846FFF704F800F0F7
:402280007FF8012000F038F80837BD4680BD00BFFF117A009465004080B400AF054A054B1B78DBB263F07F03DBB21370BD465DF8047B70477565004080B500AF054B1B786F
:4022C000002B04D1FFF7C2FF024B01221A70FFF7E3FF80BD3982FF1F80B400AF054A054B1B78DBB203F07F03DBB21370BD465DF8047B70477565004080B483B000AF034611
:40230000FB71044AFB7913700C37BD465DF8047B704700BF8465004080B400AF034B1B78DBB21846BD465DF8047B70476465004080B483B000AF7860034A7B6813600C3719
:40234000BD465DF8047B70472465004080B400AF034B1B681846BD465DF8047B704700BF4465004080B483B000AF7860034A7B6813600C37BD465DF8047B704704650040B3
:4023800080B500AF01E0FFF7E1FFFFF7C5FF034603F00803002BF6D180BD00BF80B582B000AF786000F03CF8786800F009F8072000F018F800F028F80837BD4680BD00BF3B
:4023C00080B485B000AF7860054B1B68FB60FB6844337A681A601437BD465DF8047B704708ED00E080B483B000AF0346FB71054AFB795B01DBB213700C37BD465DF8047BC7
:40240000704700BF01E400E080B400AF034B02221A60BD465DF8047B704700BF00E100E080B400AF034B02221A60BD465DF8047B704700BF80E100E080B582B000AF786039
:4024400000F03CF8786800F009F8072000F018F800F028F80837BD4680BD00BF80B485B000AF7860054B1B68FB60FB6840337A681A601437BD465DF8047B704708ED00E0F4
:4024800080B483B000AF0346FB71054AFB795B01DBB213700C37BD465DF8047B704700BF00E400E080B400AF034B01221A60BD465DF8047B704700BF00E100E080B400AF0F
:4024C000034B01221A60BD465DF8047B704700BF80E100E080B500AF00F038F9022000F087F9042000F0A4F9FFF788F803461A46084B1A70FFF782F803461A46064B1A702B
:402500000648FA2100F04AF805484FF4867100F07DF880BD3D82FF1F3E82FF1F688A0000648B000080B500AF00F02EF9074B1B7818460121FEF7DEFE054B1B7818460121A7
:40254000FEF7D8FE002000F093F980BD3B82FF1F3C82FF1F80B500AF054B1B78002B04D1FFF7B8FF024B01221A70FFF7DBFF80BD3A82FF1F80B500AF064B1B781846FEF790
:40258000FFFE054B1B781846FEF7FAFE00F016F980BD00BF3B82FF1F3C82FF1F80B582B000AF78600B467B807B681B0C9BB2012001211A464FF4804300F060F803461A4613
:4025C000104B1A70104B19780F4B1B787A88084611461A460123FFF769F80B4B1A787B689BB21046194645F68332FFF79FF8054B1A78054B1B7810461946FEF761FF083743
:40260000BD4680BD3B82FF1F3D82FF1F80B582B000AF78600B467B807B681B0C9BB2012001211A464FF4804300F05CF803461A46104B1A70104B19780F4B1B787A8808466D
:4026400011461A460123FFF731F80B4B1A787B689BB21046194645F68332FFF767F8054B1A78054B1B7810461946FEF729FF0837BD4680BD3C82FF1F3E82FF1F90B585B004
:4026800002AF0446084611461A462346FB710346BB710B46BB8013467B80114B01221A700F4B1878F979BA7900230093002301930023FEF753FF0A4B1978BA887B88084608
:4026C00011461A46FEF7BEFE054B1B7818460221FEF788FE024B1B7818460C37BD4690BD9D81FF1F90B585B002AF0446084611461A462346FB710346BB710B46BB801346DD
:402700007B80114B02221A700F4B1878F979BA7900230093002301930023FEF71FFF0A4B1978BA887B88084611461A46FEF78AFE054B1B7818460221FEF754FE024B1B782A
:4027400018460C37BD4690BD9E81FF1F80B500AF0A4B00221A700A4B00221A70094A094B1B78DBB243F00803DBB21370002000F05FF8022000F03CF880BD00BF2C580040C3
:402780002D5800409F5A004080B400AF094A094B1B78DBB243F00803DBB21370064A064B1B78DBB243F00803DBB21370BD465DF8047B7047A8430040B843004080B400AF3D
:4027C000094A094B1B78DBB223F00803DBB21370064A064B1B78DBB223F00803DBB21370BD465DF8047B7047A8430040B843004080B483B000AF0346FB710C4A0B4B1B78F7
:40280000DBB223F00203DBB213700849074B1B78DAB2FB7903F00203DBB21343DBB20B700C37BD465DF8047B704700BF2C58004080B582B000AF0346FB710C4A0B4B1B786C
:40284000DBB223F00C03DBB213700849074B1B78DAB2FB7903F00C03DBB21343DBB20B7000F016F80837BD4680BD00BF2C58004080B483B000AF0346FB71044AFB79137066
:402880000C37BD465DF8047B704700BF835B004080B483B000AF0B4B1B78DBB203F00C039B08DBB20633FB71074AFB7903F1924303F59C731B78DBB213700C37BD465DF834
:4028C000047B70472C5800400B46004080B582B000AF1C4B1B78DBB223F00703FB71194AFB7943F00403DBB21370164B1B78DBB223F00303FB71134AFB79137000F09EF826
:40290000642000F07BF8002000F05CF8002000F03DF800F04BF8002000F080F8FEF7AFFC0346BB71084A084B1B78DBB243F01003DBB21370BB791846FEF7A5FC0837BD46B2
:4029400080BD00BF776500409764004080B400AF054A054B1B78DBB263F07F03DBB21370BD465DF8047B70477765004080B500AF054B1B78002B04D1FFF7A8FF024B0122FF
:402980001A70FFF7E3FF80BD3F82FF1F80B483B000AF0346FB71044AFB7913700C37BD465DF8047B704700BF8764004080B400AF034B1B78DBB21846BD465DF8047B704791
:4029C0006764004080B483B000AF0346FB80044AFB8813800C37BD465DF8047B704700BF0C68004080B400AF034B1B889BB21846BD465DF8047B70478C68004080B483B0A2
:402A000000AF0346FB80044AFB8813800C37BD465DF8047B704700BF4C68004080B483B000AF0346FB80044AFB8813800C37BD465DF8047B704700BF6C68004080B500AF75
:402A400001E0FFF7CFFFFFF7B1FF034603F04003002BF6D180BD00BF80B483B000AF0346FB71044AFB7913700C37BD465DF8047B704700BF7465004080B400AF044B1B7820
:402A8000DAB2044B1A70BD465DF8047B704700BF746500404082FF1F80B584B000AF03460A46FB8013467B7100F0B2F80346FB7300F0A2F80346BB81FA88BB899A4200F008
:402AC0008780454B1B78DBB203F00103FB72FB7B002B20D1BB89002B02D0FB88002B1AD1BB89002B0BD13D4AFB8813803C4A3C4B1B78DBB223F04003DBB2137068E0384A0A
:402B0000374B1B78DBB243F04003DBB21370334AFB8813805CE0FB7A002B33D0314B00221A70314B01221A70304B00221A70304A2F4B1B78DBB203F07F03DBB21370284B77
:402B40001B78DBB203F00803002B02D0FB88002B18D1284ABB891380224B07221A7000BF204B1B78DBB203F00103002BF8D11A4A194B1B78DBB223F00103DBB21370194B92
:402B800000221A70144B1B78DBB203F00103002B13D0184AFB881380124A7B79002B01D0032300E00123137000BF0E4B1B78DBB203F00103002BF8D10AE0084AFB881380FF
:402BC0000549054B1B78DAB2FB7A1343DBB20B701037BD4680BD00BFA24300408040004082400040014000401040004014400040084000400240004080B400AF034B1B8855
:402C00009BB21846BD465DF8047B70478040004080B400AF054B1B78DBB203F00703DBB21846BD465DF8047B704700BF8240004030B5224A21F00043934287B01BDD204ABE
:402C4000934205DD02460B4601F046F907B030BD02AA00F039F800F0030001281ED0022811D010B3DDE90201DDE9042300F040FA01F10041EAE7002300930022002300F0BC
:402C80005FFF07B030BD01230093DDE90201DDE9042300F055FF01F10041D7E7DDE90201DDE9042300F024FAD0E70124DDE90201DDE90423009400F043FFC7E7FB21E93F62
:402CC000FFFFEF7F000000002DE9F04F924C21F00047A7428FB00E467FDD14468F4A974226DC83A3D3E90023002940F39D8101F0F3F88B4B80469F42894600F083807EA33C
:402D0000D3E9002301F0E8F802460B464046C4E90023494601F0E0F877A3D3E9002301F0DBF80125C4E9020128460FB0BDE8F08F7C4A974240F383807B4A974258DC3D15BF
:402D4000A5F21645A7EB05518B46824601F012FD01F010FA8046894642464B4650465946CDE9088901F0B8F80022704B01F068FA8B46824601F0FEFC01F0FCF980468946EB
:402D800042464B4650465946CDE90A8901F0A4F80022664B01F054FA00220023CDE90C0101F0B6FC002800F06781002340464946002201F0ADFC002814BF012302235C4856
:402DC0000221019000912A4608A8214600F0B4FA002EC0F24781054606E0C2E9000100250024C2E90245002528460FB0BDE8F08F02460B4601F070F80025C4E90201C4E9BF
:402E00000001F1E73EA3D3E9002301F065F83EA3D3E9002306460F4601F05EF802460B463046C4E90023394601F056F836A3D3E9002301F051F80125C4E90201D4E700F0F3
:402E400037FF33A3D3E900238046894601F0F8F90022384B01F042F801F08CFC054601F089F923A3D3E90023CDE9040101F0E8F902460B464046494601F02EF81EA3D3E975
:402E8000002382468B46DDE9040101F0D9F91F2DCDE902015046594650DC274B6A1E53F82230BB424AD0DDE9022301F015F802460B4681468846C4E900234A46434650461E
:402EC000594601F009F8DDE9022301F005F802460B46002EC4E9022386DA4A4608F1004301F1004184E80C00E160A0606D427BE700004054FB21F93F3163621A61B4D03D8C
:402F00000000601A61B4D03D7370032E8A19A33B83C8C96D305FE43FFB21E93F7BD90240FB21F93FFB213941FFFFEF7F00007041F08C00000000E03F708C0000DDE90223CA
:402F400000F0CAFF88463F15C8F30A53FB1A102B8146C4E90001B0DD59A3D3E90023DDE9040101F06DF98046894642464B465046594600F0B1FFCDE90601DDE9062350464A
:402F8000594600F0A9FF42464B4600F0A5FF4EA3D3E9002380468946DDE9040101F050F942464B4600F098FFCDE90201DDE90223DDE9060100F090FF0B4602468846C1F318
:402FC0000A517F1A312F8146C4E9002374DD40A3D3E90023DDE9040101F032F980468946DDE9060142464B4600F076FF82468B46DDE9060152465B4600F06EFF42464B46F7
:4030000000F06AFF34A3D3E9002380468946DDE9040101F015F942464B4600F05DFFCDE90201504659463EE700F058FF2E4B80469F42894622D02AA3D3E9002300F04EFF99
:4030400002460B464046C4E90023494600F044FF23A3D3E9002300F041FF4FF0FF35C4E90201C1E66268E36802F1004203F1004345426260E360B7E60323A0E610A3D3E93B
:40308000002300F02BFF10A3D3E9002306460F4600F024FF02460B463046C4E90023394600F01AFF08A3D3E9002300F017FF4FF0FF35C4E9020197E6DDE906ABFDE600BFDD
:4030C0000000601A61B4D03D7370032E8A19A33B0000002E8A19A33BC14920259A837B393163621A61B4D03DFB21F93FAFF300802DE9F04F21F00047B7F1795F85B00C4674
:4031000092469B4605466BDA01F034FB002800F0E7802A4623462846214601F091F874A3D3E900238046894601F08AF872A3D3E9002300F0D3FE42464B4601F081F870A336
:40314000D3E9002300F0C8FE42464B4601F078F86DA3D3E9002300F0C1FE42464B4601F06FF86BA3D3E9002300F0B6FE42464B4601F066F868A3D3E9002300F0AFFE424629
:403180004B4601F05DF8CDE90001404649460022634B01F055F8DDE9002306460F464046494601F04DF85246804689465B462846214601F045F802460B464046494600F01A
:4031C0008BFE02460B463046394600F085FE02460B460020534900F07FFE05B0BDE8F08F02460B4601F02CF841A3D3E900238046894601F025F840A3D3E9002300F06EFE78
:4032000042464B4601F01CF83DA3D3E9002300F063FE42464B4601F013F83BA3D3E9002300F05CFE42464B4601F00AF838A3D3E9002300F051FE42464B4601F001F836A363
:40324000D3E9002300F04AFE4B46424600F0F8FF354BCDE900019F4297DD344B00229F4238DCA7F5001300202E4916461F4600F033FECDE90201404649460022284B00F09A
:40328000DFFF32463B4600F027FEDDE9002306460F464046494600F0D3FF5246804689465B462846214600F0CBFF02460B464046494600F011FE02460B463046394600F039
:4032C0000BFE02460B46DDE9020100F005FE05B0BDE8F08F164B0026CDE90223154FCAE71049002005B0BDE8F08F00BFAFF30080D43888BEE9FAA8BDC4B1B4BD9EEE213E82
:40330000AD529C804F7E923E9015CB19A001FA3E7751C1166CC1563F4C5555555555A53F0000E03F0000F03F3233D33F0000E93F0000E73F0000D23F2DE9F04F9E467E4D11
:40334000D41E85FB0465E417C4EBA504ADF51D7D24EAE4742546A69E0D940C93E343774C03EB430354F8264002EBC303274609940EF1FF3426460394F41904900A910893F6
:40338000A5EB060516D42C44013422AEA79F08E057F8250000F0EEFE0135A542E6E9020108D0002DF4DA013500200021A542E6E90201F6D1099B002B31DB099A0C9B74A99A
:4033C00001EBC20BC3EB4373039A24A9DB0001EBC20800930DF5E479039B002BC0F297814446049B0026A3F1080A009B002708EB0305FAE9022374E8020100F021FF0246BF
:403400000B463046394600F069FDAC4206460F46EFD1E9E90267D94508F10808DCD1099B10A99B4603F18043013B9B001A1D0A440B440F920E934FEACB039CA91A4606936B
:40344000BBF1000F0B4453E9284528DD0DF5E87A0AEB02060FAF0022394B2046294600F0EFFE01F087F900F085FE0022354B8046894600F0E5FE02460B462046294600F0D1
:403480002BFD01F077F976E9022347F8040F4946404600F023FD564504460D46DBD1DDF82090204629464A4600F092FC00224FF07F5304460D4600F0C3FE00F0FDFB0022B1
:4034C000214B00F0BDFE02460B462046294600F003FD04460D4601F04DF9804600F04AFE02460B46204629464C4600F0F5FC002C06460F4640F3F1800BF1FF3110AB53F801
:403500002130C9F1180043FA00F202FA00F55D1B10A8C9F1170340F8215090441D41002D3FDDBBF1000F08F1010840F38482002214460FA912E000BFABAAAA2AF88D000097
:403540000000703E0000704100002040C3F180700BB108600124013293450DDD51F8043F002CF3D0C3F1FF13013203F57F4393450B604FF00104F1DC089B002B0EDD012B43
:4035800000F0B380022B09D10BF1FF3210AB53F8223010A9C3F3150341F82230022D00F08380304639460022002301F0B1F8002800F0C980099B0BF1FF3A53450DDC10ABDE
:4035C0000F9803EB8B03002253F8041D834242EA0102F9D1002A40F01482099B10AA013B52F82330002B40F024820E9A012352F8041D01330029FAD05B441A460B930BF13D
:40360000010393424DDC0D9A4FF0000803EB02090B9A0C9B09F180495B44CBEB020BA79A09F1FF3902EB890200924FEACB02DB00059224AA02EB030B0793069B74AA02EB2C
:40364000030A009B002653F8040F0027009300F091FD039BEBE80201002B1BDB079B03EB0804069B08EB030524AB1C441D44049BA3F10809F9E9022374E8020100F0E0FD12
:4036800002460B463046394600F028FCAC4206460F46EFD1059B08F108089845EAE90267CFD1DDF82CB0C6E632463B460020BF4900F012FC06460F46002C3FF472AF089A78
:4036C0000020BA4900F084FB02460B463046394600F002FC06460F4663E711D10BF1FF3310AA52F82350ED1519E70BF1FF3210AB53F8223010A9C3F3160341F822304DE77C
:403700000022AB4B01F022F858B9054649E700260027E9E90267D94508F108087FF45CAE7DE6BBF1000F08F10108C8BF02253FF7FEAE32463B4600209C4900F0CDFB022521
:4037400006460F462DE7089B30465A4239460395CDF8148000F03CFB0022964B04460D4600F0F4FF002800F0E1810022924B2046294600F065FD00F0FDFF064600F0FAFC07
:4037800000228C4B00F05CFD0B4602462946204600F0A2FB00F0EEFF089B0BF1010A1833089310AB43F82B0043F82A60089A00207E4900F00DFBBAF1000F04460D46C0F2EF
:4037C000CA800AF101034FEAC30874AF10AA009302EB830907EB080659F8040D00F0CAFC22462B4600F02CFD002266E90201724B2046294600F024FDBE4204460D46EBD119
:40380000A8F1080806EB08039B460DF59879CDF818A0DDF824A04FF00008CDF81090BAF1000FC0F29580B8F1000FC0F29180DFF88C915D4600260027002401E0444510DCD3
:40384000F9E90223F5E8020100F0FAFC02460B463046394600F042FB0134A24506460F46ECDA049BABF1080B03EBC803C3E90067009B08F101089845D1D1A69BDDF818A039
:40388000DDF81090032B3BD8DFE813F0410004000400D70000273E46009B09EBC304384674E90223314600F019FB4C4507460E46F5D1039B002B00F08B80D9E900010A9DC6
:4038C000334606F100463A466E602F6000F004FBBAF1000F03460CDD01261C46F9E90223204600F0FBFA0136B2450346F5DA039A0AB101F100411C460D460A9BC3E9024561
:40390000059B03F007000DF51D7DBDE8F08F00231946009A09EBC2091C4679E90223204600F0DCFA0AF1FF3ABAF1FF3F0346F3D1039A0AB101F100411C460D460A9BC3E982
:403940000045059B03F007000DF51D7DBDE8F08F0026002785E7A69B032BD1D8DFE803F04E3030020DF59879039A00231E46002A00F0C8800A9FD9F80800D9F80440D9F86C
:403980000C203B61059BD9F8001006F1004604F1004402F10042B86003F007007E617C60FA6039600DF51D7DBDE8F08F0000F03F0000E03F000070410000703E008E000058
:4039C000039B00273E460DF59879002B7FF475AFD9E9000135463C4633460A9E3A46C6E9004500F079FABAF1000F03463FF774AF1C460D460A9BC3E9024581E7002319465E
:403A000096E7089A10AB53F82A30183A0395CDF814800892002B7FF4C9AE10AB03EB8A0353F8041D0AF1FF3A183A0029F8D00892BCE60123E0E500249EE5BAF1000F93DD06
:403A40004FEACA0809EB08039B46D3E900677BE9022330463946CDE9002300F03FFA04460D46DDE9000122462B4600F035FA02460B463046394600F031FACB4526462F46C2
:403A8000CBE90201CBE90045E1D1BAF1010F7FF76BAF09EB08039A46D3E900670DF59C7B7AE902231046194632463B46CDE9000100F014FA04460D46DDE9000122462B4616
:403AC00000F00AFA32463B4600F008FADA4526462F46CAE90201CAE90045E1D100231E4608F108044C4450AD184674E90223314600F0F4F9AC4203460E46F5D1039A002A22
:403B00007FF438AFD9E90045D9E90289184631460A9A059BC2E9040103F00700C2E90045C2E902890DF51D7DBDE8F08F2046294600F020FE10ABDA4643F82B0036E600BF2F
:403B40002DE9F04F21F00046B6F1795F85B00C4690469946054604DA00F00CFE002800F083802A4623462846214600F069FB2A46234606460F4600F063FB3FA3D3E9002315
:403B800082468B463046394600F05AFB3CA3D3E9002300F0A1F932463B4600F051FB3AA3D3E9002300F09AF932463B4600F048FB37A3D3E9002300F08FF932463B4600F030
:403BC0003FFB35A3D3E9002300F088F90E9BCDE900019BB3404649460022334B00F030FBDDE90023CDE902015046594600F028FB02460B46DDE9020100F06EF932463B4649
:403C000000F01EFB42464B4600F066F924A3D3E9002306460F465046594600F011FB02460B463046394600F059F902460B462846214600F051F905B0BDE8F08FDDE9002361
:403C40003046394600F0FCFA15A3D3E9002300F043F952465B4600F0F3FA2A46234600F03DF905B0BDE8F08F2846214605B0BDE8F08F00BFAFF300807CD5CF5A3AD9E53D7A
:403C8000EB9C2B8AE6E55A3E7DFEB157E31DC73ED561C119A0012A3FA6F810111111813F495555555555C53F0000E03FAFF3008021F00041704700BF2DE9F047C1F30A58C0
:403CC000A8F2FF36132E0B4604460D460246894607461DDC002E40DBDFF8F08048FA06F808EA010E5EEA020217D035A3D3E9002300F0F4F80022002300F032FD20B1002D70
:403D000040DB29EA0805002738462946BDE8F087332E06DDB6F5806F2FD020461946BDE8F087A8F213424FF0FF3A2AFA02FA1AEA000FF2D022A3D3E9002300F0CFF8002281
:403D4000002300F00DFD0028DED0002D1FDB4D4627EA0A0738462946D8E719A3D3E9002300F0BCF80022002300F0FAFC0028CBD0002D1ADB00273D46C6E702460B4600F099
:403D8000ADF8CCE74FF4801333419944B9E7142E08D0C8F5866808F10308012303FA08F31F19D4D309F10109D1E725F00042064B224318BF1D460027A6E700BFAFF3008088
:403DC0009C7500883CE4377E0000F0BFFFFF0F00F8B5C1F30A5604460D460B46174616BB21F00043034332D00022314B00F028FA304A044697420D460B4637DB40F2FE727B
:403E0000C1F30A56363E3E44964215DD24A1D1E9000122462B4600F053F821A3D3E9002300F00EFAF8BD40F2FF72964224D040F2FE723E449642E9DC002E09DD23F0FF4331
:403E400023F4E00343EA065520462946F8BDF8BD16F1350F15DA4CF250339F42D6DC12A1D1E9000122462B4600F02AF80EA3D3E9002300F0E5F9F8BD02460B4600F02EF8D8
:403E8000F8BD23F0FF4323F4E003363643EA0655204629460022084B00F0D2F9F8BD00BF9C7500883CE4377E59F3F8C21F6EA50100005043B03CFFFF0000903CAFF300807F
:403EC00003F0004321F0004243EA0201704700BF81F0004102E000BF83F0004330B54FEA41044FEA430594EA050F08BF90EA020F1FBF54EA000C55EA020C7FEA645C7FEABB
:403F0000655C00F0E2804FEA5454D4EB5555B8BF6D420CDD2C4480EA020281EA030382EA000083EA010180EA020281EA0303362D88BF30BD11F0004F4FEA01314FF4801CDB
:403F40004CEA113102D0404261EB410113F0004F4FEA03334CEA133302D0524263EB430394EA050F00F0A780A4F10104D5F1200E0DDB02FA0EFC22FA05F2801841F10001AD
:403F800003FA0EF2801843FA05F359410EE0A5F120050EF1200E012A03FA0EFC28BF4CF0020C43FA05F3C01851EBE37101F0004507D54FF0000EDCF1000C7EEB00006EEBCD
:403FC0000101B1F5801F1BD3B1F5001F0CD349085FEA30004FEA3C0C04F101044FEA445212F5800F80F09A80BCF1004F08BF5FEA500C50F1000041EB045141EA050130BD6C
:404000005FEA4C0C404141EB010111F4801FA4F10104E9D191F0000F04BF01460020B1FA81F308BF2033A3F10B03B3F120020CDA0C3208DD02F1140CC2F10C0201FA0CF009
:4040400021FA02F10CE002F11402D8BFC2F1200C01FA02F120FA0CFCDCBF41EA0C019040E41AA2BF01EB0451294330BD6FEA04041F3C1CDA0C340EDC04F11404C4F120025B
:4040800020FA04F001FA02F340EA030021FA04F345EA030130BDC4F10C04C4F1200220FA02F001FA04F340EA0300294630BD21FA04F0294630BD94F0000F83F4801306BFB3
:4040C00081F480110134013D4EE77FEA645C18BF7FEA655C29D094EA050F08BF90EA020F05D054EA000C04BF1946104630BD91EA030F1EBF0021002030BD5FEA545C05D120
:404100004000494128BF41F0004130BD14F580043CBF01F5801130BD01F0004545F0FE4141F470014FF0000030BD7FEA645C1ABF194610467FEA655C1CBF0B46024650EA68
:40414000013406BF52EA033591EA030F41F4002130BD00BF90F0000F04BF0021704730B54FF4806404F132044FF000054FF0000150E700BF90F0000F04BF0021704730B558
:404180004FF4806404F1320410F0004548BF40424FF000013EE700BF42004FEAE2014FEA31014FEA02701FBF12F07F4393F07F4F81F06051704792F0000F14BF93F07F4FC6
:4041C000704730B54FF4607401F0004521F0004120E700BF50EA010208BF704730B54FF000050AE050EA010208BF704730B511F0004502D5404261EB41014FF4806404F107
:4042000032045FEA915C3FF4DCAE4FF003025FEADC0C18BF03325FEADC0C18BF033202EBDC02C2F1200300FA03FC20FA02F001FA03FE40EA0E0021FA02F11444C1E600BFF1
:4042400070B54FF0FF0C4CF4E06C1CEA11541DBF1CEA135594EA0C0F95EA0C0F00F0DEF82C4481EA030621EA4C5123EA4C5350EA013518BF52EA033541F4801143F4801312
:4042800038D0A0FB02CE4FF00005E1FB02E506F00042E0FB03E54FF00006E1FB03569CF0000F18BF4EF0010EA4F1FF04B6F5007F64F5407404D25FEA4E0E6D4146EB06061B
:4042C00042EAC62141EA55514FEAC52040EA5E504FEACE2EB4F1FD0C88BFBCF5E06F1ED8BEF1004F08BF5FEA500E50F1000041EB045170BD06F0004646EA010140EA0200CF
:4043000081EA0301B4EB5C04C2BFD4EB0C0541EA045170BD41F480114FF0000E013C00F3AB8014F1360FDEBF002001F0004170BDC4F10004203C35DA0C341BDC04F11404D5
:40434000C4F1200500FA05F320FA04F001FA05F240EA020001F0004221F0004110EBD37021FA04F642EB06015EEA430E08BF20EAD37070BDC4F10C04C4F1200500FA04F3CF
:4043800020FA05F001FA04F240EA020001F0004110EBD37041F100015EEA430E08BF20EAD37070BDC4F1200500FA05F24EEA020E20FA04F301FA05F243EA020321FA04F0FD
:4043C00001F0004121FA04F220EA020000EBD3705EEA430E08BF20EAD37070BD94F0000F0FD101F00046400041EB010111F4801F08BF013CF7D041EA060195F0000F18BF42
:40440000704703F00046520043EB030313F4801F08BF013DF7D043EA0603704794EA0C0F0CEA135518BF95EA0C0F0CD050EA410618BF52EA4306D1D181EA030101F0004143
:404440004FF0000070BD50EA410606BF1046194652EA430619D094EA0C0F02D150EA013613D195EA0C0F05D152EA03361CBF104619460AD181EA030101F0004141F0FE4145
:4044800041F470014FF0000070BD41F0FE4141F4780170BD70B54FF0FF0C4CF4E06C1CEA11541DBF1CEA135594EA0C0F95EA0C0F00F0A7F8A4EB050481EA030E52EA0335A5
:4044C0004FEA013100F088804FEA03334FF0805545EA131343EA12634FEA022245EA111545EA10654FEA00260EF000419D4208BF964244F1FD0404F5407402D25B084FEA1A
:404500003202B61A65EB03055B084FEA32024FF480104FF4002CB6EB020E75EB030E22BFB61A754640EA0C005B084FEA3202B6EB020E75EB030E22BFB61A754640EA5C0065
:404540005B084FEA3202B6EB020E75EB030E22BFB61A754640EA9C005B084FEA3202B6EB020E75EB030E22BFB61A754640EADC0055EA060E18D04FEA051545EA16754FEA32
:4045800006164FEAC30343EA52734FEAC2025FEA1C1CC0D111F4801F0BD141EA00014FF000004FF0004CB6E711F4801F04BF01430020B4F1FD0C88BFBCF5E06F3FF6AFAE7A
:4045C000B5EB030C04BFB6EB020C5FEA500C50F1000041EB045170BD0EF0004E4EEA113114EB5C04C2BFD4EB0C0541EA045170BD41F480114FF0000E013C90E645EA060EDA
:404600008DE60CEA135594EA0C0F08BF95EA0C0F3FF43BAF94EA0C0F0AD150EA01347FF434AF95EA0C0F7FF425AF104619462CE795EA0C0F06D152EA03353FF4FDAE104697
:40464000194622E750EA410618BF52EA43067FF4C5AE50EA41047FF40DAF52EA43057FF4EBAE12E74FF0FF3C06E000BF4FF0010C02E000BF4FF0010C4DF804CD4FEA410CE4
:404680007FEA6C5C4FEA430C18BF7FEA6C5C1BD001B050EA410C0CBF52EA430C91EA030F02BF90EA020F0020704710F1000F91EA030F58BF994208BF90422CBFD8176FEAB5
:4046C000E37040F0010070474FEA410C7FEA6C5C02D150EA013C07D14FEA430C7FEA6C5CD6D152EA033CD3D05DF8040B704700BF8446104662468C461946634600E000BF0D
:4047000001B5FFF7B7FF002848BF10F1000F01BD4DF808EDFFF7F4FF0CBF012000205DF808FB00BF4DF808EDFFF7EAFF34BF012000205DF808FB00BF4DF808EDFFF7E0FF61
:4047400094BF012000205DF808FB00BF4DF808EDFFF7CEFF94BF012000205DF808FB00BF4DF808EDFFF7C4FF34BF012000205DF808FB00BF4FEA410212F5001215D211D546
:404780006FF47873B3EB625212D94FEAC12343F0004343EA505311F0004F23FA02F018BF404270474FF00000704750EA013005D111F0004008BF6FF0004070474FF00000C8
:4047C000704700BF4A0011D212F5001211D20DD56FF47873B3EB62520ED44FEAC12343F0004343EA505323FA02F070474FF00000704750EA013002D14FF0FF3070474FF0F5
:40480000000070474FEA4102B2F1E04324BFB3F5001CDCF1FE5C0DD901F0004C4FEAC0024CEA5070B2F1004F40EB830008BF20F00100704711F0804F21D113F13872BCBF83
:4048400001F00040704741F480114FEA5252C2F11802C2F1200C10FA0CF320FA02F018BF40F001004FEAC1234FEAD32303FA0CFC40EA0C0023FA02F34FEA4303CCE77FEAB0
:40488000625307D150EA01331EBF4FF0FE4040F44000704701F0004040F0FE4040F40000704700BF014B1868704700BF0082FF1F0E4B70B51E460E4C0025E41AA410A54253
:4048C00004D056F8253098470135F8E704F09CFB084B094C1E46E41AA4100025A54204D056F8253098470135F8E770BD1490000014900000149000001C90000010B5431EA2
:404900000A44914204D011F8014B03F8014FF8E710BD03460244934202D003F8011BFAE7704700000EB400B54FF402719CB0ADF814106FF00041049107914FF6FF711DABC5
:40494000ADF81610084953F8042B02900690086802A9019300F0CCF8029B00221A701CB05DF804EB03B070470082FF1F0EB430B59CB01FAC4FF4017254F8045BADF81420BB
:404980000290069000F028F80B4B03900B9300230F9314934FF6FF73ADF81630074B079002A918682A462346019400F0EDF91CB0BDE8304003B07047C14900000082FF1FDD
:4049C0000020704710F8012B11F8013B012A28BF9A42F7D0D01A7047034613F8012B002AFBD1181A01387047034610B532B111F8014B013A03F8014B002CF7D11A4493428A
:404A000003D0002103F8011BF9E710BD70B5037893B10C46034610F8015B3DB10A46144612F8016B002EF5D0B542F8D12278002A14BF1846002070BD184670BD2DE9F04700
:404A40008E688246B3420C469046994640D38A8912F4906F3AD02568096902236F1A656905EB450595FBF3F57B1C4B449D4238BF1D4653050FD5294600F094FF064698B1F8
:404A800021693A46FFF73AFFA38923F4906343F08003A38113E02A4600F0DAFF064670B95046216900F03AFF0C23CAF80030A3894FF0FF3043F04003A381BDE8F0872661CB
:404AC0003E4426604E466561ED1BA560B14500D24E4632462068414600F005FFA36800209B1BA36023681E442660BDE8F08700002DE9F0439DB003938B8906461C060D46FC
:404B000090460CD50B6953B9402100F04BFF2860286110B90C233360CCE040236B610023099320238DF8293030238DF82A3043461C4613F8012B1AB9B4EB08090FD002E0B4
:404B4000252AF5D1F8E73046294642464B46FFF775FF013000F0A980099B4B4409932378002B00F0A28000234FF0FF3204930793059206938DF853301A9304F101084446B7
:404B8000DFF8489121784846052200F09EFE08F10108049B30B1C9EB00000122824013430493ECE7D80644BF20228DF85320190744BF2B228DF8532022782A2A02D00799AD
:404BC00023460EE0039A0134111D12680391002ABBBF524243F0020307920792B8BF04930AE01C4622780133303A092A03D80A2000FB0121F5E7079123782E2B1AD1637899
:404C00002A2B0AD1039B02341A1D1B680392002BB8BF4FF0FF3305930CE0611C00220C4623780131303B092B03D80A2000FB0232F5E70592DFF8988021784046032200F063
:404C400044FE38B1049AC8EB00004023834013430493013421781A48062204F101088DF8281000F032FE88B1164B33B9039B073323F007030833039313E003AB009330467C
:404C800004A92A46104BAFF3008007E003AB0093304604A92A460C4B00F03AFA421C074603D0099B3B44099341E7AB895B0601D4099801E04FF0FF301DB0BDE8F08300BFC1
:404CC000548E0000000000003D4A00004A8E0000508E000038B54B1C144602D14FF0FF3038BD9389CDB223F020039381536B526883B1A36B9A4207DA23685A1E226003F8D5
:404D0000015C636801331FE0214600F0A5FD0028F2D0E3E72169236851B18B4208D913F8010CA84204D1013B01322360626038BDE36304F1440363630323A36323462264C3
:404D400003F8465F236001236360284638BD10B50C46496B69B104F14403994201D000F0DDFD236C00206063636013B1E36B236010BD23694FF0FF30236000236360A38909
:404D800043F02003A38110BD2DE9F04707460C469046ADF5247D01930023469347939C4B0DF10C0AA2939B4BCDF820A1A39398F80050002D00F0248197490B6889462B4438
:404DC0005B7803F0080303F0FF02EBB16368002B10DD2368D9F800101A780A44527815070ED5479A01330132479262682360013A6260EBE7A39B3846214698470028E8D03B
:404E000008F10106B046D2E7252D08F101064FD14592439298F801302A2B03D11023439308F1020631783546A1F13003092B06F1010606D8459B0A2202FB0313303B459356
:404E4000F0E7DFF8DC810322404600F03EFD40B135460123C8EB000003FA00F2439B134343936E1C2D78672D0FD8652D78D25B2D54D005D8002D00F0C580252D18D071E019
:404E8000632D57D0642D3FD06CE0702D32D007D86E2D55D03AD8692D64D1002344933BE0752D31D0782D29D0732D5BD102233FE06368002B0DDD23681A78AA4240F0A08095
:404EC000013362682360479B013A01336260479398E7A39B3846214698470028EBD04698002800F08F80A38913F0400F18BF4FF0FF3089E0439B43F020034393439B43F490
:404F000000734393102302E00A2300E008236E2D449301DD04230BE0032309E03146504600F066FB0646439B43F040034393012349931BE0439B43F0400343930023F7E770
:404F4000439AD0063FF55EAF12F0010F019A479B02F104010191126814BF1380136051E70523E5E7032349930A2344936368002B03DD439B590611D518E0A39B384621468B
:404F800098470028F5D0AAE7479A013247926268013A002A626013DD013323602368D9F800101A780A4452781207EDD4499B022B0DDC384643A9224601AB00F0C9F919E0FC
:404FC000A39B3846214698470028E7D087E7042B06DC384643A9224601AB00F017FA09E00E4B002B3FF40EAF384643A9224601ABAFF30080012803D002287FF403AF6EE735
:40500000469801E04FF0FF300DF5247DBDE8F087D54C00004F4D00000482FF1F00000000508E00002DE9F84391461F468A680B6906469342B8BF1346C9F8003091F8432084
:405040000C46DDF8208012B10133C9F800302368990642BFD9F800300233C9F80030256815F006051CD094F843302268003318BF012392061FD5E118302081F843005A1CE8
:4050800094F845102244023382F8431013E03046394604F119020123C047013007D00135E368D9F800209B1A9D42F0DBDBE74FF0FF30BDE8F8833046394604F14302C04725
:4050C0000130F4D02268D9F80050E36802F00602042A08BF5D1B2269A3680CBF25EAE57500259342C4BF9B1AED184FF00009A9450ADA3046394604F11A020123C0470130E1
:40510000D5D009F10109F2E70020BDE8F88300002DE9FF410C461746227E98466E2A06460A9B01F1430100F0B08012D8632A23D00AD8002A00F0BD80582A40F0CC8084F82E
:405140004520DFF804E257E0642A1ED0692A1CD0C1E0732A00F0B18009D86F2A2ED0702A40F0B980226842F0200222603FE0752A24D0782A3BD0AEE01A6804F14205111DC8
:405180001960136884F84230A9E020681A6810F0800F02D0101D186008E010F0400F02F10400186002D0B2F9003000E01368002B3EDA2D225B4284F8432039E020681A6895
:4051C00010F0800F02D0101D186007E010F0400F02F10400186001D0138800E01368227EDFF864E16F2A0CBF08220A221CE07822DFF858E184F845202268186812F0800FA5
:4052000000F104051D6003D1550601D5038800E00368D00744BF42F0200222601BB9226822F0200222601022002084F8430002E0DFF814E10A226568002DA8BF2068A5607F
:40524000A4BF20F00400206003B965B10D46B3FBF2F002FB10331EF8033005F8013D03460028F4D100E00D46082A0BD12368DA0708D5236962689A42DEBF302305F8013CA2
:4052800005F1FF35491B21612EE025681A6815F0800F606903D0151D1D60136808E015F0400F02F104051D60136801D0188000E01860002323610D4616E01A68111D19605D
:4052C000156800212846626800F0FFFA08B1401B6060636804E004F1420584F8422001232361002384F84330CDF800803046214603AA3B46FFF796FE013002D14FF0FF304C
:405300001FE0304639462A462369C0470130F5D023689B0705D4E068039B9842B8BF18460FE00025E368039A9B1A9D42F3DA3046394604F119020123C0470130DED0013543
:40534000F0E704B0BDE8F0815B8E00006C8E00002DE9F04115468A6880460C4632B98A69002A0CBF01224FF0FF328A6022680026D1065FBF1A68111D19601768A069F8B9A6
:4053800023680136DA065EBF2B681B783B702A686B6802F101022A60A26803F1FF3302F1FF326B6058BF0137A260EAB1002BE5DCD4F880314046294698470028DED013E067
:4053C000012807D12B6862691B78D35C002BD7D1C6B109E0022807D12B680B4A1B78126813445B781B07CBD5236813F0100305D1E2680132E260A26902B13B70236900202B
:405400001E442661BDE8F0810482FF1F2DE9F04F0C469A46724B87B08346164693E8070003AB83E807006F4BA1696F4A04F11C09032918BF1A46A36800925A1EB2F5AE7FA4
:4054400082BF6FF4AE7503EB050840F25D134F4688BFA360236898BF4FF0000843F4506323600023326803A951F8230011780222019300F02AFA019B002835D0012B0BD158
:4054800062682AB908226260226842F400722260226822F4A0620BE0022B0AD1226802F4C061B1F5007F1FD11021616042F480722260A268511EA160B2B132687D1C511C3B
:4054C000316012783A707268013A002A72600ADCD4F880215846314601939047002841D12F46019B00E02F460133032BBAD163680BB90A23636063683C496069C91A00F00B
:4055000077F83D460027A3686BB3316860690A78805C40B3302A22680AD1100508D50137B8F1000F0BD0013308F1FF38A36006E022F4106222600B78013505F8013C7368D5
:40554000013B002B736003DD33680133336005E0D4F8803158463146984720B9A368013BA360D0E700272368D9050DD54D4509D915F8011C05F1FF38D4F87C3158463246B3
:40558000984745464D4527D0226812F010021BD12A70636858464946009EB0472268DAF8003012F0200F07D1D20705D51A1DCAF800201B68188004E01A1DCAF800201B684B
:4055C0001860E3680133E360C9EB05053D44276900203D44256100E0012007B0BDE8F08F808E000061570000555600009C8E0000F0B50A78441E5E2A13BF4B1C8B1C4A7851
:40560000002108BF012100F1FF0504F8011FAC42FBD10AB9581EF0BDC1F10104E7B2875419785E1C2D2905D05D290ED079B10A463346F3E75D785D2DF9D09542F7DB023317
:405640000132AA428754FBDBEAE73046F0BD1846F0BD00002DE9F0470F46404CD4F800903D4615F801EB09EB0E04667806F0080404F0FF060CB12F46F2E774462D2C03D184
:40568000BD1C7C78012603E02B2C04BF7C78BD1C13B1102B0AD15AE0302C56D12C7804F0DF04582C4CD16C7810230235002E14BF4FF000486FF00048B8FBF3FA0027BE4631
:4056C00003FB1A8809EB040C9CF801C01CF0040F01D0303C0BE01CF0030C1BD0BCF1010F0CBF4FF0370C4FF0570CCCEB04049C4210DAB7F1FF3F0AD0D64506D801D144451D
:4057000003DC03FB0E4E012701E04FF0FF3715F8014BD7E77C1C73460AD1002E4FF0220114BF4FF000436FF0004301602AB911E00EB1CEF100036AB107B1691E116009E07E
:405740003024002BB2D10823B0E70A23AEE7302CACD1A3E71846BDE8F08700BF0482FF1F2DE9F0470E463B4CD4F80090354615F801EB09EB0E04677807F0080404F0FF0789
:405780000CB12E46F2E774462D2C03D1B51C7478012703E02B2C04BF7478B51C13B1102B0AD151E0302C4DD12C7804F0DF04582C43D16C78102302354FF0FF38B8FBF3F85F
:4057C00003FB08FA00266FEA0A0AB64609EB040C9CF801C01CF0040F01D0303C0BE01CF0030C1BD0BCF1010F0CBF4FF0370C4FF0570CCCEB04049C4210DAB6F1FF3F0AD082
:40580000C64506D801D1544503DC03FB0E4E012601E04FF0FF3615F8014BD7E7741C734603D122230360334602E00FB1CEF100036AB106B1691E116009E03024002BBBD1E8
:405840000823B9E70A23B7E7302CB5D1ACE71846BDE8F0870482FF1F2DE9F0410C46496B04F1440399421AD14FF4806100F09AF818B94FF0FF30BDE8F0814FF48063A36389
:4058800094F84630606380F8FF3394F8453000F2FD30437094F844300370206012E0A66B77003A4600F0D4F805460028E1D000EB0608404629463246FFF720F8C4F8008029
:4058C0006563A7630020BDE8F08110B5C9B202449042034605D01C7801308C42F8D1184610BD002010BD814210B501EB020301D3421E0BE09842FBD28118D21AD34204D009
:4059000013F8014D01F8014DF8E710BD994204D011F8014B02F8014FF8E710BD30B500293CD051F8042C0B1F1D49002AB8BF9B180A680C4612B95A600B6030BD93420DD255
:4059400019685818904201BF5A5852181A60426823605A6030BD994203D80A4651680029F9D1146815199D420AD11B682344D0188842136012D10868034413604B680CE069
:4059800002D90C23036030BD1C681819884201BF08684968001918605960536030BD00BF4882FF1F70B5CC1C24F0030408340C2C38BF0C24002C064603DA0C2333600020A2
:4059C00070BD8C42F9D3204A136810461946A1B10A68121B0ED40B2A03D90A608B188C501FE08B420BBF5A684A6802605A6018BF0B4616E00B464968E9E7144D2B681BB99B
:405A0000304600F04BF828603046214600F046F8421C0346D1D0C51C25F0030585420AD11C6003F10B001A1D20F00700821A0AD05142995070BD3046E91A00F02FF8013099
:405A4000BBD02B46ECE770BD4882FF1F4482FF1FF8B5074615460E4621B91146BDE8F840FFF7A0BF1AB9FFF759FF2846F8BD00F025F8A8420ED238462946FFF793FF044678
:405A800050B131462A46FEF739FF38463146FFF745FF01E03046F8BD2046F8BD38B5064C0023054608462360FBF7ECF8431C02D1236803B12B6038BD18A1FF1F51F8040C06
:405AC0000028BEBF091851F8043CC018043870471000000000000000017A5200027C0E011B0C0D001000000018000000D8EEFFFF14000000000000000000000000000000EE
:405B00007D7D7D7E7E7E7E7E7F7F7F7F7F8080808080818181818182828282828283838383838484848484858585858586868686868787878787888888888889898989899A
:405B40008A8A8A8A8A8B8B8B8B8B8B8C8C8C8C8C8D8D8D8D8D8E8E8E8E8E8F8F8F8F8F9090909090919191919192929292929293939393939494949494959595959596963A
:405B8000969696979797979798989898989899999999999A9A9A9A9A9B9B9B9B9B9C9C9C9C9C9C9D9D9D9D9D9E9E9E9E9E9F9F9F9F9F9FA0A0A0A0A0A1A1A1A1A1A2A2A2E6
:405BC000A2A2A3A3A3A3A3A3A4A4A4A4A4A5A5A5A5A5A5A6A6A6A6A6A7A7A7A7A7A8A8A8A8A8A8A9A9A9A9A9AAAAAAAAAAAAABABABABABACACACACACACADADADADADAEAEA7
:405C0000AEAEAEAEAFAFAFAFAFB0B0B0B0B0B0B1B1B1B1B1B2B2B2B2B2B2B3B3B3B3B3B3B4B4B4B4B4B5B5B5B5B5B5B6B6B6B6B6B6B7B7B7B7B7B7B8B8B8B8B8B9B9B9B982
:405C4000B9B9BABABABABABABBBBBBBBBBBBBCBCBCBCBCBCBDBDBDBDBDBDBEBEBEBEBEBEBFBFBFBFBFBFC0C0C0C0C0C0C1C1C1C1C1C1C2C2C2C2C2C2C3C3C3C3C3C3C4C484
:405C8000C4C4C4C4C5C5C5C5C5C5C6C6C6C6C6C6C6C7C7C7C7C7C7C8C8C8C8C8C8C9C9C9C9C9C9C9CACACACACACACBCBCBCBCBCBCBCCCCCCCCCCCCCDCDCDCDCDCDCDCECEAB
:405CC000CECECECECECFCFCFCFCFCFD0D0D0D0D0D0D0D1D1D1D1D1D1D1D2D2D2D2D2D2D2D3D3D3D3D3D3D3D4D4D4D4D4D4D4D5D5D5D5D5D5D5D6D6D6D6D6D6D6D6D7D7D706
:405D0000D7D7D7D7D8D8D8D8D8D8D8D9D9D9D9D9D9D9D9DADADADADADADADBDBDBDBDBDBDBDBDCDCDCDCDCDCDCDCDDDDDDDDDDDDDDDDDEDEDEDEDEDEDEDEDFDFDFDFDFDF97
:405D4000DFDFE0E0E0E0E0E0E0E0E0E1E1E1E1E1E1E1E1E2E2E2E2E2E2E2E2E2E3E3E3E3E3E3E3E3E3E4E4E4E4E4E4E4E4E4E5E5E5E5E5E5E5E5E5E6E6E6E6E6E6E6E6E669
:405D8000E7E7E7E7E7E7E7E7E7E7E8E8E8E8E8E8E8E8E8E8E9E9E9E9E9E9E9E9E9E9EAEAEAEAEAEAEAEAEAEAEBEBEBEBEBEBEBEBEBEBEBECECECECECECECECECECECEDED78
:405DC000EDEDEDEDEDEDEDEDEDEEEEEEEEEEEEEEEEEEEEEEEEEFEFEFEFEFEFEFEFEFEFEFEFEFF0F0F0F0F0F0F0F0F0F0F0F0F0F1F1F1F1F1F1F1F1F1F1F1F1F1F2F2F2F2CE
:405E0000F2F2F2F2F2F2F2F2F2F2F2F3F3F3F3F3F3F3F3F3F3F3F3F3F3F3F4F4F4F4F4F4F4F4F4F4F4F4F4F4F4F4F4F5F5F5F5F5F5F5F5F5F5F5F5F5F5F5F5F5F5F6F6F66F
:405E4000F6F6F6F6F6F6F6F6F6F6F6F6F6F6F6F6F6F7F7F7F7F7F7F7F7F7F7F7F7F7F7F7F7F7F7F7F7F7F7F7F7F8F8F8F8F8F8F8F8F8F8F8F8F8F8F8F8F8F8F8F8F8F8F85C
:405E8000F8F8F8F8F8F8F9F9F9F9F9F9F9F9F9F9F9F9F9F9F9F9F9F9F9F9F9F9F9F9F9F9F9F9F9F9F9F9F9F9F9F9F9F9F9F9F9F9FAFAFAFAFAFAFAFAFAFAFAFAFAFAFAFA98
:405EC000FAFAFAFAFAFAFAFAFAFAFAFAFAFAFAFAFAFAFAFAFAFAFAFAFAFAFAFAFAFAFAFAFAFAFAFAFAFAFAFAFAFAFAFAFAFAFAFAFAFAFAFAFAFAFAFAFAFAFAFAFAFAFAFA22
:405F0000FAFAFAFAFAFAFAFAFAFAFAFAFAFAFAFAFAFAFAFAFAFAFAFAFAFAFAFAFAFAFAFAFAF9F9F9F9F9F9F9F9F9F9F9F9F9F9F9F9F9F9F9F9F9F9F9F9F9F9F9F9F9F9F900
:405F4000F9F9F9F9F9F9F9F9F9F9F9F8F8F8F8F8F8F8F8F8F8F8F8F8F8F8F8F8F8F8F8F8F8F8F8F8F8F8F8F8F7F7F7F7F7F7F7F7F7F7F7F7F7F7F7F7F7F7F7F7F7F7F7F72E
:405F8000F6F6F6F6F6F6F6F6F6F6F6F6F6F6F6F6F6F6F6F6F5F5F5F5F5F5F5F5F5F5F5F5F5F5F5F5F5F5F4F4F4F4F4F4F4F4F4F4F4F4F4F4F4F4F4F3F3F3F3F3F3F3F3F3B0
:405FC000F3F3F3F3F3F3F2F2F2F2F2F2F2F2F2F2F2F2F2F2F2F1F1F1F1F1F1F1F1F1F1F1F1F1F0F0F0F0F0F0F0F0F0F0F0F0F0EFEFEFEFEFEFEFEFEFEFEFEFEFEEEEEEEE79
:40600000EEEEEEEEEEEEEEEEEDEDEDEDEDEDEDEDEDEDEDECECECECECECECECECECECEBEBEBEBEBEBEBEBEBEBEBEAEAEAEAEAEAEAEAEAEAE9E9E9E9E9E9E9E9E9E9E8E8E88E
:40604000E8E8E8E8E8E8E8E7E7E7E7E7E7E7E7E7E7E6E6E6E6E6E6E6E6E6E5E5E5E5E5E5E5E5E5E4E4E4E4E4E4E4E4E4E3E3E3E3E3E3E3E3E3E2E2E2E2E2E2E2E2E2E1E1EC
:40608000E1E1E1E1E1E1E0E0E0E0E0E0E0E0E0DFDFDFDFDFDFDFDFDEDEDEDEDEDEDEDEDDDDDDDDDDDDDDDDDCDCDCDCDCDCDCDCDBDBDBDBDBDBDBDBDADADADADADADAD9D98A
:4060C000D9D9D9D9D9D9D8D8D8D8D8D8D8D7D7D7D7D7D7D7D6D6D6D6D6D6D6D6D5D5D5D5D5D5D5D4D4D4D4D4D4D4D3D3D3D3D3D3D3D2D2D2D2D2D2D2D1D1D1D1D1D1D1D068
:40610000D0D0D0D0D0D0CFCFCFCFCFCFCECECECECECECECDCDCDCDCDCDCDCCCCCCCCCCCCCBCBCBCBCBCBCBCACACACACACAC9C9C9C9C9C9C9C8C8C8C8C8C8C7C7C7C7C7C77E
:40614000C6C6C6C6C6C6C6C5C5C5C5C5C5C4C4C4C4C4C4C3C3C3C3C3C3C2C2C2C2C2C2C1C1C1C1C1C1C0C0C0C0C0C0BFBFBFBFBFBFBEBEBEBEBEBEBDBDBDBDBDBDBCBCBCCB
:40618000BCBCBCBBBBBBBBBBBBBABABABABABAB9B9B9B9B9B9B8B8B8B8B8B7B7B7B7B7B7B6B6B6B6B6B6B5B5B5B5B5B5B4B4B4B4B4B3B3B3B3B3B3B2B2B2B2B2B2B1B1B13E
:4061C000B1B1B0B0B0B0B0B0AFAFAFAFAFAEAEAEAEAEAEADADADADADACACACACACACABABABABABAAAAAAAAAAAAA9A9A9A9A9A8A8A8A8A8A8A7A7A7A7A7A6A6A6A6A6A5A5DA
:40620000A5A5A5A5A4A4A4A4A4A3A3A3A3A3A3A2A2A2A2A2A1A1A1A1A1A0A0A0A0A09F9F9F9F9F9F9E9E9E9E9E9D9D9D9D9D9C9C9C9C9C9C9B9B9B9B9B9A9A9A9A9A999991
:4062400099999998989898989897979797979696969696959595959594949494949393939393929292929292919191919190909090908F8F8F8F8F8E8E8E8E8E8D8D8D8D60
:406280008D8C8C8C8C8C8B8B8B8B8B8B8A8A8A8A8A89898989898888888888878787878786868686868585858585848484848483838383838282828282828181818181803E
:4062C000808080807F7F7F7F7F7E7E7E7E7E7D7D7D7D7D7C7C7C7C7C7B7B7B7B7B7A7A7A7A7A79797979797878787878787777777777767676767675757575757474747420
:406300007473737373737272727272717171717170707070706F6F6F6F6F6F6E6E6E6E6E6D6D6D6D6D6C6C6C6C6C6B6B6B6B6B6A6A6A6A6A69696969696868686868686701
:40634000676767676666666666656565656564646464646363636363626262626262616161616160606060605F5F5F5F5F5E5E5E5E5E5E5D5D5D5D5D5C5C5C5C5C5B5B5BD9
:406380005B5B5B5A5A5A5A5A5959595959585858585857575757575756565656565555555555555454545454535353535352525252525251515151515050505050504F4F9D
:4063C0004F4F4F4E4E4E4E4E4E4D4D4D4D4D4C4C4C4C4C4C4B4B4B4B4B4A4A4A4A4A4A49494949494848484848484747474747474646464646454545454545444444444449
:406400004443434343434342424242424141414141414040404040403F3F3F3F3F3F3E3E3E3E3E3E3D3D3D3D3D3D3C3C3C3C3C3C3B3B3B3B3B3B3A3A3A3A3A3A39393939D0
:40644000393938383838383837373737373736363636363635353535353534343434343434333333333333323232323232313131313131313030303030302F2F2F2F2F2F33
:406480002F2E2E2E2E2E2E2D2D2D2D2D2D2D2C2C2C2C2C2C2C2B2B2B2B2B2B2A2A2A2A2A2A2A29292929292929282828282828282727272727272726262626262626252566
:4064C0002525252525242424242424242423232323232323222222222222222121212121212121202020202020201F1F1F1F1F1F1F1F1E1E1E1E1E1E1E1E1D1D1D1D1D1D62
:406500001D1D1C1C1C1C1C1C1C1C1B1B1B1B1B1B1B1B1A1A1A1A1A1A1A1A1A1919191919191919181818181818181818171717171717171717161616161616161616151520
:4065400015151515151515141414141414141414131313131313131313131212121212121212121211111111111111111111101010101010101010100F0F0F0F0F0F0F0FA0
:406580000F0F0F0E0E0E0E0E0E0E0E0E0E0E0D0D0D0D0D0D0D0D0D0D0D0C0C0C0C0C0C0C0C0C0C0C0C0B0B0B0B0B0B0B0B0B0B0B0B0B0A0A0A0A0A0A0A0A0A0A0A0A0A09DB
:4065C00009090909090909090909090908080808080808080808080808080807070707070707070707070707070706060606060606060606060606060606060505050505CF
:406600000505050505050505050505050504040404040404040404040404040404040404040303030303030303030303030303030303030303030303030202020202020273
:4066400002020202020202020202020202020202020202020202010101010101010101010101010101010101010101010101010101010101010101010101010101010101C4
:4066800000000000000000000000000000000000000000000000000000000000000000000000000000000000000000000000000000000000000000000000000000000000DA
:4066C000000000000000000000000000000000000000000000000000000000000000000000000000000000000000000000000000000101010101010101010101010101018B
:4067000001010101010101010101010101010101010101010101010101010102020202020202020202020202020202020202020202020202020202020303030303030303EC
:406740000303030303030303030303030303030304040404040404040404040404040404040404040505050505050505050505050505050505050606060606060606060603
:4067800006060606060606070707070707070707070707070707080808080808080808080808080808090909090909090909090909090A0A0A0A0A0A0A0A0A0A0A0A0A0BCC
:4067C0000B0B0B0B0B0B0B0B0B0B0B0B0C0C0C0C0C0C0C0C0C0C0C0C0D0D0D0D0D0D0D0D0D0D0D0E0E0E0E0E0E0E0E0E0E0E0F0F0F0F0F0F0F0F0F0F0F1010101010101047
:406800001010101111111111111111111112121212121212121212131313131313131313131414141414141414141515151515151515151616161616161616161717171779
:40684000171717171718181818181818181819191919191919191A1A1A1A1A1A1A1A1A1B1B1B1B1B1B1B1B1C1C1C1C1C1C1C1C1D1D1D1D1D1D1D1D1E1E1E1E1E1E1E1E1F6C
:406880001F1F1F1F1F1F1F2020202020202021212121212121212222222222222223232323232323242424242424242425252525252525262626262626262727272727271D
:4068C0002728282828282828292929292929292A2A2A2A2A2A2A2B2B2B2B2B2B2C2C2C2C2C2C2C2D2D2D2D2D2D2D2E2E2E2E2E2E2F2F2F2F2F2F2F30303030303031313193
:4069000031313131323232323232333333333333343434343434343535353535353636363636363737373737373838383838383939393939393A3A3A3A3A3A3B3B3B3B3BD4
:406940003B3C3C3C3C3C3C3D3D3D3D3D3D3E3E3E3E3E3E3F3F3F3F3F3F404040404040414141414141424242424243434343434344444444444445454545454546464646E8
:406980004647474747474748484848484849494949494A4A4A4A4A4A4B4B4B4B4B4C4C4C4C4C4C4D4D4D4D4D4E4E4E4E4E4E4F4F4F4F4F50505050505051515151515252D6
:4069C00052525252535353535354545454545555555555555656565656575757575757585858585859595959595A5A5A5A5A5B5B5B5B5B5B5C5C5C5C5C5D5D5D5D5D5E5EA4
:406A00005E5E5E5E5F5F5F5F5F606060606061616161616262626262626363636363646464646465656565656666666666676767676768686868686869696969696A6A6A5A
:406A40006A6A6B6B6B6B6B6C6C6C6C6C6D6D6D6D6D6E6E6E6E6E6F6F6F6F6F6F707070707071717171717272727272737373737374747474747575757575767676767677FE
:406A80007777777778787878787879797979797A7A7A7A7A7B7B7B7B7B7C7C7C7C7C7D7D7D7D7D7D7E7E7E7E7E7E7E7E7E7F7F7F7F7F7F7F808080808080808080818181C0
:406AC000818181818282828282828282828383838383838384848484848484848485858585858585868686868686868686878787878787878888888888888888888989895A
:406B0000898989898A8A8A8A8A8A8A8A8A8B8B8B8B8B8B8B8C8C8C8C8C8C8C8C8C8D8D8D8D8D8D8D8E8E8E8E8E8E8E8E8F8F8F8F8F8F8F8F90909090909090909091919118
:406B400091919191929292929292929292939393939393939494949494949494949595959595959596969696969696969697979797979797989898989898989898999999D9
:406B8000999999999A9A9A9A9A9A9A9A9A9B9B9B9B9B9B9B9C9C9C9C9C9C9C9C9C9D9D9D9D9D9D9D9E9E9E9E9E9E9E9E9E9F9F9F9F9F9F9FA0A0A0A0A0A0A0A0A0A1A1A199
:406BC000A1A1A1A1A2A2A2A2A2A2A2A2A2A3A3A3A3A3A3A3A4A4A4A4A4A4A4A4A4A5A5A5A5A5A5A5A6A6A6A6A6A6A6A6A6A7A7A7A7A7A7A7A8A8A8A8A8A8A8A8A8A9A9A959
:406C0000A9A9A9A9A9AAAAAAAAAAAAAAAAABABABABABABABACACACACACACACACACADADADADADADADAEAEAEAEAEAEAEAEAEAFAFAFAFAFAFAFB0B0B0B0B0B0B0B0B0B1B1B119
:406C4000B1B1B1B1B2B2B2B2B2B2B2B2B2B3B3B3B3B3B3B3B4B4B4B4B4B4B4B4B4B5B5B5B5B5B5B5B6B6B6B6B6B6B6B6B6B7B7B7B7B7B7B7B8B8B8B8B8B8B8B8B8B9B9B9D8
:406C8000B9B9B9B9BABABABABABABABABABBBBBBBBBBBBBBBCBCBCBCBCBCBCBCBCBDBDBDBDBDBDBDBEBEBEBEBEBEBEBEBEBFBFBFBFBFBFBFC0C0C0C0C0C0C0C0C0C1C1C198
:406CC000C1C1C1C1C2C2C2C2C2C2C2C2C2C3C3C3C3C3C3C3C4C4C4C4C4C4C4C4C4C5C5C5C5C5C5C5C6C6C6C6C6C6C6C6C6C7C7C7C7C7C7C7C8C8C8C8C8C8C8C8C8C9C9C958
:406D0000C9C9C9C9CACACACACACACACACACBCBCBCBCBCBCBCCCCCCCCCCCCCCCCCDCDCDCDCDCDCDCDCECECECECECECECECFCFCFCFCFCFCFCFD0D0D0D0D0D0D0D0D1D1D1D114
:406D4000D1D1D1D1D2D2D2D2D2D2D2D2D3D3D3D3D3D3D3D3D4D4D4D4D4D4D4D4D4D5D5D5D5D5D5D5D6D6D6D6D6D6D6D6D6D7D7D7D7D7D7D7D8D8D8D8D8D8D8D8D8D9D9D9D6
:406D8000D9D9D9D9DADADADADADADADADADBDBDBDBDBDBDBDCDCDCDCDCDCDCDCDCDDDDDDDDDDDDDDDEDEDEDEDEDEDEDEDEDFDFDFDFDFDFDFE0E0E0E0E0E0E0E0E0E1E1E197
:406DC000E1E1E1E1E2E2E2E2E2E2E2E2E2E3E3E3E3E3E3E3E3E4E4E4E4E4E4E4E4E5E5E5E5E5E5E5E5E6E6E6E6E6E6E6E6E7E7E7E7E7E7E7E7E8E8E8E8E8E8E8E8E9E9E95A
:406E0000E9E9E9E9E9EAEAEAEAEAEAEAEAEBEBEBEBEBEBEBECECECECECECECECECEDEDEDEDEDEDEDEEEEEEEEEEEEEEEEEEEFEFEFEFEFEFEFF0F0F0F0F0F0F0F0F0F1F1F117
:406E4000F1F1F1F1F2F2F2F2F2F2F2F2F2F3F3F3F3F3F3F3F4F4F4F4F4F4F4F4F4F5F5F5F5F5F5F5F6F6F6F6F6F6F6F6F6F7F7F7F7F7F7F7F8F8F8F8F8F8F8F8F8F9F9F9D6
:406E8000F9F9F9F9FAFAFAFAFAFAFAFAFAF9F9F9F9F9F9F9F8F8F8F8F8F8F8F8F8F7F7F7F7F7F7F7F6F6F6F6F6F6F6F6F6F5F5F5F5F5F5F5F4F4F4F4F4F4F4F4F4F3F3F316
:406EC000F3F3F3F3F2F2F2F2F2F2F2F2F2F1F1F1F1F1F1F1F0F0F0F0F0F0F0F0F0EFEFEFEFEFEFEFEEEEEEEEEEEEEEEEEEEDEDEDEDEDEDEDECECECECECECECECECEBEBEBCE
:406F0000EBEBEBEBEAEAEAEAEAEAEAEAEAE9E9E9E9E9E9E9E8E8E8E8E8E8E8E8E8E7E7E7E7E7E7E7E6E6E6E6E6E6E6E6E6E5E5E5E5E5E5E5E4E4E4E4E4E4E4E4E4E3E3E38D
:406F4000E3E3E3E3E2E2E2E2E2E2E2E2E2E1E1E1E1E1E1E1E0E0E0E0E0E0E0E0E0DFDFDFDFDFDFDFDEDEDEDEDEDEDEDEDEDDDDDDDDDDDDDDDCDCDCDCDCDCDCDCDCDBDBDB4D
:406F8000DBDBDBDBDADADADADADADADADAD9D9D9D9D9D9D9D8D8D8D8D8D8D8D8D8D7D7D7D7D7D7D7D6D6D6D6D6D6D6D6D6D5D5D5D5D5D5D5D4D4D4D4D4D4D4D4D4D3D3D30D
:406FC000D3D3D3D3D2D2D2D2D2D2D2D2D2D1D1D1D1D1D1D1D0D0D0D0D0D0D0D0D0CFCFCFCFCFCFCFCECECECECECECECECECDCDCDCDCDCDCDCCCCCCCCCCCCCCCCCCCBCBCBCD
:40700000CBCBCBCBCACACACACACACACACAC9C9C9C9C9C9C9C8C8C8C8C8C8C8C8C8C7C7C7C7C7C7C7C6C6C6C6C6C6C6C6C6C5C5C5C5C5C5C5C4C4C4C4C4C4C4C4C4C3C3C38C
:40704000C3C3C3C3C2C2C2C2C2C2C2C2C2C1C1C1C1C1C1C1C0C0C0C0C0C0C0C0C0BFBFBFBFBFBFBFBEBEBEBEBEBEBEBEBEBDBDBDBDBDBDBDBCBCBCBCBCBCBCBCBCBBBBBB4C
:40708000BBBBBBBBBABABABABABABABABAB9B9B9B9B9B9B9B8B8B8B8B8B8B8B8B8B7B7B7B7B7B7B7B6B6B6B6B6B6B6B6B6B5B5B5B5B5B5B5B4B4B4B4B4B4B4B4B4B3B3B30C
:4070C000B3B3B3B3B2B2B2B2B2B2B2B2B2B1B1B1B1B1B1B1B0B0B0B0B0B0B0B0B0AFAFAFAFAFAFAFAEAEAEAEAEAEAEAEAEADADADADADADADACACACACACACACACACABABABCC
:40710000ABABABABAAAAAAAAAAAAAAAAAAA9A9A9A9A9A9A9A8A8A8A8A8A8A8A8A8A7A7A7A7A7A7A7A6A6A6A6A6A6A6A6A6A5A5A5A5A5A5A5A4A4A4A4A4A4A4A4A4A3A3A38B
:40714000A3A3A3A3A2A2A2A2A2A2A2A2A2A1A1A1A1A1A1A1A0A0A0A0A0A0A0A0A09F9F9F9F9F9F9F9E9E9E9E9E9E9E9E9E9D9D9D9D9D9D9D9C9C9C9C9C9C9C9C9C9B9B9B4B
:407180009B9B9B9B9A9A9A9A9A9A9A9A9A9999999999999998989898989898989897979797979797969696969696969696959595959595959494949494949494949393930B
:4071C00093939393929292929292929292919191919191919090909090909090908F8F8F8F8F8F8F8E8E8E8E8E8E8E8E8E8D8D8D8D8D8D8D8C8C8C8C8C8C8C8C8C8B8B8BCB
:407200008B8B8B8B8A8A8A8A8A8A8A8A8A8989898989898988888888888888888887878787878787868686868686868686858585858585858484848484848484848383838A
