:400000000080002011000000890500008905000080B500AF024B034A12681A6000F0E0FABC760040FA46004010B5054C237833B9044B13B10448AFF300800123237010BD23
:400040009881FF1F000000008C2C000008B5064B1BB106480649AFF300800648036813B1054B03B1984708BD000000008C2C00009C81FF1F0881FF1F0000000080B584B0D0
:4000800000AF01F0FFF801F0FBF900F047FA01F065FB2E4801F0A8F82D4801F007FC2D4801F052FC62B613E02B4B1B78002B0FD0294B00221A702948294902F0DBF90346EE
:4000C000002B05D1274B01221A70274801F09EF9244B1B78002BE7D01F4B1B78002B05D01E4800F049F81C4B00221A701F4B1B78002B29D01D4B00221A703B1D18461C490E
:400100004FF4C87202F092F93B1D184601F07EF90023FB8114E0FA89164B33F812301B0A9BB2DBB2184601F057F9FA89114B33F81230DBB2184601F04FF9FB890133FB8181
:40014000FB89B3F5C87FE6D300BFC1E75D040000ED04000005050000B681FF1FB881FF1F902C0000B481FF1FA42C0000D981FF1FB02C00002082FF1F80B584B000AF786001
:400180007B680133FB60FB681B78412B72D1FB680133FB6069E0FB685A1CFA601B78413B192B5CD801A252F823F000BF150200005F0200005F0200005F0200005F020000D9
:4001C0005F0200005F0200005F0200005F0200005F0200005F0200005F0200005F0200005F0200005F0200005F0200005F0200005F0200005F0200005F0200005F020000EF
:400200005F0200005F0200005F0200005F0200003B020000884B1B78002B0DD101F01AFA01F0D2FA844B01221A70844B1B781846012100F093FD13E012E07F4B1B78002B81
:400240000CD001F0D1FA01F0B1F97C4B1B78184600F0CAFD784B00221A7001E000E000BFF868774902F022F9F860FB681B78232B91D1DEE0FB681B78442B40F0D680FB68B6
:400280000133FB60CBE0FB685A1CFA601B78413B192B00F2BE8001A252F823F00503000013040000130400001304000013040000130400001304000013040000130400008E
:4002C000130400001304000013040000130400001304000013040000130400001304000013040000130400001304000013040000130400003303000013040000130400006F
:40030000F50300004F4B1B78002B11D14E4B1B78184601F041FC4D4B1B78184601F046FD01F0A4FB01F0ACFC464B01221A7071E070E0FB680133FB60FB681B78413B162B69
:400340004CD801A252F823F0A5030000DD030000DD030000DD030000DD030000DD030000DD030000DD030000B3030000DD030000DD030000DD030000DD030000DD0300007B
:40038000DD030000DD030000C1030000DD030000DD030000CF030000DD030000DD030000DD030000284B01221A70284B01221A7015E0254B00221A70244B00221A700EE02D
:4003C000214B00221A70214B01221A7007E01E4B01221A701D4B00221A7000E000BF1B4B1B78184601F0E2FC174B1B78184601F0D3FB0FE0134B1B78002B09D001F0E6FB2E
:4004000001F044FB01F04CFC0E4B00221A7001E000E000BFF8680E4902F048F8F860FB681B78232B7FF42FAF03E00A480A4902F021F81037BD4680BDD881FF1F1C82FF1FAB
:40044000B82C0000DA81FF1FDC81FF1FDB81FF1FC02C0000B881FF1FCC2C000080B582B000AF2CE000F07EFF0346FB711B4B1B78002B02D1FB79232B21D1184B1B78184AA8
:40048000F979D154154B1B785A1CD1B2134A1170002B14D0FB79232B11D1124B01221A700E4B1B7810480E491A4601F0EDFF0B4B1B780D4A0021D154084B00221A7000F0D1
:4004C00073FF0346002B03D0064B1B78002BC9D000F036FF0837BD4680BD00BFB581FF1FFC81FF1FB681FF1FB881FF1F80B500AF034B1B781846012100F030FC80BD00BF40
:400500001C82FF1F80B400AF034B01221A70BD465DF8047B704700BFD981FF1F80B500AF022001214FF4804241F6FF7301F0E6F803461A46114B1A7000F05AFD03461A4638
:400540000F4B1A700E4B1B7818464FF44871FE22062300F07BFD0A4B1A780A4B9BB2104645F6A2311A4600F0A9FD044B1A78044B1B781046194600F0D5FC80BD1C82FF1F8B
:40058000F881FF1F2082FF1F80B400AFFEE700BF80B584B000AF78600F4B1A687B6813441A460E4BD31A802B09DC0B4B1B68FB60094B1A687B681A44074B1A6007E001F032
:4005C000F7FE03460C221A604FF0FF33FB60FB6818461037BD4680BD0C81FF1F5085FF1F80B586B000AF224B7B61224B3B61204B7B6135E03B691B68FB603B695B68BB6097
:400600003B699B683B6000237B600CE0FB681A68BB681A60BB680433BB60FB680433FB607B6804337B607A683B689A42EED13B69DB683B6000237B6008E0BB6800221A6066
:40064000BB680433BB607B6804337B607A683B689A42F2D13B6910333B617B69013B7B617B69002BC6D101F0A9FEFFF707FDFEE7010000009C33000080B582B000AF184B07
:40068000184A1A60184B184A126842F400721A6000237B600FE07B68032B04D8134B7A6853F8223000E0124B124A796842F821307B6801337B607B682F2BECD90E4B1B7861
:4006C000DAB20E4B1A700E4B0A4A1A6000F00AFA00F016FB0B4B00221A600837BD4680BD0CED00E00004FA0514ED00E000000000890500000080FF1FBC7600400481FF1F00
:4007000008ED00E00081FF1F80B582B000AF78603960786800213A6801F07FFE0837BD4680BD00BF80B584B000AFF860B9607A60F868B9687A6801F067FE1037BD4680BDCC
:4007400080B483B000AF0346FB71FEE780B487B000AF7860396000233B6100237B6126E07B699B007A6813441B68BB60BB68FB73BB6823F0FF03BB6013E03B695B003A68AC
:4007800013441B781A46BB6813443A69520039680A4452781A703B6901333B61FB7B013BFB73FB7B002BE8D17B6901337B617B691B2BD5D91C37BD465DF8047B704700BFE3
:4007C00080B582B000AF424B33221A80414B18221A70414B5F221A80404B18221A70404B5F221A803F4B18221A703F483F490422FFF798FF3E4B02221A704FF04023082268
:400800001A703C4B03221A703B4B3C4A1278D2B21A703B4B08221A803A4B41F251221A800023FB7019237B6014E0FB785B00DAB2354B1B78DBB203F00103DBB21343DBB24B
:4008400003F00303FB704FF4F07000F029FA7B68013B7B607B68002B02D0FB78032BE4D17B68002B02D10320FFF76AFF274B4FF480721A80254B07221A70254B00221A704B
:40088000244B48221A70214B00221A70224B02221A70224B04221A70214B214A1278D2B242F00702D2B21A701E4B1E4A1278D2B242F00102D2B21A701B4B1B4A1278D2B25C
:4008C00062F07F02D2B21A700837BD4680BD00BF80400040824000408440004086400040884000408A40004000410040880500480043004000420040A146004008010049E7
:40090000224200402042004025420040044000400640004008400040014000400B400040A2430040A1430040A043004080B483B000AF254B1B78FB71244B1B78BB71244B9E
:400940001B787B71234BFA7902F00702D2B21A70214BFA791209D2B21A701C4BBA7942F00302D2B21A701A4B7A7942F00302D2B21A701A4B80221A70194B02221A70194B83
:4009800080221A70184B20221A70184B80221A70174B08221A70174B20221A70164B4FF481721A80154B80221A70094B7A791A70064BBA791A70124B44221A700C37BD46DA
:4009C0005DF8047B704700BFCF010049F8460040F94600406E5800406F5800401D5100402D51004009590040985A0040005B0040285B00402B5B0040465B0040585B004052
:400A00007658004080B483B000AF0346FB71FB79012B24D8FA79FB791344FB71FA79124B53F82230F979104A52F821201178FA790E48825C0A43D2B21A70FB790133FB7134
:400A4000FA79094B53F82230F979074A52F821201178FA790548825C0A43D2B21A700C37BD465DF8047B7047E02C0000F02C000080B483B000AF0346FB71FB79012B28D8DE
:400A8000FA79FB791344FB71FA79144B53F82230F979124A52F821201178FA791048825CD243D2B20A40D2B21A70FB790133FB71FA790A4B53F82230F979084A52F82120D9
:400AC0001178FA790648825CD243D2B20A40D2B21A700C37BD465DF8047B7047E02C0000F02C000080B586B000AF72B6544B544A1278D2B242F00402D2B21A700023FB757E
:400B000013E0FA7D13465B0013445B004D4A13443B613B691A683B699B889BB210461946FFF7F2FDFB7D0133FB75FB7D082BE8D90023FB751CE0FA7D13469B0013445B0053
:400B4000414A1344FB60FB681B68BB60FB685B687B60FB681A7A5B7A1B0213437B807B88B86879681A46FFF7DDFDFB7D0133FB75FB7D012BDFD94FF090403449FFF7E6FDEB
:400B800033480421FFF7C0FD32480421FFF7BCFD31480421FFF7B8FD30480421FFF7B4FD2F480421FFF7B0FD2E4B2E4A1278D2B242F00202D2B21A702B4B2B4A1278D2B28C
:400BC00042F00202D2B21A70284B284A1278D2B242F04002D2B21A70254B254A1278D2B242F01002D2B21A70224823490A22FFF799FD224822490822FFF794FD2148224915
:400C00000822FFF78FFD214B204A1278D2B242F00802D2B21A701E4B60221A70FFF7D0FD1B4B80221A701B4B01221A70FFF77EFE19480E490E22FFF775FD1837BD4680BDAC
:400C4000E8460040F42C00002C2D00007000004800760040087600401076004018760040207600400350014013500140A0430040C2430040C05100406C05004812510040AA
:400C8000780500482251004080050048224300400048004004000840B043004000000000142840F2188002B4012114381149097811F0C001890904B40F4A515C04BC00BFAD
:400CC00000BF00BF88417FF5FDAF00BF00BF02BC704700BF00BF70F104007FF5FCAF70470B050709EFF3108072B6704780F310887047000000480040E00C0000AFF3008018
:400D000080B483B000AF134B7F221A70124B80221A707F23FB710CE0FB79DB0003F1804303F5F043FA79013AD2B21A70FB79013BFB71FB79002BEFD1FB79DB0003F1804323
:400D400003F5F04300221A700C37BD465DF8047B704700BF1181FF1F1081FF1F80B485B000AF02460B46FA71BB710123FB60FB79172B2FD8BB79002B0ED0FB791A01194BF9
:400D80001344FA791101174A0A441278D2B242F02002D2B21A700DE0FB791A01114B1344FA7911010F4A0A441278D2B222F02002D2B21A70FB791A010A4B1344FA791101CD
:400DC000084A0A441278D2B242F00102D2B21A700023FB60FB6818461437BD465DF8047B704700BF1070004080B485B000AF0346FB710123FB60FB79172B1DD8FB791A01E5
:400E0000114B1344FA7911010F4A0A441278D2B222F00102D2B21A70FB791A010A4B1344FA791101084A0A441278D2B222F02002D2B21A700023FB60FB6818461437BD4665
:400E40005DF8047B704700BF1070004080B485B000AF02460B46FA71BB710123FB60FB79172B18D8FB791A010E4B13441B78DBB223F00E03FB72FB791A010A4B1344BA799D
:400E800002F00702D2B25200D1B2FA7A0A43D2B21A700023FB60FB6818461437BD465DF8047B70471070004080B485B000AF13460246FA710A46BA807B800123FB60BA88CD
:400EC00041F6FF739A4202D14FF40053BB807A8841F6FF739A4202D14FF400537B80FB79172B17D8FB79DB0003F1804303F5EC430433BB60BB68BA881A80FB79DB0003F178
:400F0000804303F5EC430633BB60BB687A881A800023FB60FB6818461437BD465DF8047B704700BF80B485B000AF02460B46FA71BB710123FB60FB79172B07D8FB791A01F2
:400F4000064B1344BA795A720023FB60FB6818461437BD465DF8047B704700BF1070004080B485B000AFF871B9717A713B710123FB60FB79172B34D8FB79DB0003F18043AA
:400F800003F5EC43BA7902F07F02D1B27A79D201D2B20A43D2B21A70FB79DB0003F1804303F5EC433A7E1201D1B23A7902F00F02D2B20A43D2B25A70FB79DB0003F18043E6
:400FC00003F5EC433A7F02F00F02D2B29A70FB79DB0003F1804303F5EC430022DA700023FB60FB6818461437BD465DF8047B704780B582B000AFFF23FB71FFF773FE03467B
:40100000BB71104B1B78182B12D90F4B1B78FB710C4B1B78013BDAB20A4B1A70FB79DB0003F1804303F5F0431B78DAB2064B1A70BB791846FFF75AFEFB7918460837BD465F
:4010400080BD00BF1081FF1F1181FF1F80B485B000AFF871B980BA71FB700123FB60FB795BB2002B23DBBB8823F47F6323F00F039BB2002B1BD1FB79DB0003F1804303F5D9
:40108000F043BB60BB68BA881A80FB79DB0003F1804303F5F043BA799A70FB79DB0003F1804303F5F043FA78DA700023FB60FB6818461437BD465DF8047B704780B485B007
:4010C00000AF13460246FA710A46BA807B800123FB60FB795BB2002B17DBFB79DB0003F1804303F5F0430433BB60BB68BA881A80FB79DB0003F1804303F5F0430633BB608C
:40110000BB687A881A800023FB60FB6818461437BD465DF8047B704780B483B000AF0346FB7101BE0C37BD465DF8047B704700BF80B582B000AF0346FB80FB88044A127889
:4011400002FB03F31846FFF7ABFD0837BD4680BD2081FF1F80B584B000AF03463960FB710F4B1B68FB60FB791F2B02D90020FFF7D3FFFB7903F01F0310339B00FA68134403
:401180001B68BB60FB7903F01F0310339B00FA6813443A681A60BB6818461037BD4680BD08ED00E080B582B000AF02460B46FA71BB71BB79072B02D90020FFF7ADFFFB79BB
:4011C0001F2B02D90020FFF7A7FFFB7903F01F0303F1604303F56443BA795201D2B21A700837BD4680BD00BF80B582B000AF786000F03CF8786800F009F8072000F018F873
:4012000000F028F80837BD4680BD00BF80B485B000AF7860054B1B68FB60FB6848337A681A601437BD465DF8047B704708ED00E080B483B000AF0346FB71054BFA79520179
:40124000D2B21A700C37BD465DF8047B704700BF02E400E080B400AF034B04221A60BD465DF8047B704700BF00E100E080B400AF034B04221A60BD465DF8047B704700BF0D
:4012800080E100E080B500AF054B1B78002B04D100F008F8024B01221A7000F023F880BDE081FF1F80B400AF094B72221A70094B7F221A70084B06221A70084B47221A7056
:4012C000074B00221A70BD465DF8047B704700BF8B6500408865004028640040386400408964004080B582B000AFFFF7FBFC0346FB71104B0F4A1278D2B242F02002D2B21F
:401300001A700D4B0C4A1278D2B242F01002D2B21A700A4B094A1278D2B242F01002D2B21A7000F093F8FB791846FFF7DFFC0837BD4680BD9B6500409865004099640040B6
:4013400080B483B000AF064B1B78DBB203F07F03FB71FB7918460C37BD465DF8047B70476865004080B483B000AF0023FB710C4B1B78BB71BB7903F02003002B09D0094BF8
:401380001B78FB71BB7903F01E03002B01D00023FB71FB7918460C37BD465DF8047B7047686500404B65004080B483B000AF094B1B78DBB203F02003002B01D0012300E01B
:4013C0000023FB71FB7918460C37BD465DF8047B704700BF6865004080B483B000AF0346FB7100BF074B1B78DBB203F00403002BF8D1054BFA791A700C37BD465DF8047B9E
:40140000704700BF696400404964004080B584B000AF78600023FB810B4B1B78002B10D009E0FB897A6813441B781846FFF7D4FFFB890133FB81FB897A6813441B78002BAA
:40144000EFD11037BD4680BDE081FF1F80B400AF094B094A1278D2B242F00102D2B21A70064B064A1278D2B242F00102D2B21A70BD465DF8047B7047A2430040B2430040F1
:4014800080B500AF054B1B78002B04D100F008F8024B01221A7000F023F880BDE281FF1F80B500AF03200721FFF77CFE03200949FFF750FE084B084A1278D2B242F006026D
:4014C000D2B21A700C2000F09DF8044B00221A8080BD00BFF1160000095900404885FF1F80B582B000AFFFF7FDFB0346FB71264B254A1278D2B242F00202D2B21A70234B39
:40150000224A1278D2B242F00202D2B21A70204B1B78BB71BB7943F00203BB71BB7943F00103BB711A4BBA791A701A4B18221A70194B194A1278D2B242F04002D2B21A70F2
:40154000154B154A1278D2B222F00302D2B21A70124BC8221A70124B02221A70114B114A1278D2B242F00802D2B21A700A20FFF7DFFD0D4B08221A60FB791846FFF7B6FB1D
:401580000837BD4680BD00BFAB430040BB4300400B5900400E5900400D59004008590040164600402F5B004080E200E080B582B000AFFFF797FB0346FB710F4B0E4A1278B8
:4015C000D2B222F00102D2B21A700C4B0B4A1278D2B222F00202D2B21A70094B084A1278D2B222F00202D2B21A70FB791846FFF77DFB0837BD4680BD08590040AB43004000
:40160000BB43004080B584B000AF0346FB71FB790A2B07D00C2B02D0082B06D008E0C223FB730BE08223FB7308E04223FB7305E0C223FB730020FFF76FFD00BF044BFA7BDC
:401640001A70FB79184600F015F81037BD4680BD0A59004080B400AF054B054A1278D2B242F00102D2B21A70BD465DF8047B70470859004080B584B000AF0346FB71FB79A4
:401680000A2B08D00C2B02D0082B08D00BE04FF48053FB600DE04FF48063FB6009E04FF48073FB6005E00023FB600020FFF734FD00BF0C4B00221A80FB6842F2107202FB33
:4016C00003F303F58063002B01DA03F2FF73DB121A46054B1A60054B00221A801037BD4680BD00BF4685FF1F4085FF1F4485FF1F80B400AFBD465DF8047B704780B584B0B6
:4017000002AFF871B971BA807B80134B00221A70114B1978FA79BB790020009000200190084611461A460023FFF71AFC0A4B1978BA887B88084611461A46FFF7B5FB064BD6
:401740001B7818460221FFF781FB034B1B7818460837BD4680BD00BF2881FF1F80B582B000AF0F4800F06CF80D4800F083F8FFF7B9FA0346FB710B4B0A4A1278D2B242F0D6
:401780001002D2B21A70FB791846FFF7AFFA00F07FF8012000F038F80837BD4680BD00BF7F8D5B009765004080B400AF054B054A1278D2B262F07F02D2B21A70BD465DF846
:4017C000047B70477565004080B500AF054B1B78002B04D1FFF7C2FF024B01221A70FFF7E3FF80BDE381FF1F80B400AF054B054A1278D2B202F07F02D2B21A70BD465DF821
:40180000047B70477565004080B483B000AF0346FB71044BFA791A700C37BD465DF8047B704700BF8765004080B400AF034B1B78DBB21846BD465DF8047B7047676500403C
:4018400080B483B000AF7860034B7A681A600C37BD465DF8047B70472465004080B400AF034B1B681846BD465DF8047B704700BF4465004080B483B000AF7860034B7A68D0
:401880001A600C37BD465DF8047B70470465004080B500AF01E0FFF7E1FFFFF7C5FF034603F00803002BF6D180BD00BF80B582B000AF786000F03CF8786800F009F80720A0
:4018C00000F018F800F028F80837BD4680BD00BF80B485B000AF7860054B1B68FB60FB6844337A681A601437BD465DF8047B704708ED00E080B483B000AF0346FB71054B7D
:40190000FA795201D2B21A700C37BD465DF8047B704700BF01E400E080B400AF034B02221A60BD465DF8047B704700BF00E100E080B400AF034B02221A60BD465DF8047BFB
:40194000704700BF80E100E080B582B000AF786000F03CF8786800F009F8072000F018F800F028F80837BD4680BD00BF80B485B000AF7860054B1B68FB60FB6840337A6882
:401980001A601437BD465DF8047B704708ED00E080B483B000AF0346FB71054BFA795201D2B21A700C37BD465DF8047B704700BF00E400E080B400AF034B01221A60BD46EB
:4019C0005DF8047B704700BF00E100E080B400AF034B01221A60BD465DF8047B704700BF80E100E080B500AF00F084FA022000F0D3FA042000F0F0FAFFF7FAFA03461A46BE
:401A0000094B1A70FFF7F4FA03461A46074B1A7007484FF4867100F04FF806484FF4FA7100F082F880BD00BFE781FF1FE881FF1F402D00004C2E000080B500AF00F078FA03
:401A4000084B1B7818460121FFF788F9064B1B7818460121FFF782F9002000F0DDFA00F0B5F980BDE581FF1FE681FF1F80B500AF054B1B78002B04D1FFF7B4FF024B012209
:401A80001A70FFF7D9FF80BDE481FF1F80B500AF00F0B6F9064B1B781846FFF7A5F9054B1B781846FFF7A0F900F05CFA80BD00BFE581FF1FE681FF1F80B582B000AF7860AC
:401AC0000B467B807B681B0C9BB2012001211A464FF4804300F0AEF903461A46104B1A70104B19780F4B1B787A88084611461A460123FFF7ABFA0B4B1A787B689BB2104668
:401B000019464FF4B742FFF7D9FA054B1A78054B1B7810461946FFF705FA0837BD4680BDE581FF1FE781FF1F80B582B000AF78600B467B807B681B0C9BB2012001211A4615
:401B40004FF4804300F0A6F903461A46104B1A70104B19780F4B1B787A88084611461A460123FFF773FA0B4B1A787B689BB2104619464FF4B742FFF7A1FA054B1A78054B0F
:401B80001B7810461946FFF7CDF90837BD4680BDE681FF1FE881FF1F80B582B000AF0346FB71094B1B78FF2B04D0074B1B781846FEF75EFFFB791846FEF724FF024BFA79A7
:401BC0001A700837BD4680BD2981FF1F80B500AF064B1B78FF2B07D0044B1B781846FEF747FF024BFF221A7080BD00BF2981FF1F80B500AF00F0D2FA022000F021FB002026
:401C000000F03EFB00F08AFBFFF7F2F903461A46094B1A70FFF7ECF903461A46074B1A7007484FF4867100F051F806484FF4FA7100F084F880BD00BFEC81FF1FED81FF1F01
:401C4000403000004C31000080B500AF00F0C4FA00F06AFB084B1B7818460121FFF77EF8064B1B7818460121FFF778F8002000F027FB00F0FFF980BDEA81FF1FEB81FF1F8A
:401C800080B500AF054B1B78002B04D1FFF7B0FF024B01221A70FFF7D7FF80BDE981FF1F80B500AF00F000FA064B1B781846FFF79BF8054B1B781846FFF796F800F0A6FA3F
:401CC00080BD00BFEA81FF1FEB81FF1F80B582B000AF78600B467B807B681B0C9BB2012001211A464FF4804300F0F8F903461A46104B1A70104B19780F4B1B787A88084603
:401D000011461A460123FFF7A1F90B4B1A787B689BB21046194645F68332FFF7CFF9054B1A78054B1B7810461946FFF7FBF80837BD4680BDEA81FF1FEC81FF1F80B582B060
:401D400000AF78600B467B807B681B0C9BB2012001211A464FF4804300F0F0F903461A46104B1A70104B19780F4B1B787A88084611461A460123FFF769F90B4B1A787B6802
:401D80009BB21046194645F68332FFF797F9054B1A78054B1B7810461946FFF7C3F80837BD4680BDEB81FF1FED81FF1F80B483B000AF0346FB71044BFA791A700C37BD468E
:401DC0005DF8047B704700BF7965004080B400AF094B094A1278D2B242F00202D2B21A70064B064A1278D2B242F00202D2B21A70BD465DF8047B7047A2430040B2430040C4
:401E000080B400AF094B094A1278D2B222F00202D2B21A70064B064A1278D2B222F00202D2B21A70BD465DF8047B7047A2430040B243004080B584B002AFF871B971BA8044
:401E40007B80134B01221A70114B1978FA79BB790020009000200190084611461A460023FFF77EF80A4B1978BA887B88084611461A46FFF719F8064B1B7818460221FEF742
:401E8000E5FF034B1B7818460837BD4680BD00BF2A81FF1F80B584B002AFF871B971BA807B80134B02221A70114B1978FA79BB790020009000200190084611461A460023ED
:401EC000FFF74EF80A4B1978BA887B88084611461A46FEF7E9FF064B1B7818460221FEF7B5FF034B1B7818460837BD4680BD00BF2B81FF1F80B500AF0A4B00221A700A4B0A
:401F000000221A70094B094A1278D2B242F00802D2B21A70002000F05FF8022000F03CF880BD00BF2058004021580040875A004080B400AF094B094A1278D2B242F00102EE
:401F4000D2B21A70064B064A1278D2B242F00102D2B21A70BD465DF8047B7047A8430040B843004080B400AF094B094A1278D2B222F00102D2B21A70064B064A1278D2B203
:401F800022F00102D2B21A70BD465DF8047B7047A8430040B843004080B483B000AF0346FB710C4B0B4A1278D2B222F00202D2B21A70084B074A1278D1B2FA7902F0020247
:401FC000D2B20A43D2B21A700C37BD465DF8047B704700BF2058004080B582B000AF0346FB710C4B0B4A1278D2B222F00C02D2B21A70084B074A1278D1B2FA7902F00C02E3
:40200000D2B20A43D2B21A7000F016F80837BD4680BD00BF2058004080B483B000AF0346FB71044BFA791A700C37BD465DF8047B704700BF805B004080B483B000AF0B4B9F
:402040001B78DBB203F00C039B08DBB20633FB71074AFB7903F1924303F590731B78DBB213700C37BD465DF8047B7047205800400846004080B400AF094B094A1278D2B28E
:4020800042F00402D2B21A70064B064A1278D2B242F00402D2B21A70BD465DF8047B7047A2430040B243004080B400AF094B094A1278D2B222F00402D2B21A70064B064A9E
:4020C0001278D2B222F00402D2B21A70BD465DF8047B7047A2430040B243004080B584B002AFF871B971BA807B80134B03221A70114B1978FA79BB790020009000200190E0
:40210000084611461A460023FEF72AFF0A4B1978BA887B88084611461A46FEF7C5FE064B1B7818460221FEF791FE034B1B7818460837BD4680BD00BF2C81FF1F80B584B0D7
:4021400002AFF871B971BA807B80134B04221A70114B1978FA79BB790020009000200190084611461A460023FEF7FAFE0A4B1978BA887B88084611461A46FEF795FE064BC5
:402180001B7818460221FEF761FE034B1B7818460837BD4680BD00BF2D81FF1F80B500AF0A4B00221A700A4B00221A70094B094A1278D2B242F00802D2B21A70002000F079
:4021C0005FF8022000F03CF880BD00BF2C5800402D5800409F5A004080B400AF094B094A1278D2B242F00802D2B21A70064B064A1278D2B242F00802D2B21A70BD465DF851
:40220000047B7047A8430040B843004080B400AF094B094A1278D2B222F00802D2B21A70064B064A1278D2B222F00802D2B21A70BD465DF8047B7047A8430040B843004073
:4022400080B483B000AF0346FB710C4B0B4A1278D2B222F00202D2B21A70084B074A1278D1B2FA7902F00202D2B20A43D2B21A700C37BD465DF8047B704700BF2C58004068
:4022800080B582B000AF0346FB710C4B0B4A1278D2B222F00C02D2B21A70084B074A1278D1B2FA7902F00C02D2B20A43D2B21A7000F016F80837BD4680BD00BF2C58004068
:4022C00080B483B000AF0346FB71044BFA791A700C37BD465DF8047B704700BF835B004080B483B000AF0B4B1B78DBB203F00C039B08DBB20633FB71074AFB7903F1924328
:4023000003F59C731B78DBB213700C37BD465DF8047B70472C5800400B46004080B500AF022000F025F880BD80B400AF0D4B0D4A1278D2B242F06002D2B21A700A4B0A4A92
:402340001278D2B242F00802D2B21A70074B074A1278D2B242F00802D2B21A70BD465DF8047B704777580040A4430040B443004080B483B000AF0346FB710C4B0B4A12780E
:40238000D2B222F00302D2B21A70084B074A1278D1B2FA7902F00302D2B20A43D2B21A700C37BD465DF8047B704700BF5E580040014B1868704700BF9081FF1F70B50E4B05
:4023C0000E4D0024ED1AAD101E46AC4204D056F8242090470134F8E700F0CEFF084D094B0024ED1AAD101E46AC4204D056F8242090470134F8E770BD84330000843300006B
:402400008C3300008433000010B50023934203D0CC5CC4540133F9E710BD02440346934202D003F8011BFAE7704700000EB400B54FF402719CB0ADF814106FF00041049119
:4024400007914FF6FF711DABADF81610084953F8042B02900690086802A9019300F09AF8029B00221A701CB05DF804EB03B070479081FF1F10F8012B11F8013B012A28BFDB
:402480009A42F7D0D01A704710B5034632B111F8014B013A03F8014B002CF7D11A44934203D0002103F8011BF9E710BD70B503780A468BB1064610F8014B3CB10B461A46C7
:4024C00013F8015B002DF5D0AC42F8D11378002B14BF3046002070BD184670BD2DE9F0478D688146AB420C4692461F4643D38B8913F4906F3DD0266809690222C1EB060855
:40250000666906EB460696FBF2F608F101023A44964238BF16465B050FD5314600F01AFB054698B121694246FFF76EFFA38923F4906343F08003A38113E0324600F05EFBE4
:40254000054670B94846216900F0C0FA0C23C9F80030A3894FF0FF3043F04003A381BDE8F087256166614544C8EB06062560A6603D46AF4200D23D462A462068514600F04D
:4025800089FAA36800205B1BA36023681D442560BDE8F0872DE9F0439DB003938B8907461C060D4616460CD50B6953B9402100F0D1FA2860286110B90C233B60C7E04023DE
:4025C0006B610023099320238DF8293030238DF82A3033461C4613F8012B1AB9B4EB06090FD002E0252AF5D1F8E73846294632464B46FFF773FF013000F0A480099B4B44DF
:4026000009932378002B00F09D8000234FF0FF3204930793059206938DF853301A9304F101094D4E4C4630462178052200F024FA09F10109049B28B1861B0120B04003439E
:402640000493EEE7D90644BF20228DF853201A0744BF2B228DF8532022782A2A02D0079B21460EE0039A111D12680391002A01DB079204E0524243F0020307920493013425
:402680000AE00C4622780131303A092A03D80A2000FB0323F5E7079323782E2B19D163782A2B09D1039B02341A1D1B680392002BB8BF4FF0FF330BE0611C00230C46227844
:4026C0000131303A092A03D80A2000FB0323F5E70593224E21783046032200F0CDF930B1861B4020B040049B01340343049321781B480622661C8DF8281000F0BDF988B152
:40270000184B33B9039B073323F007030833039314E003AB0093384604A92A46124BAFF3008007E003AB0093384604A92A460E4B00F08EF8B0F1FF3F804603D0099B434400
:40274000099346E7AB895B0601D4099801E04FF0FF301DB0BDE8F08342330000483300004C33000000000000DD2400002DE9F84315461F468A680B6906469A42A8BF134682
:402780002B6091F843200C46DDF820800AB101332B602368990602D52B6802332B60236813F006091DD094F843302268003318BF012392061FD5E118302081F843005A1CC5
:4027C00094F845102244023382F8431013E03046394604F119020123C047013007D009F10109E2682B68D31A9945F0DBDBE74FF0FF30BDE8F8833046394604F14302C04768
:402800000130F4D023682A6803F00603E168042B08BFC2EB01052369A2680CBF25EAE57500259A42C4BFC3EB0203ED184FF00009A9450ADA3046394604F11A020123C04747
:402840000130D4D009F10109F2E70020BDE8F8832DE9FF470E7E80466E2E0C4691469A460C9D01F1430000F0A58011D8632E22D009D8002E00F0AF80582E40F0BF8081F818
:4028800045607B4A4FE0642E1ED0692E1CD0B5E0732E00F0A48009D86F2E2BD0702E40F0AD800B6843F020030B6038E0752E21D0782E34D0A2E02B6801F142071A1D1B682A
:4028C0002A6081F842309DE022682B6812F0800F03D01A1D2A601D6805E05106F9D51A1D2A60B3F90050002D39DA2D236D4284F8433034E022682B6812F0800F03D01A1D5E
:402900002A601D6804E05206F9D51A1D2A601D88237E574A6F2B14BF0A2308231BE07823544A84F845302368296813F0800F01F104062E6001D00D6802E05F06FBD50D88C2
:40294000DE0744BF43F0200323601DB9236823F0200323601023002184F8431001E0444A0A236668002EA66003DB216821F00401216005B96EB104F14201B5FBF3F603FB11
:402980001655555D0F4601F801593546002EF4D100E00746082B0AD12368DD0707D5626823699A4203DC302307F8013C013FC01B20612CE009682B6811F0800F626904D0E3
:4029C000191D29601B681A6005E04906F8D5191D29601B681A8000232361074617E02B681A1D2A601F68384600F03EF963682061984288BF23612369636005E004F1420770
:402A000084F8426001232361002384F84330CDF800A04046214603AA4B46FFF7A7FE013002D14FF0FF301FE0404649463A462369D0470130F5D023689B0705D4E068039B08
:402A40009842B8BF18460FE00025E268039BD31A9D42F3DA4046494604F119020123D0470130DED00135F0E704B0BDE8F08700BF533300006433000010B5C9B202449042C2
:402A8000034605D01C7801308C42F8D1184610BD002010BD814270B501D300230EE08C18A042FAD28518134613F1FF3305D351426618F65C2944CE54F6E770BD934203D0BD
:402AC000CC5CC4540133F9E770BD000030B500293CD051F8042C0B1F1D49002AB8BF9B180A680C4612B95A600B6030BD93420DD219685818904203D15A58114442681960C8
:402B00005A60236030BD994203D80A4651680029F9D1146815199D420AD11B682344D0188842136012D10868034413604B680CE002D90C23036030BD18681C188C4203D1EA
:402B40000C684968204418605960536030BD00BFF481FF1F70B5CD1C25F0030508350C2D38BF0C25002D06463FDB8D423DD3214B1C6818462146A1B10B685B1B0ED40B2B66
:402B800003D90B60CC18CD501FE08C4202D1626802601AE04B6863600C4616E00C464968E9E7154C23681BB9304600F04DF820602946304600F048F8431C014615D0C41C0B
:402BC00024F0030484420AD1256004F10B00231D20F00700C31A0BD05A42E25070BD3046611A00F031F80130EED10C233360002070BD00BFF481FF1FF081FF1FF8B50646A7
:402C000014460D4621B91146BDE8F840FFF7A2BF1AB9FFF75BFF2046F8BD00F02DF8A0420ED230462146FFF795FF074650B129462246FFF7E9FB30462946FFF747FF01E005
:402C40002846F8BD3846F8BD38B5064C0023054608462360FDF79CFC431C02D1236803B12B6038BD4C85FF1F034613F8012B002AFBD1181A0138704751F8040C002802DA1F
:402C800004390B581844043870470000000000002350435F5245515F434F4E4E454354230000000050534F435F524541445900002346256444000000414652535A230000B4
:402CC0004144464F56575A23000000002350435F5245515F444953434F4E4E4543542300805A0040244300403D510040005B004002008002005100401000405100403000D7
:402D0000F05100401000000001400010001401408006001B0140000100400140000A004C01400002005001402000000060520040E40400480600801A0140EC0400488000F3
:402D40003E404143444647494A4C4D4E50515354555758595B5C5D5F6061626365666768696A6B6C6D6E6F70717273737475767677787879797A7A7B7B7B7C7C7C7C7D7D24
:402D80007D7D7D7D7D7D7D7D7D7C7C7C7C7B7B7B7A7A79797878777676757473737271706F6E6D6C6B6A6968676665636261605F5D5C5B59585755545351504E4D4C4A494C
:402DC0004746444341403F3D3C3A393736343331302F2D2C2A29282625242221201E1D1C1B1A1817161514131211100F0E0D0C0B0A0A090807070605050404030302020231
:402E00000101010100000000000000000000000101010102020203030404050506070708090A0A0B0C0D0E0F1011121314151617181A1B1C1D1E20212224252628292A2C39
:402E40002D2F303133343637393A3C3D7D7D7D7D7D7D7D7D7D7D7D7D7D7D7D7D7D7D7D7D7D7D7D7D7D7D7D7D7D7D7D7D7D7D7D7D7D7D7D7D7D7D7D7D7D7D7D7D7D7D7D7D71
:402E80007D7D7D7D7D7D7D7D7D7D7D7D7D7D7D7D7D7D7D7D7D7D7D7D7D7D7D7D7D7D7D7D7D7D7D7D7D7D7D7D7D7D7D7D7D7D7D7D7D7D7D7D7D7D7D7D7D7D7D7D7D7D7D7DD2
:402EC0007D7D7D7D7D7D7D7D7D7D7D7D7D7D7D7D7D7D7D7D7D7D7D7D7D7D7D7D7D7D7D7D7D7D7D7D7D7D7D7D7D7D7D7D7D7D7D7D7D7D7D7D7D7D7D7D7D7D7D7D7D7D7D7D92
:402F00007D7D7D7D7D7D7D7D7D7D7D7D7D7D7D7D7D7D7D7D7D7D7D7D7D7D7D7D7D7D7D7D7D7D7D7D7D7D7D7D7D7D7D7D7D7D7D7D7D7D7D7D7D7D7D7D7D7D7D7D7D7D7D7D51
:402F40007D7D7D7D7D7D0000000000000000000000000000000000000000000000000000000000000000000000000000000000000000000000000000000000000000000063
:402F80000000000000000000000000000000000000000000000000000000000000000000000000000000000000000000000000000000000000000000000000000000000011
:402FC00000000000000000000000000000000000000000000000000000000000000000000000000000000000000000000000000000000000000000000000000000000000D1
:403000000000000000000000000000000000000000000000000000000000000000000000000000000000000000000000000000000000000000000000000000000000000090
:403040008081838587898B8D8E90929496989A9B9D9FA1A3A5A7A9AAACAEB0B2B4B6B7B9BBBDBFC1C3C5C6C8CACCCED0D2D3D5D7D9DBDDDFE1E2E4E6E8EAECEEEFF1F3F5BF
:40308000F7F9FBFCFBF9F7F5F3F1EFEEECEAE8E6E4E2E1DFDDDBD9D7D5D3D2D0CECCCAC8C6C5C3C1BFBDBBB9B7B6B4B2B0AEACAAA9A7A5A3A19F9D9B9A98969492908E8D51
:4030C0008B8987858381807E7C7A78767472716F6D6B6967656462605E5C5A58565553514F4D4B4948464442403E3C3A39373533312F2D2C2A28262422201E1D1B191715D4
:403100001311100E0C0A080604030406080A0C0E1011131517191B1D1E20222426282A2C2D2F31333537393A3C3E4042444648494B4D4F51535556585A5C5E6062646567C9
:40314000696B6D6F71727476787A7C7EA1A1A1A1A3A3A3A3A3A3A3A3A6A6A6A6A8A8A8A8ABABABABABABABABABABABABABABABABABABABABABABABABABABABABABABABABB2
:40318000ABABABABABABABABABABABABABABABABABABABABABABABABABABABADADADADB8B8B8B8BABABABABDBDBDC2C2C2C2C2C2C2C2C2C2C2C2C2C2C2C2C4C4C4C4C7C795
:4031C000C7C7E6E6E6E6E6E6E6E6EBEBEBEBEDEDEDEDEDEDEDEDF0F0F0F0EBEBEBEBEBEBEBEBE8E8E8E8E8E8E8E8E8E8E8E8E8E8E8E6E6E6E6E3E3E3E3E3E3E3E3E3E3E3F4
:40320000E3E3E3E3E3E3E3E3E3E3E3E3E3E0E0E0E0BDBDBDBDBABABABABABABABABABABABABABABABABABABABABABABABABABABABABABABABABABABABABABABABFBFBFBF41
:40324000C4C4C4C4C9C9C9C9CFCFCFCFC2C2C2C2B8B8B8B8B5B6B7B89494949491919191919191918F9090918F8F8F8F8F8F8F8F8F8F8F8C8D8E8F8C8C8C8C63636363618C
:403280006161615C5D5D5E545454544F4F4F4F4C4D4E4F4A4A4A4A4A4A4A4A4A4A4A4A4A4A4A4A4A4A4A4A4A4A4A4A4A4A4A4A4A4A4A4A4A4A4A4A4A4A4A4A4A4A4A4A4AB3
:4032C0004A4A6E6E6E6E6E6E6E6E6E6E6E6E6E6E6E6E6B6B6B6B6969696966666666666666666666666666666666666666666666666363636363636363636363639696967A
:4033000096999999999E9E9E9E9E9E9E9EA1A1A1A1A1A1A1A1A1A1A1A1A1A1A1A1A1A1A1A19E9E9E9E9E9E9E9E9E9E9E9E9E9E9E9E9E9E9E9E9E9E9E9E9E9E9E9E9E9E9EED
:403340004300232D302B2000686C4C006566674546470030313233343536373839414243444546003031323334353637383961626364656600000000F8B500BFF8BC08BC33
:403380009E4670474D00000079060000F8B500BFF8BC08BC9E46704729000000B03300000881FF1F90000000B803000000000000000000005085FF1F807F00001F00000018
:4033C00000366E01C05D0000180000000000E02EFFFFFFFFFFFF00000000000000000000000000000000000000000000000000000000000000000000403300000000000078
:4034000000000000000000000000000000000000000000000000000000000000000000000000000000000000000000000000000000000000000000003081FF1F00000000BD
:40344000000000000000000000000000000000000000000000000000000000000000000000000000000000000000000000000000000000000000000000000000000000004C
:40348000000000000000000000000000000000000000000000000000000000000000000000000000000000000000000000000000000000000000000000000000000000000C
:4034C00000000000000000000000000000000000000000000000000000000000000000000000000000000000000000000000000000000000000000000000000000000000CC
:40350000000000000000000000000000000000000000000000000000000000000000000000000000000000000000000000000000000000000000000000000000000000008B
:020000040003F7
:0200000480007A
:40000000025A00400164004003650040020701405F080140360901402D1401401215014032160140121701403D180140321901400B1A0140481B01400A4001400741014048
:40004000064201400A430140024401400145014001460140034701400B4801400B490140074C01400A4D0140065001400351014087019F01890F870D88388B72E204E604E6
:40008000020C07080B050C0C0E03100111031206131415031603170C211A23042401260E2A082F183303351C360F39083A803B203F044002470449FF4A074BFF4C404D2030
:4000C0004EF04F055008580459045A045F01604061A86240632080098210842C85138611870489038B148C308D0A8E0C8F14901C91139222930C94109A039B15A120A44058
:40010000A814AF08B10FB320B41FB660B710B880BB02BF44C053C102C5E0C6C0C70BC81AC9FFCAFFCBFFCEF0CF44D00CD401D804D904DA04DB04DF01E6C0EA40EB02000567
:4001400002020421056009040A040B800F60102816081708180119801A041D401F40224623402404272829812D802F40302032023602370838243B803D083F204004422077
:40018000472049014A025018542055045628571059215A8881108302C09DC23EC466CA99CCC5CE6ED026D208D60F404549FF4AFF4BFF4F0150185A045D095F0160406240CC
:4001C00064406540668068806A806C806E8082019201B601C045C9FFCAFFCBFFCD83CE03CF01D018D280D804DA04DB04DC09DD99DF01E040E240E440E540E680E880EA8035
:40020000EC80EE8006800C021F804280468048024C02768087809E80A002C010C210D081D218E480E606EC01404549FF4AFF4BFF4D834E034F0150185A045D095F016040BD
:40024000624064406540668068806A806C806E808F019301B701BF40C045C5ECC720C823C9FFCAFFCBFFCD83CE03CF01D018D401D904DA04DB04DD99DF01E040E240E4403F
:40028000E540E680E880EA80EC80EE80224030023A8042804680480249064C02500259065A80CC01CE08D081D218D60BE208EE0401080240041805330808090F0B700C10C6
:4002C0000F73100111221439157F1604183F19731B0C1E402111222623802427250426182819290C2A222D0C2E012F7330403180321F334C350F363837303A283B283E012C
:4003000054185604580459045B045F01920693019801AC02AE04B002B101B201B404BE15D804D904DB04DC20DF01067A08020A040C400D090E0912021680175819101A20B7
:400340001B021D081E091F19220224112504261027582C212E282F80300236153C143D803E825C01678A680279027B80821087408801890892049D10A702C0F0C2FAC4F15B
:40038000CAF0CCE1CEF0D680D8B0E404EE04000402011E052E023002340436013E5058045C015F010102054106240A010D080E0610021480171419021A021B201D011E0296
:4003C0001F4424062540261427402E2C2F5A34803580361037043C023D043F8044404508460847484C0156445E086D046F167420761283208601880189408A018B808D842F
:4004000093209404970898409B089E52A002A104A348A420A540A601A780A802B748C0F8C2E1C471CAF0CC70CED0D0F0D210D640E480EC01300236823B023D444310794034
:400440007A02CCE0CEE0D0103C40954497029F10A402A680CE209440954497029F10A402A680804083109440954497029F10A402A680E220E6203080CC08A480A480324054
:40048000A480CC0820202410840295049702A402A680A940C8C0E210EE20830185048680881095049702A010A680A810E670EC801D10810296809D10A480A910C601104047
:4004C000750288C09902A480AA40C408DE04E201E40100010C01100711011B011C0700FD10AA1102808000004000000000020414004E080000000400010102000000000026
:40050000084E00000804002A020101000008081403010000030100000040000008300401000E034002000000000004053502040001000C0E14FFFFFF62A0F0410C00000080
:4005400000000212040404040000000100000000000040020010301000101012000000000000000000000000000000008000408080008000000000000000000000008000D2
:400580000000000000000200170018010000000000000000000000000000000000000000000000000000000000000000000000000000000000000000000000000000000009
:4005C00000000000000000000000000000000000000000000000000000000000000000000000000000000000000000000000000000000000000000000000000000000000FB
:4006000000000000000000000000000000000000000000000000000000000000000000000000000000000000000000000000000000000000000000000000000000000000BA
:40064000000000000000000000000000000000000000000000000000000000000000000000000000000000000000000000000000000000000000000000000000000000007A
:40068000000000000000000000000000000000000000000000000000000000000000000000000000000000000000000000000000000000000000000000000000000000003A
:0200000490006A
:0400000000004005B7
:0200000490105A
:04000000BC90ACAF55
:0200000490303A
:020000009C91D1
:0200000490402A
:4000000000000000000000000000000000000000000000000000000000000000000000000000000000000000000000000000000000000000000000000000000000000000C0
:400040000000000000000000000000000000000000000000000000000000000000000000000000000000000000000000000000000000000000000000000000000000000080
:400080000000000000000000000000000000000000000000000000000000000000000000000000000000000000000000000000000000000000000000000000000000000040
:4000C0000000000000000000000000000000000000000000000000000000000000000000000000000000000000000000000000000000000000000000000000000000000000
:0200000490501A
:0C00000000012E16106900012E2BACFA36
:00000001FF