:400000000080002011000000E9040000E904000080B500AF024B034A12681A6000F068FABC760040FA46004010B5054C237833B9044B13B10448AFF300800123237010BDDD
:400040002881FF1F000000008818000008B5064B1BB106480649AFF300800648036813B1054B03B1984708BD00000000881800002C81FF1F0881FF1F0000000080B500AF65
:40008000022001214FF4804241F6FF7301F0FEF903461A46114B1A7000F072FE03461A460F4B1A700E4B1B7818464FF4FA61FE22062300F093FE0A4B1A780A4B9BB2104659
:4000C00045F6A2311A4600F0C1FE044B1A78044B1B781046194600F0EDFD80BD9481FF1F7081FF1F9881FF1F80B584B000AF00F091FF01F08DF8FFF7C1FF01F0F7F91B48D3
:4001000000F03AFF1A4801F09BFA1A4801F0E6FA62B614E013E0184B1B78002B0FD0164B00221A701548164901F079FB0346002B05D1144B01221A70134801F02FF8114B29
:400140001B78002BE7D00C4B1B78002B05D00B4800F01EF8084B00221A700C4B1B78002B03D00A4B00221A70D4E7D3E711040000AD040000CD0400004681FF1F4881FF1F07
:400180008C1800004481FF1FA01800006981FF1F80B584B000AF78607B680133FB60FB681B78412B40F08F80854800F0F7FFFB680133FB607EE0FB685A1CFA601B78413BB0
:4001C000192B6ED801A252F823F000BF35020000A3020000A3020000A3020000A302000061020000A3020000A3020000A3020000A3020000A3020000A3020000A302000005
:40020000A3020000A3020000A3020000A30200006902000071020000A3020000A3020000A3020000A3020000A3020000A302000079020000634800F0B1FF634B1B78002B3C
:400240000DD101F0CFF801F087F95F4B01221A705E4B1B781846012100F048FC25E024E05B4800F09BFF20E05A4800F097FF1CE0594800F093FF18E0584800F08FFF524B00
:400280001B78002B0CD001F077F901F057F84F4B1B78184600F070FC4B4B00221A7004E003E04F4800F07AFF00BFF8684D4901F0D2FAF860FB681B78232B7FF47CAF4A48D5
:4002C00000F06CFF79E0FB681B78442B71D1474800F064FFFB680133FB6062E0FB685A1CFA601B78413B192B52D801A252F823F059030000910300009103000061030000F5
:4003000091030000690300009103000091030000910300009103000091030000910300009103000091030000710300009103000091030000910300009103000091030000C5
:400340009103000079030000810300009103000091030000890300001A4800F01FFF1BE0234800F01BFF17E0224800F017FF13E0214800F013FF0FE0204800F00FFF0BE050
:400380001F4800F00BFF07E0144800F007FF03E0134800F003FF00BFF8681A4901F05BFAF860FB681B78232B98D10F4800F0F6FE03E01548154901F032FA1037BD4680BD29
:4003C000AC180000B01800006881FF1F9481FF1FB8180000C0180000C8180000D0180000D8180000E4180000EC180000F0180000F4180000FC180000041900000C1900006D
:40040000141900001C1900004881FF1F2819000080B582B000AF31E000F06CFE0346FB711D4B1B78002B02D1FB79232B23D11A4B1B781A4AF979D154174B1B785A1CD1B26C
:40044000154A1170002B15D0FB79232B12D1144B01221A70104B1B78124810491A4601F0E8F90D4B1B780F4A0021D1540A4B00221A7003E002E00C4800F090FE00F05CFE9C
:400480000346002B03D0064B1B78002BC4D000F01FFE0837BD4680BD4581FF1F7481FF1F4681FF1F4881FF1F3C19000080B500AF044800F073FE044B1B781846012100F0CB
:4004C00015FB80BD4C1900009481FF1F80B500AF034800F063FE034B01221A7080BD00BF5C1900006981FF1F80B400AFFEE700BF80B586B000AF224B7B61224B3B61204BC5
:400500007B6135E03B691B68FB603B695B68BB603B699B683B6000237B600CE0FB681A68BB681A60BB680433BB60FB680433FB607B6804337B607A683B689A42EED13B69F5
:40054000DB683B6000237B6008E0BB6800221A60BB680433BB607B6804337B607A683B689A42F2D13B6910333B617B69013B7B617B69002BC6D101F01BF9FFF7B5FDFEE7B3
:4005800001000000E019000080B582B000AF184B184A1A60184B184A126842F400721A6000237B600FE07B68032B04D8134B7A6853F8223000E0124B124A796842F82130CF
:4005C0007B6801337B607B682F2BECD90E4B1B78DAB20E4B1A700E4B0A4A1A6000F06CF900F056FA0B4B00221A600837BD4680BD0CED00E00004FA0514ED00E000000000C2
:40060000E90400000080FF1FBC7600400481FF1F08ED00E00081FF1F80B582B000AF78603960786800213A6801F0F1F80837BD4680BD00BF80B584B000AFF860B9607A6001
:40064000F868B9687A6801F0D9F81037BD4680BD80B483B000AF0346FB71FEE780B487B000AF7860396000233B6100237B6126E07B699B007A6813441B68BB60BB68FB73E8
:40068000BB6823F0FF03BB6013E03B695B003A6813441B781A46BB6813443A69520039680A4452781A703B6901333B61FB7B013BFB73FB7B002BE8D17B6901337B617B6991
:4006C000142BD5D91C37BD465DF8047B704700BF80B582B000AF3C4B33221A803B4B18221A703B483B490422FFF7A4FF3A4B02221A704FF0402308221A70384B03221A7016
:40070000374B384A1278D2B21A70374B08221A80364B41F251221A800023FB7019237B6014E0FB785B00DAB2314B1B78DBB203F00103DBB21343DBB203F00303FB704FF479
:40074000F07000F075F97B68013B7B607B68002B02D0FB78032BE4D17B68002B02D10320FFF776FF234B4FF480721A80214B07221A70214B00221A70204B48221A701D4BE1
:4007800000221A701E4B02221A701E4B04221A701D4B1D4A1278D2B242F00102D2B21A701A4B1A4A1278D2B242F00102D2B21A70174B174A1278D2B262F07F02D2B21A7071
:4007C0000837BD4680BD00BF804000408240004000410040B00400480043004000420040A1460040080100492242004020420040254200400440004006400040084000403F
:40080000014000400B400040A2430040A1430040A043004080B483B000AF1D4B1B78FB711C4B1B78BB711C4B1B787B711B4BFA7902F00702D2B21A70194BFA791209D2B25F
:400840001A70144BBA7942F00302D2B21A70124B7A7942F00302D2B21A70124B80221A70114B80221A70114B08221A70104B20221A70094B7A791A70064BBA791A700D4B03
:4008800044221A700C37BD465DF8047B704700BFCF010049F8460040F94600406E5800406F5800401D51004009590040285B00402B5B00407658004080B586B000AF72B66C
:4008C0004A4B4A4A1278D2B242F00402D2B21A700023FB7513E0FA7D13465B0013445B00434A13443B613B691A683B699B889BB210461946FFF790FEFB7D0133FB75FB7D91
:40090000082BE8D90023FB751CE0FA7D13469B0013445B00374A1344FB60FB681B68BB60FB685B687B60FB681A7A5B7A1B0213437B807B88B86879681A46FFF77BFEFB7D5D
:400940000133FB75FB7D012BDFD94FF090402A49FFF784FE29480421FFF75EFE284B284A1278D2B242F00202D2B21A70254B254A1278D2B242F00202D2B21A70224B224A54
:400980001278D2B242F04002D2B21A701F4B1F4A1278D2B242F01002D2B21A701C481D490A22FFF747FE1C481C490822FFF742FE1B4B1B4A1278D2B242F00802D2B21A70F7
:4009C000184B60221A70FFF783FE164B80221A70154B01221A70FFF71DFF14480A490E22FFF728FE1837BD4680BD00BFE846004070190000A8190000540000480076004012
:400A00000350014013500140A0430040C2430040C05100409C04004812510040A8040048224300400048004004000840B0430040142840F2188002B4012114381149097895
:400A400011F0C001890904B40F4A515C04BC00BF00BF00BF88417FF5FDAF00BF00BF02BC704700BF00BF70F104007FF5FCAF70470B050709EFF3108072B6704780F3108856
:400A80007047000000480040700A0000AFF3008080B483B000AF134B7F221A70124B80221A707F23FB710CE0FB79DB0003F1804303F5F043FA79013AD2B21A70FB79013B9C
:400AC000FB71FB79002BEFD1FB79DB0003F1804303F5F04300221A700C37BD465DF8047B704700BF0D81FF1F0C81FF1F80B485B000AF02460B46FA71BB710123FB60FB792C
:400B0000172B2FD8BB79002B0ED0FB791A01194B1344FA791101174A0A441278D2B242F02002D2B21A700DE0FB791A01114B1344FA7911010F4A0A441278D2B222F02002A4
:400B4000D2B21A70FB791A010A4B1344FA791101084A0A441278D2B242F00102D2B21A700023FB60FB6818461437BD465DF8047B704700BF1070004080B485B000AF0346BE
:400B8000FB710123FB60FB79172B1DD8FB791A01114B1344FA7911010F4A0A441278D2B222F00102D2B21A70FB791A010A4B1344FA791101084A0A441278D2B222F020025E
:400BC000D2B21A700023FB60FB6818461437BD465DF8047B704700BF1070004080B485B000AF02460B46FA71BB710123FB60FB79172B18D8FB791A010E4B13441B78DBB284
:400C000023F00E03FB72FB791A010A4B1344BA7902F00702D2B25200D1B2FA7A0A43D2B21A700023FB60FB6818461437BD465DF8047B70471070004080B485B000AF134649
:400C40000246FA710A46BA807B800123FB60BA8841F6FF739A4202D14FF40053BB807A8841F6FF739A4202D14FF400537B80FB79172B17D8FB79DB0003F1804303F5EC4395
:400C80000433BB60BB68BA881A80FB79DB0003F1804303F5EC430633BB60BB687A881A800023FB60FB6818461437BD465DF8047B704700BF80B485B000AF02460B46FA71B0
:400CC000BB710123FB60FB79172B07D8FB791A01064B1344BA795A720023FB60FB6818461437BD465DF8047B704700BF1070004080B485B000AFF871B9717A713B71012381
:400D0000FB60FB79172B34D8FB79DB0003F1804303F5EC43BA7902F07F02D1B27A79D201D2B20A43D2B21A70FB79DB0003F1804303F5EC433A7E1201D1B23A7902F00F026A
:400D4000D2B20A43D2B25A70FB79DB0003F1804303F5EC433A7F02F00F02D2B29A70FB79DB0003F1804303F5EC430022DA700023FB60FB6818461437BD465DF8047B70472C
:400D800080B582B000AFFF23FB71FFF773FE0346BB71104B1B78182B12D90F4B1B78FB710C4B1B78013BDAB20A4B1A70FB79DB0003F1804303F5F0431B78DAB2064B1A7082
:400DC000BB791846FFF75AFEFB7918460837BD4680BD00BF0C81FF1F0D81FF1F80B485B000AFF871B980BA71FB700123FB60FB795BB2002B23DBBB8823F47F6323F00F03D2
:400E00009BB2002B1BD1FB79DB0003F1804303F5F043BB60BB68BA881A80FB79DB0003F1804303F5F043BA799A70FB79DB0003F1804303F5F043FA78DA700023FB60FB68C7
:400E400018461437BD465DF8047B704780B485B000AF13460246FA710A46BA807B800123FB60FB795BB2002B17DBFB79DB0003F1804303F5F0430433BB60BB68BA881A80F3
:400E8000FB79DB0003F1804303F5F0430633BB60BB687A881A800023FB60FB6818461437BD465DF8047B704780B483B000AF0346FB7101BE0C37BD465DF8047B704700BFBC
:400EC00080B582B000AF0346FB80FB88044A127802FB03F31846FFF7ABFD0837BD4680BD1C81FF1F80B584B000AF03463960FB710F4B1B68FB60FB791F2B02D90020FFF747
:400F0000D3FFFB7903F01F0310339B00FA6813441B68BB60FB7903F01F0310339B00FA6813443A681A60BB6818461037BD4680BD08ED00E080B582B000AF02460B46FA71EE
:400F4000BB71BB79072B02D90020FFF7ADFFFB791F2B02D90020FFF7A7FFFB7903F01F0303F1604303F56443BA795201D2B21A700837BD4680BD00BF80B582B000AF78606E
:400F800000F03CF8786800F009F8072000F018F800F028F80837BD4680BD00BF80B485B000AF7860054B1B68FB60FB6848337A681A601437BD465DF8047B704708ED00E0C1
:400FC00080B483B000AF0346FB71054BFA795201D2B21A700C37BD465DF8047B704700BF02E400E080B400AF034B04221A60BD465DF8047B704700BF00E100E080B400AFEA
:40100000034B04221A60BD465DF8047B704700BF80E100E080B500AF054B1B78002B04D100F008F8024B01221A7000F023F880BD6C81FF1F80B400AF094B72221A70094B87
:401040007F221A70084B06221A70084B47221A70074B00221A70BD465DF8047B704700BF886500408B65004028640040386400408964004080B582B000AFFFF7FBFC034631
:40108000FB71104B0F4A1278D2B242F02002D2B21A700D4B0C4A1278D2B242F01002D2B21A700A4B094A1278D2B242F01002D2B21A7000F093F8FB791846FFF7DFFC08372D
:4010C000BD4680BD986500409B6500409964004080B483B000AF064B1B78DBB203F07F03FB71FB7918460C37BD465DF8047B70476B65004080B483B000AF0023FB710C4BDF
:401100001B78BB71BB7903F02003002B09D0094B1B78FB71BB7903F01E03002B01D00023FB71FB7918460C37BD465DF8047B70476B6500404865004080B483B000AF094B72
:401140001B78DBB203F02003002B01D0012300E00023FB71FB7918460C37BD465DF8047B704700BF6B65004080B483B000AF0346FB7100BF074B1B78DBB203F00403002B17
:40118000F8D1054BFA791A700C37BD465DF8047B704700BF696400404964004080B584B000AF78600023FB810B4B1B78002B10D009E0FB897A6813441B781846FFF7D4FFAC
:4011C000FB890133FB81FB897A6813441B78002BEFD11037BD4680BD6C81FF1F80B400AF094B094A1278D2B242F00102D2B21A70064B064A1278D2B242F00102D2B21A7021
:40120000BD465DF8047B7047A2430040B243004080B500AF054B1B78002B04D100F008F8024B01221A7000F023F880BD6E81FF1F80B500AF03200721FFF77CFE03200949AC
:40124000FFF750FE084B084A1278D2B242F00602D2B21A700C2000F09DF8044B00221A8080BD00BF81140000095900407089FF1F80B582B000AFFFF7FDFB0346FB71264BFF
:40128000254A1278D2B242F00202D2B21A70234B224A1278D2B242F00202D2B21A70204B1B78BB71BB7943F00203BB71BB7943F00103BB711A4BBA791A701A4B18221A709D
:4012C000194B194A1278D2B242F04002D2B21A70154B154A1278D2B222F00302D2B21A70124BC8221A70124B02221A70114B114A1278D2B242F00802D2B21A700A20FFF79A
:40130000DFFD0D4B08221A60FB791846FFF7B6FB0837BD4680BD00BFAB430040BB4300400B5900400E5900400D59004008590040164600402F5B004080E200E080B582B011
:4013400000AFFFF797FB0346FB710F4B0E4A1278D2B222F00102D2B21A700C4B0B4A1278D2B222F00202D2B21A70094B084A1278D2B222F00202D2B21A70FB791846FFF720
:401380007DFB0837BD4680BD08590040AB430040BB43004080B584B000AF0346FB71FB790A2B07D00C2B02D0082B06D008E0C223FB730BE08223FB7308E04223FB7305E0F1
:4013C000C223FB730020FFF76FFD00BF044BFA7B1A70FB79184600F015F81037BD4680BD0A59004080B400AF054B054A1278D2B242F00102D2B21A70BD465DF8047B7047B1
:401400000859004080B584B000AF0346FB71FB790A2B08D00C2B02D0082B08D00BE04FF48053FB600DE04FF48063FB6009E04FF48073FB6005E00023FB600020FFF734FDBB
:4014400000BF0C4B00221A80FB6842F2107202FB03F303F58063002B01DA03F2FF73DB121A46054B1A60054B00221A801037BD4680BD00BF6E89FF1F6889FF1F6C89FF1FA6
:4014800080B400AFBD465DF8047B704780B584B002AFF871B971BA807B80134B00221A70114B1978FA79BB790020009000200190084611461A460023FFF71AFC0A4B1978C0
:4014C000BA887B88084611461A46FFF7B5FB064B1B7818460221FFF781FB034B1B7818460837BD4680BD00BF2481FF1F80B582B000AF0F4800F06CF80D4800F085F8FFF76C
:40150000B9FA0346FB710B4B0A4A1278D2B242F01002D2B21A70FB791846FFF7AFFA00F081F8012000F038F80837BD4680BD00BFF43D49009665004080B400AF054B054AA9
:401540001278D2B262F07F02D2B21A70BD465DF8047B70477565004080B500AF054B1B78002B04D1FFF7C2FF024B01221A70FFF7E3FF80BD6F81FF1F80B400AF054B054AB7
:401580001278D2B202F07F02D2B21A70BD465DF8047B70477565004080B483B000AF0346FB71044BFA791A700C37BD465DF8047B704700BF8665004080B400AF034B1B785E
:4015C000DBB21846BD465DF8047B70476665004080B582B000AF78600348796800F0CCF80837BD4680BD00BF2465004080B400AF044B1B6823F07F431846BD465DF8047BD3
:40160000704700BF4465004080B582B000AF78600348796800F0B0F80837BD4680BD00BF0465004080B500AF01E0FFF7DFFFFFF7C3FF034603F00803002BF6D180BD00BF2C
:4016400080B582B000AF786000F03CF8786800F009F8072000F018F800F028F80837BD4680BD00BF80B485B000AF7860054B1B68FB60FB6844337A681A601437BD465DF81B
:40168000047B704708ED00E080B483B000AF0346FB71054BFA795201D2B21A700C37BD465DF8047B704700BF01E400E080B400AF034B02221A60BD465DF8047B704700BFBF
:4016C00000E100E080B400AF034B02221A60BD465DF8047B704700BF80E100E080B582B000AF786000F03CF8786800F009F8072000F018F800F028F80837BD4680BD00BF74
:4017000080B485B000AF7860054B1B68FB60FB6840337A681A601437BD465DF8047B704708ED00E080B483B000AF0346FB71054BFA795201D2B21A700C37BD465DF8047BA2
:40174000704700BF00E400E080B400AF034B01221A60BD465DF8047B704700BF00E100E080B400AF034B01221A60BD465DF8047B704700BF80E100E080B485B000AF786007
:4017800039607B68FB603B68DAB2FB681A70FB6801333A68120AD2B21A70FB6802333A68120CD2B21A701437BD465DF8047B704770B50E4B0E4D0024ED1AAD101E46AC4281
:4017C00004D056F8242090470134F8E700F0F6F8084D094B0024ED1AAD101E46AC4204D056F8242090470134F8E770BDC8190000C8190000D0190000C819000010B50023E5
:40180000934203D0CC5CC4540133F9E710BD02440346934202D003F8011BFAE7704710F8012B11F8013B012A28BF9A42F7D0D01A704710B5034632B111F8014B013A03F8AF
:40184000014B002CF7D11A44934203D0002103F8011BF9E710BD70B503780A468BB1064610F8014B3CB10B461A4613F8015B002DF5D0AC42F8D11378002B14BF30460020A4
:4018800070BD184670BD0000000000002350435F5245515F434F4E4E454354230000000050534F435F524541445900004144430020537461727400002053504600000000DF
:4018C000205265730000000020535053000000002053746F7000000020556E6B6E6F776E00000000414652535A2300000A0D00004441430020447574790000002046726527
:4019000071000000204F666673657400205650500000000020576176650000004144464F56575A23000000002350435F5245515F444953434F4E4E454354230052616E64B4
:401940006F6D20627974657300000000444D41205265656E61626C65640D0A004672616D652043617074757265640D0A00000000005100401000205100405000F05100403C
:40198000100000000140001000140140000480180140800300400140000A004C01400002005001402000000060520040140400480600001801401C0400488000F8B500BF41
:4019C000F8BC08BC9E4670474D00000089050000F8B500BFF8BC08BC9E46704729000000F01900000881FF1F200000005008000000000000807F00000100000000366E0184
:401A0000C05D0000180000000000E02EFF00000000000000000000000000000000000000000000000000000000000000000000000000000000000000000000000000000064
:401A40000000000000000000000000000000000000000000000000000000000000000000000000000000000000000000000000000000000000000000000000000000000066
:401A80000000000000000000000000000000000000000000000000000000000000000000000000000000000000000000000000000000000000000000000000000000000026
:401AC00000000000000000000000000000000000000000000000000000000000000000000000000000000000000000000000000000000000000000000000000000000000E6
:401B000000000000000000000000000000000000000000000000000000000000000000000000000000000000000000000000000000000000000000000000000000000000A5
:020000040003F7
:0200000480007A
:400000000164004003650040600801403B0901402D140140121501401E1601400F1701402A190140371A01403F1B0140064001400441014004420140044301400548014024
:4000400007490140054C0140094D01400650014002510140890F860D88728B3801010206030E0B03101811011203130616021D0C1F0320182205230C26092B082C162E015E
:400080003007310F321838083A023B023E044003470449FF4A074BFF4C404D204EF04F055008580459045A045F01604061A862406320801C82428503860387148B158C5063
:4000C0008D0A8E0C8F14904C91139211930C98149C099E10A020A308A480A810AD13AF04B0C0B10FB220B41FB710B802BB02BE04BF40C053C101C5E0C6B0C70CC81AC9FF70
:40010000CAFFCBFFCEF0CF44D00CD401D804D904DA04DB04DF01E6C0EA40EB02000402020340040805020720088009200A400C080E401008129015021610178018041906EC
:400140001A081D081E401F0221012243244027C0288229022B032C082D0232013602378038483A103E203F0240024220450849014A82500451205408563059055A805B2095
:40018000C01DC23BC4BECAA9CC91CEAED04AD208D60F405449FF4AFF4BFF4F0150185A045D095F016040624064406540668068806A806C806E809F01AF01B301C014C9FFB6
:4001C000CAFFCBFFCD83CE03CF01D018D280D904DA04DB04DC90DD99DF01E040E240E440E540E680E880EA80EC80EE8027202E8037804280468047804801740177808720F1
:400200009A809F80CA10CC10D091D208E602EE0222012E0130013E01401445EC4602480749FF4AFF4BFF4D834E034F015018540158045A045B045D995F0160406240644080
:400240006540668068806A806C806E80168017801E80468047804D044F0156805D045E805F01C490D090D6D0E220040A072A0C800D0A0E04144017151D0B1E0D1F0825204A
:4002800027012C022F2834403501360437203E6A452847014C084D804F0457405E016C016F147484762A77089208C0F0C2F0C470CA70CCF0CEF0D0E0D230D680E220180280
:4002C0002E01300132023E0458045F01811082308518863088A489018A428C328E058F409030911993A29508963099399A089B849C519E829F40A030A1A7A318A4C7A5BF11
:40030000A8C7AB26AE08AF01B007B180B208B340B4C0B51FB630B738B902BB20BE04BF04D418D604D804D904DB04DF01044805110A080C040D0A0E010F041002144017547E
:4003400018201B021C401D101E421F242408269027602C442E042F023581369037083C083E223F805E0266806748874088028AA18B208C188D02920C9304940896409840D4
:4003800099019A029B1C9D80A00CA108A340A402A720B00CB204B302C0F0C2F2C4F1CAF0CCF0CEF0D680D8B0EE023308340237803F40CCE0CE2097409C029F80A7089740F1
:4003C0009C029F80A70897409C029F80A708880297409C029F80A70887889F80A708AF40E240E640EE401C081F108804C601E2041080771088808F10AF10C408DE04E402A2
:40040000E60100010C01100111011B011C0100FD100200008080000040000000100800000D040200040C00000C0300200D0F0200000F02000F0C00030803000C03000C003F
:400440001002001010000003000100100E0010000030010F000022800000401043060500020E0C0005FFFFFF62A0F0410C0000000000021304040404000000010000000015
:400480000000400200103010001010120000000000000000000000000000000080004080800080000000000000000000000080001700180100000000000000000000000088
:4004C00000000000000000000000000000000000000000000000000000000000000000000000000000000000000000000000000000000000000000000000000000000000FC
:4005000000000000000000000000000000000000000000000000000000000000000000000000000000000000000000000000000000000000000000000000000000000000BB
:40054000000000000000000000000000000000000000000000000000000000000000000000000000000000000000000000000000000000000000000000000000000000007B
:40058000000000000000000000000000000000000000000000000000000000000000000000000000000000000000000000000000000000000000000000000000000000003B
:0200000490006A
:0400000000004005B7
:0200000490105A
:04000000BC90ACAF55
:0200000490303A
:02000000353198
:0200000490402A
:4000000000000000000000000000000000000000000000000000000000000000000000000000000000000000000000000000000000000000000000000000000000000000C0
:400040000000000000000000000000000000000000000000000000000000000000000000000000000000000000000000000000000000000000000000000000000000000080
:400080000000000000000000000000000000000000000000000000000000000000000000000000000000000000000000000000000000000000000000000000000000000040
:4000C0000000000000000000000000000000000000000000000000000000000000000000000000000000000000000000000000000000000000000000000000000000000000
:0200000490501A
:0C00000000012E16106900012E21459A07
:00000001FF