:400000000080002011000000250A0000250A000080B500AF024B034A12681A6000F02EFDBC760040FA46004010B5054C237833B9044B13B10448AFF300800123237010BD90
:40004000C081FF1F00000000B037000008B5064B1BB106480649AFF300800648036813B1054B03B1984708BD00000000B0370000C481FF1F0881FF1F0000000080B584B022
:4000800000AF264B1B78264A126802FB03F3184602F0BAFD03461A46224B1A6001F0A8FB01F0A4FC00F06EFC01F0E2FE1E4801F051FB1E4801F084FF1D4801F0CFFF62B610
:4000C00014E013E01B4B1B78002B0FD0194B00221A701948194902F08DFE0346002B05D1174B01221A70174801F046FC144B1B78002BE7D00F4B1B78002B05D00E4800F0D4
:4001000025F80C4B00221A700F4B1B78002B03D00D4B00221A70D4E7D3E700BF3081FF1F1881FF1F4482FF1F850800002109000069090000DE81FF1F0082FF1FB4370000E1
:40014000DC81FF1FC8370000E081FF1F80B584B000AF78607B680133FB60FB681B78412B40F0AD80BA4801F007FCFB680133FB609CE0FB685A1CFA601B78413B192B00F289
:400180008C8001A252F823F0F10100009B0200009B0200009B0200009B020000FD0100009B0200009B0200009B0200009B0200009B0200009B0200009B0200009B020000E7
:4001C0009B0200001B0200009B02000053020000710200009B0200009B0200009B0200009B0200009B0200009B0200008F020000984801F0C1FB00F01FFA52E0964801F00A
:40020000BBFB07F10803F86894491A4602F0C6FDBB68184600F0F8FA43E0914801F0ACFB07F10803F8688D491A4602F0B7FDBB68002B0AD0BB68FF2B07D8BB68894AB2FB86
:40024000F3F3184601F086FE2BE0874801F094FB27E0864801F090FB07F10803F8687F491A4602F09BFDBB68184600F083FA18E07F4801F081FB07F10803F86877491A4668
:4002800002F08CFDBB68184600F014FA09E0794801F072FB00F0E8F903E0774801F06CFB00BFF868754902F0C9FDF860FB681B78232B7FF45EAF724801F05EFBA1E1FB68D7
:4002C0001B78442B40F090816E4801F055FBFB680133FB607FE1FB685A1CFA601B78413B192B00F26F8101A252F823F055030000C5050000C505000089030000C5050000C8
:40030000A9030000C5050000C5050000C5050000C5050000C5050000C5050000C5050000C5050000CB030000C5050000C5050000C5050000C5050000C5050000C505000037
:400340000D040000D1040000C5050000C5050000A10500003F4801F00FFB4B4B1B78002B11D14A4B1B78184601F0A0FF484B1B78184602F0A5F801F003FF02F00BF8424B07
:4003800001221A7022E121E1424801F0F5FAF8684149424A02F002FD404B1B68642B02D93F4801F0E9FA11E13E4801F0E5FAF8682A493D4A02F0F2FC3B4B1A683B4B9A42FB
:4003C00002D93B4801F0D8FA00E13A4801F0D4FAF8683949394A02F0E1FC384B1B6818464FF0000102F0BCFB0346002B0AD1334B1B6818464FF0814102F0D0FB0346002B59
:4004000000D1E3E02E4801F0B7FADFE02D4801F0B3FAF86828492C4A02F0C0FC2A4B1B6818464FF0000102F09BFB0346002B0AD1254B1B6818464FF0814102F0AFFB0346A5
:40044000002B00D1C2E0214801F096FABEE000BFD4370000D8370000E0370000E8370000EC37000000366E01F4370000043800000C380000143800001C38000028380000D4
:400480003038000034380000E181FF1FE381FF1FE281FF1F38380000403800002C81FF1F44380000543800001C81FF1F80A903005C38000070380000783800002481FF1F94
:4004C0007C3800008C3800002081FF1F943800004D4801F051FAFB685A1CFA601B78413B162B4DD801A252F823F000BF49050000810500008105000081050000810500005B
:4005000081050000810500008105000057050000810500008105000081050000810500008105000081050000810500006505000081050000810500007305000081050000AF
:400540008105000089050000304B01221A70304B01221A7019E02D4B00221A702C4B00221A7012E0294B00221A70294B01221A700BE0264B01221A70254B00221A7004E09B
:40058000244801F0F9F900E000BF214B1B78184601F096FF1D4B1B78184601F087FE15E01D4801F0E9F91D4B1B78002B09D001F097FE01F0F5FD01F0FDFE184B00221A700B
:4005C00004E003E0164801F0D7F900BFF868154902F034FCF860FB681B78232B7FF47BAE114801F0C9F90CE01048114902F002FC0346002B02D101F041F802E00D4801F00B
:40060000BBF91037BD4680BDA4380000E381FF1FE281FF1FAC38000014380000E181FF1F1C380000C0380000303800000082FF1FCC380000E038000080B500AF084B1B78B6
:40064000002B0CD101F0BCFA01F048FC044B01221A70044B1B781846012100F0CBFD80BDDF81FF1F4082FF1F80B582B000AF0F4B1B78002B16D001F041FC0D4B1A78FB1DA1
:40068000104600211A4600F0B7FEFB79002BF4D1074B1B78184600F0F3FD01F03DFA034B00221A700837BD4680BD00BFDF81FF1F4082FF1F80B586B000AF7860264B1B7883
:4006C0003B617A68254B1B6804332549B1FBF3F39A4208D37A68214B1B6804332149B1FBF3F39A4203D9204801F046F931E0FFF7BBFF1A4B1B6804337A6802FB03F3FB6037
:400700001A4AFB6892FBF3F37B617B69182B02DD18237B6104E07B69012B01DD01237B617B699BB2013B9BB21846012101F09CFA0E4A7B6992FBF3F31A46084B1B680433D7
:40074000B2FBF3F20A4B1A603B69002B01D0FFF773FF1837BD4680BDDF81FF1F0C81FF1F40420F000024F400F838000000366E011081FF1F80B584B000AF78601D4B1B7840
:40078000FB607B680C2B05D07B680A2B02D07B68082B04D17A68184B1B689A4203D1174801F0EAF823E0FFF75FFF7B68082B03D0114B1B68082B10D100F028F97B68082B16
:4007C00001D1012300E002230D4A13700D4B1B68184600F019F800F0D5F87B68DBB2184601F0C6F9FB68002B01D0FFF725FF1037BD4680BDDF81FF1F0C81FF1F0839000045
:400800003081FF1F1881FF1F80B582B000AF7860174B1B68184602F0FFF9164B1B787A6802FB03F3B3F5805F0FDB124B1B7840F6FF7292FBF3F31A460F4B1A600F4801F057
:400840009BF80F4801F098F802E07A680A4B1A60084B1B78084A126802FB03F3184602F0D3F903461A46024B1A600837BD4680BD4482FF1F3081FF1F1881FF1F1C3900000B
:400880005039000080B582B000AF31E001F020F80346FB711D4B1B78002B02D1FB79232B23D11A4B1B781A4AF979D154174B1B785A1CD1B2154A1170002B15D0FB79232B88
:4008C00012D1144B01221A70104B1B78124810491A4602F0A1FA0D4B1B780F4A0021D1540A4B00221A7003E002E00C4801F044F801F010F80346002B03D0064B1B78002B5B
:40090000C4D000F0D3FF0837BD4680BDDD81FF1F2082FF1FDE81FF1F0082FF1F8439000080B582B000AF0D4B1A78FB1D104600211A4600F061FDFB79002B09D1074B1B7831
:400940001846012100F056FC054801F015F802E0044801F011F80837BD4680BD4082FF1F94390000A439000080B500AF034801F003F8034B01221A7080BD00BFC43900002A
:40098000E081FF1F80B500AF1B4B1B78184601214FF4804241F6FF7301F030FA03461A46164B1A7000F0A0FD03461A46144B1A70134B1A78104B1B781249096889B201FBFE
:4009C00003F39BB210461946FE22062300F0E4FD0B4B1A780C4B1B689BB2104645F6A2311A4600F011FE054B1A78054B1B781046194600F0E3FC80BD3081FF1F4082FF1FDE
:400A0000FC81FF1F1881FF1F4482FF1F80B500AF01F024FA024B1B78184600F093FD80BDFC81FF1F80B400AFFEE700BF80B584B000AF78600F4B1A687B6813441A460E4BB1
:400A4000D31A802B09DC0B4B1B68FB60094B1A687B681A44074B1A6007E002F0A9F803460C221A604FF0FF33FB60FB6818461037BD4680BD3481FF1F5882FF1F80B586B02D
:400A800000AF224B7B61224B3B61204B7B6135E03B691B68FB603B695B68BB603B699B683B6000237B600CE0FB681A68BB681A60BB680433BB60FB680433FB607B680433A3
:400AC0007B607A683B689A42EED13B69DB683B6000237B6008E0BB6800221A60BB680433BB607B6804337B607A683B689A42F2D13B6910333B617B69013B7B617B69002BB8
:400B0000C6D102F05BF8FFF7B9FAFEE701000000EC41000080B582B000AF184B184A1A60184B184A126842F400721A6000237B600FE07B68032B04D8134B7A6853F82230B0
:400B400000E0124B124A796842F821307B6801337B607B682F2BECD90E4B1B78DAB20E4B1A700E4B0A4A1A6000F00AFA00F014FB0B4B00221A600837BD4680BD0CED00E0BD
:400B80000004FA0514ED00E000000000250A00000080FF1FBC7600400481FF1F08ED00E00081FF1F80B582B000AF78603960786800213A6802F041F80837BD4680BD00BF68
:400BC00080B584B000AFF860B9607A60F868B9687A6802F029F81037BD4680BD80B483B000AF0346FB71FEE780B487B000AF7860396000233B6100237B6126E07B699B0017
:400C00007A6813441B68BB60BB68FB73BB6823F0FF03BB6013E03B695B003A6813441B781A46BB6813443A69520039680A4452781A703B6901333B61FB7B013BFB73FB7B5F
:400C4000002BE8D17B6901337B617B691B2BD5D91C37BD465DF8047B704700BF80B582B000AF424B33221A80414B18221A70414B5F221A80404B18221A70404B5F221A80A6
:400C80003F4B18221A703F483F490422FFF798FF3E4B02221A704FF0402308221A703C4B03221A703B4B3C4A1278D2B21A703B4B08221A803A4B41F251221A800023FB7020
:400CC00019237B6014E0FB785B00DAB2354B1B78DBB203F00103DBB21343DBB203F00303FB704FF4F07000F027FA7B68013B7B607B68002B02D0FB78032BE4D17B68002B32
:400D000002D10320FFF76AFF274B4FF480721A80254B07221A70254B00221A70244B48221A70214B00221A70224B02221A70224B04221A70214B214A1278D2B242F007020B
:400D4000D2B21A701E4B1E4A1278D2B242F00102D2B21A701B4B1B4A1278D2B262F07F02D2B21A700837BD4680BD00BF804000408240004084400040864000408840004037
:400D80008A40004000410040880500480043004000420040A146004008010049224200402042004025420040044000400640004008400040014000400B400040A2430040A5
:400DC000A1430040A043004080B483B000AF254B1B78FB71244B1B78BB71244B1B787B71234BFA7902F00702D2B21A70214BFA791209D2B21A701C4BBA7942F00302D2B2C4
:400E00001A701A4B7A7942F00302D2B21A701A4B80221A70194B02221A70194B80221A70184B20221A70184B80221A70174B08221A70174B20221A70164B4FF481721A8025
:400E4000154B80221A70094B7A791A70064BBA791A70124B44221A700C37BD465DF8047B704700BFCF010049F8460040F94600406E5800406F5800401D5100402D5100409B
:400E800009590040985A0040005B0040285B00402B5B0040465B0040585B00407658004080B483B000AF0346FB71FB79012B24D8FA79FB791344FB71FA79124B53F82230DA
:400EC000F979104A52F821201178FA790E48825C0A43D2B21A70FB790133FB71FA79094B53F82230F979074A52F821201178FA790548825C0A43D2B21A700C37BD465DF82D
:400F0000047B7047D8390000E839000080B483B000AF0346FB71FB79012B28D8FA79FB791344FB71FA79144B53F82230F979124A52F821201178FA791048825CD243D2B2A1
:400F40000A40D2B21A70FB790133FB71FA790A4B53F82230F979084A52F821201178FA790648825CD243D2B20A40D2B21A700C37BD465DF8047B7047D8390000E839000035
:400F800080B586B000AF72B6544B544A1278D2B242F00402D2B21A700023FB7513E0FA7D13465B0013445B004D4A13443B613B691A683B699B889BB210461946FFF7F2FD9D
:400FC000FB7D0133FB75FB7D082BE8D90023FB751CE0FA7D13469B0013445B00414A1344FB60FB681B68BB60FB685B687B60FB681A7A5B7A1B0213437B807B88B868796840
:401000001A46FFF7DDFDFB7D0133FB75FB7D012BDFD94FF090403449FFF7E6FD33480421FFF7C0FD32480421FFF7BCFD31480421FFF7B8FD30480421FFF7B4FD2F480421D9
:40104000FFF7B0FD2E4B2E4A1278D2B242F00202D2B21A702B4B2B4A1278D2B242F00202D2B21A70284B284A1278D2B242F04002D2B21A70254B254A1278D2B242F01002A7
:40108000D2B21A70224823490A22FFF799FD224822490822FFF794FD214822490822FFF78FFD214B204A1278D2B242F00802D2B21A701E4B60221A70FFF7D0FD1B4B802220
:4010C0001A701B4B01221A70FFF77EFE19480E490E22FFF775FD1837BD4680BDE8460040EC390000243A00007000004800760040087600401076004018760040207600407B
:401100000350014013500140A0430040C2430040C05100406C05004812510040780500482251004080050048224300400048004004000840B0430040142840F2188002B4B5
:40114000012114381149097811F0C001890904B40F4A515C04BC00BF00BF00BF88417FF5FDAF00BF00BF02BC704700BF00BF70F104007FF5FCAF70470B050709EFF31080F0
:4011800072B6704780F31088704700000048004078110000AFF3008080B483B000AF134B7F221A70124B80221A707F23FB710CE0FB79DB0003F1804303F5F043FA79013A5A
:4011C000D2B21A70FB79013BFB71FB79002BEFD1FB79DB0003F1804303F5F04300221A700C37BD465DF8047B704700BF3981FF1F3881FF1F80B485B000AF02460B46FA712E
:40120000BB710123FB60FB79172B2FD8BB79002B0ED0FB791A01194B1344FA791101174A0A441278D2B242F02002D2B21A700DE0FB791A01114B1344FA7911010F4A0A44C0
:401240001278D2B222F02002D2B21A70FB791A010A4B1344FA791101084A0A441278D2B242F00102D2B21A700023FB60FB6818461437BD465DF8047B704700BF10700040D6
:4012800080B485B000AF0346FB710123FB60FB79172B1DD8FB791A01114B1344FA7911010F4A0A441278D2B222F00102D2B21A70FB791A010A4B1344FA791101084A0A4438
:4012C0001278D2B222F02002D2B21A700023FB60FB6818461437BD465DF8047B704700BF1070004080B485B000AF02460B46FA71BB710123FB60FB79172B18D8FB791A010B
:401300000E4B13441B78DBB223F00E03FB72FB791A010A4B1344BA7902F00702D2B25200D1B2FA7A0A43D2B21A700023FB60FB6818461437BD465DF8047B704710700040E3
:4013400080B485B000AF13460246FA710A46BA807B800123FB60BA8841F6FF739A4202D14FF40053BB807A8841F6FF739A4202D14FF400537B80FB79172B17D8FB79DB00FB
:4013800003F1804303F5EC430433BB60BB68BA881A80FB79DB0003F1804303F5EC430633BB60BB687A881A800023FB60FB6818461437BD465DF8047B704700BF80B485B07E
:4013C00000AF02460B46FA71BB710123FB60FB79172B07D8FB791A01064B1344BA795A720023FB60FB6818461437BD465DF8047B704700BF1070004080B487B000AF0346CA
:40140000B9607A60FB7301237B61FB7B172B1AD8BB68002B0AD0FB7B1A010E4B13445B7ADBB203F07F03DAB2BB681A707B68002B07D0FB7B1A01074B13441B7ADAB27B6805
:401440001A7000237B617B6918461C37BD465DF8047B70471070004080B485B000AFF871B9717A713B710123FB60FB79172B34D8FB79DB0003F1804303F5EC43BA7902F02B
:401480007F02D1B27A79D201D2B20A43D2B21A70FB79DB0003F1804303F5EC433A7E1201D1B23A7902F00F02D2B20A43D2B25A70FB79DB0003F1804303F5EC433A7F02F05B
:4014C0000F02D2B29A70FB79DB0003F1804303F5EC430022DA700023FB60FB6818461437BD465DF8047B704780B582B000AFFF23FB71FFF743FE0346BB71104B1B78182B1B
:4015000012D90F4B1B78FB710C4B1B78013BDAB20A4B1A70FB79DB0003F1804303F5F0431B78DAB2064B1A70BB791846FFF72AFEFB7918460837BD4680BD00BF3881FF1F14
:401540003981FF1F80B584B000AF0346FB71FB795BB2002B19DBFFF711FE0346FB73FB79DB0003F1804303F5F043094A12781A70074BFA791A70074B1B780133DAB2054B8E
:401580001A70FB7B1846FFF7FDFD1037BD4680BD3981FF1F3881FF1F80B485B000AFF871B980BA71FB700123FB60FB795BB2002B23DBBB8823F47F6323F00F039BB2002B55
:4015C0001BD1FB79DB0003F1804303F5F043BB60BB68BA881A80FB79DB0003F1804303F5F043BA799A70FB79DB0003F1804303F5F043FA78DA700023FB60FB6818461437CF
:40160000BD465DF8047B704780B485B000AF13460246FA710A46BA807B800123FB60FB795BB2002B17DBFB79DB0003F1804303F5F0430433BB60BB68BA881A80FB79DB0085
:4016400003F1804303F5F0430633BB60BB687A881A800023FB60FB6818461437BD465DF8047B704780B483B000AF0346FB7101BE0C37BD465DF8047B704700BF80B400AF60
:40168000054B054A1278D2B242F00102D2B21A70BD465DF8047B7047F646004080B582B000AF0346FB80FB88044A127802FB03F31846FFF741FD0837BD4680BD4881FF1F10
:4016C00080B584B000AF03463960FB710F4B1B68FB60FB791F2B02D90020FFF7C3FFFB7903F01F0310339B00FA6813441B68BB60FB7903F01F0310339B00FA6813443A685B
:401700001A60BB6818461037BD4680BD08ED00E080B582B000AF02460B46FA71BB71BB79072B02D90020FFF79DFFFB791F2B02D90020FFF797FFFB7903F01F0303F16043B4
:4017400003F56443BA795201D2B21A700837BD4680BD00BF80B582B000AF786000F03CF8786800F009F8072000F018F800F028F80837BD4680BD00BF80B485B000AF7860B0
:40178000054B1B68FB60FB6848337A681A601437BD465DF8047B704708ED00E080B483B000AF0346FB71054BFA795201D2B21A700C37BD465DF8047B704700BF02E400E0CE
:4017C00080B400AF034B04221A60BD465DF8047B704700BF00E100E080B400AF034B04221A60BD465DF8047B704700BF80E100E080B500AF054B1B78002B04D100F008F8F4
:40180000024B01221A7000F023F880BDE481FF1F80B400AF094B72221A70094B7F221A70084B06221A70084B47221A70074B00221A70BD465DF8047B704700BF8B65004049
:401840008865004028640040386400408964004080B582B000AFFFF791FC0346FB71104B0F4A1278D2B242F02002D2B21A700D4B0C4A1278D2B242F01002D2B21A700A4B91
:40188000094A1278D2B242F01002D2B21A7000F093F8FB791846FFF775FC0837BD4680BD9B650040986500409964004080B483B000AF064B1B78DBB203F07F03FB71FB79AC
:4018C00018460C37BD465DF8047B70476865004080B483B000AF0023FB710C4B1B78BB71BB7903F02003002B09D0094B1B78FB71BB7903F01E03002B01D00023FB71FB7909
:4019000018460C37BD465DF8047B7047686500404B65004080B483B000AF094B1B78DBB203F02003002B01D0012300E00023FB71FB7918460C37BD465DF8047B704700BFEA
:401940006865004080B483B000AF0346FB7100BF074B1B78DBB203F00403002BF8D1054BFA791A700C37BD465DF8047B704700BF696400404964004080B584B000AF7860A9
:401980000023FB810B4B1B78002B10D009E0FB897A6813441B781846FFF7D4FFFB890133FB81FB897A6813441B78002BEFD11037BD4680BDE481FF1F80B400AF094B094A31
:4019C0001278D2B242F00102D2B21A70064B064A1278D2B242F00102D2B21A70BD465DF8047B7047A2430040B243004080B500AF054B1B78002B04D100F008F8024B012295
:401A00001A7000F023F880BDE681FF1F80B500AF03200721FFF77CFE03200949FFF750FE084B084A1278D2B242F00602D2B21A70082000F09DF8044B00221A8080BD00BF48
:401A40005D1C0000095900405082FF1F80B582B000AFFFF793FB0346FB71264B254A1278D2B242F00202D2B21A70234B224A1278D2B242F00202D2B21A70204B1B78BB7184
:401A8000BB7943F00203BB71BB7943F00103BB711A4BBA791A701A4B18221A70194B194A1278D2B222F04002D2B21A70154B154A1278D2B242F00302D2B21A70124B0822DC
:401AC0001A70124B02221A70114B114A1278D2B242F00802D2B21A700A20FFF7DFFD0D4B08221A60FB791846FFF74CFB0837BD4680BD00BFAB430040BB4300400B590040ED
:401B00000E5900400D59004008590040164600402F5B004080E200E080B582B000AFFFF72DFB0346FB710F4B0E4A1278D2B222F00102D2B21A700C4B0B4A1278D2B222F077
:401B40000202D2B21A70094B084A1278D2B222F00202D2B21A70FB791846FFF713FB0837BD4680BD08590040AB430040BB43004080B584B000AF0346FB71FB790A2B07D0CC
:401B80000C2B02D0082B06D008E0C223FB730BE08223FB7308E04223FB7305E0C223FB730020FFF75FFD00BF044BFA7B1A70FB79184600F015F81037BD4680BD0A5900406F
:401BC00080B400AF054B054A1278D2B242F00102D2B21A70BD465DF8047B70470859004080B584B000AF0346FB71FB790A2B08D00C2B02D0082B08D00BE04FF48053FB6025
:401C00000DE04FF48063FB6009E04FF48073FB6005E00023FB600020FFF724FD00BF0C4B00221A80FB6842F2107202FB03F303F58063002B01DA03F2FF73DB121A46054B5F
:401C40001A60054B00221A801037BD4680BD00BF4E82FF1F4882FF1F4C82FF1F80B400AFBD465DF8047B704780B584B000AF02460B46FA807B7100F0B1F80346FB7300F00E
:401C8000A1F80346BB81FA88BB899A4200F08780444B1B78DBB203F00103FB72FB7B002B20D1BB89002B02D0FB88002B1AD1BB89002B0BD13C4BFA881A803C4B3B4A12786A
:401CC000D2B222F04002D2B21A7068E0374B374A1278D2B242F04002D2B21A70324BFA881A805CE0FB7A002B33D0314B00221A70304B01221A70304B00221A702F4B2F4A41
:401D00001278D2B202F07F02D2B21A70274B1B78DBB203F00803002B02D0FB88002B18D1274BBA891A80224B07221A7000BF204B1B78DBB203F00103002BF8D1194B194A85
:401D40001278D2B222F00102D2B21A70184B00221A70144B1B78DBB203F00103002B13D0174BFA881A80124A7B79002B01D0032300E00123137000BF0D4B1B78DBB203F0FE
:401D80000103002BF8D10AE0074BFA881A80054B044A1278D1B2FA7A0A43D2B21A701037BD4680BDA14300400041004002410040014000401440004010400040084000407D
:401DC0000240004080B400AF034B1B889BB21846BD465DF8047B70470041004080B400AF054B1B78DBB203F00703DBB21846BD465DF8047B704700BF0241004080B584B05F
:401E000002AFF871B971BA807B80134B00221A70114B1978FA79BB790020009000200190084611461A460023FFF716FB0A4B1978BA887B88084611461A46FFF781FA064B09
:401E40001B7818460221FFF74DFA034B1B7818460837BD4680BD00BF5081FF1F80B500AF024B1B781846FFF70BFA80BD5081FF1F80B582B000AF0F4800F06CF80D4800F056
:401E800083F8FFF77BF90346FB710B4B0A4A1278D2B242F01002D2B21A70FB791846FFF771F900F07FF8012000F038F80837BD4680BD00BFFF083D009765004080B400AF03
:401EC000054B054A1278D2B262F07F02D2B21A70BD465DF8047B70477565004080B500AF054B1B78002B04D1FFF7C2FF024B01221A70FFF7E3FF80BDE781FF1F80B400AFB6
:401F0000054B054A1278D2B202F07F02D2B21A70BD465DF8047B70477565004080B483B000AF0346FB71044BFA791A700C37BD465DF8047B704700BF8765004080B400AF15
:401F4000034B1B78DBB21846BD465DF8047B70476765004080B483B000AF7860034B7A681A600C37BD465DF8047B70472465004080B400AF034B1B681846BD465DF8047BE0
:401F8000704700BF4465004080B483B000AF7860034B7A681A600C37BD465DF8047B70470465004080B500AF01E0FFF7E1FFFFF7C5FF034603F00803002BF6D180BD00BF26
:401FC00080B582B000AF786000F03CF8786800F009F8072000F018F800F028F80837BD4680BD00BF80B485B000AF7860054B1B68FB60FB6844337A681A601437BD465DF892
:40200000047B704708ED00E080B483B000AF0346FB71054BFA795201D2B21A700C37BD465DF8047B704700BF01E400E080B400AF034B02221A60BD465DF8047B704700BF35
:4020400000E100E080B400AF034B02221A60BD465DF8047B704700BF80E100E080B582B000AF786000F03CF8786800F009F8072000F018F800F028F80837BD4680BD00BFEA
:4020800080B485B000AF7860054B1B68FB60FB6840337A681A601437BD465DF8047B704708ED00E080B483B000AF0346FB71054BFA795201D2B21A700C37BD465DF8047B19
:4020C000704700BF00E400E080B400AF034B01221A60BD465DF8047B704700BF00E100E080B400AF034B01221A60BD465DF8047B704700BF80E100E080B500AF00F084FA1C
:40210000022000F0D3FA042000F0F0FAFFF7ECF903461A46094B1A70FFF7E6F903461A46074B1A7007484FF4867100F04FF806484FF4FA7100F082F880BD00BFEB81FF1F5A
:40214000EC81FF1F383A0000443B000080B500AF00F078FA084B1B7818460121FFF74AF8064B1B7818460121FFF744F8002000F0DDFA00F0B5F980BDE981FF1FEA81FF1F96
:4021800080B500AF054B1B78002B04D1FFF7B4FF024B01221A70FFF7D9FF80BDE881FF1F80B500AF00F0B6F9064B1B781846FFF767F8054B1B781846FFF762F800F05CFA32
:4021C00080BD00BFE981FF1FEA81FF1F80B582B000AF78600B467B807B681B0C9BB2012001211A464FF4804300F0AEF903461A46104B1A70104B19780F4B1B787A8808464A
:4022000011461A460123FFF7C7F90B4B1A787B689BB2104619464FF4B742FFF7F5F9054B1A78054B1B7810461946FFF7C7F80837BD4680BDE981FF1FEB81FF1F80B582B0F9
:4022400000AF78600B467B807B681B0C9BB2012001211A464FF4804300F0A6F903461A46104B1A70104B19780F4B1B787A88084611461A460123FFF78FF90B4B1A787B6821
:402280009BB2104619464FF4B742FFF7BDF9054B1A78054B1B7810461946FFF78FF80837BD4680BDEA81FF1FEC81FF1F80B582B000AF0346FB71094B1B78FF2B04D0074BA8
:4022C0001B781846FEF722FEFB791846FEF7E8FD024BFA791A700837BD4680BD5181FF1F80B500AF064B1B78FF2B07D0044B1B781846FEF70BFE024BFF221A7080BD00BF78
:402300005181FF1F80B500AF00F0D2FA022000F021FB002000F03EFB00F08AFBFFF7E4F803461A46094B1A70FFF7DEF803461A46074B1A7007484FF4867100F051F8064867
:402340004FF4FA7100F084F880BD00BFF081FF1FF181FF1F383D0000443E000080B500AF00F0C4FA00F06AFB084B1B7818460121FEF740FF064B1B7818460121FEF73AFF1E
:40238000002000F027FB00F0FFF980BDEE81FF1FEF81FF1F80B500AF054B1B78002B04D1FFF7B0FF024B01221A70FFF7D7FF80BDED81FF1F80B500AF00F000FA064B1B78FE
:4023C0001846FEF75DFF054B1B781846FEF758FF00F0A6FA80BD00BFEE81FF1FEF81FF1F80B582B000AF78600B467B807B681B0C9BB2012001211A464FF4804300F0F8F9DF
:4024000003461A46104B1A70104B19780F4B1B787A88084611461A460123FFF7BDF80B4B1A787B689BB21046194645F68332FFF7EBF8054B1A78054B1B7810461946FEF75A
:40244000BDFF0837BD4680BDEE81FF1FF081FF1F80B582B000AF78600B467B807B681B0C9BB2012001211A464FF4804300F0F0F903461A46104B1A70104B19780F4B1B788B
:402480007A88084611461A460123FFF785F80B4B1A787B689BB21046194645F68332FFF7B3F8054B1A78054B1B7810461946FEF785FF0837BD4680BDEF81FF1FF181FF1F90
:4024C00080B483B000AF0346FB71044BFA791A700C37BD465DF8047B704700BF7965004080B400AF094B094A1278D2B242F00202D2B21A70064B064A1278D2B242F0020256
:40250000D2B21A70BD465DF8047B7047A2430040B243004080B400AF094B094A1278D2B222F00202D2B21A70064B064A1278D2B222F00202D2B21A70BD465DF8047B704788
:40254000A2430040B243004080B584B002AFF871B971BA807B80134B01221A70114B1978FA79BB790020009000200190084611461A460023FEF770FF0A4B1978BA887B8868
:40258000084611461A46FEF7DBFE064B1B7818460221FEF7A7FE034B1B7818460837BD4680BD00BF5281FF1F80B584B002AFF871B971BA807B80134B02221A70114B197800
:4025C000FA79BB790020009000200190084611461A460023FEF740FF0A4B1978BA887B88084611461A46FEF7ABFE064B1B7818460221FEF777FE034B1B7818460837BD4659
:4026000080BD00BF5381FF1F80B500AF0A4B00221A700A4B00221A70094B094A1278D2B242F00802D2B21A70002000F05FF8022000F03CF880BD00BF2058004021580040AD
:40264000875A004080B400AF094B094A1278D2B242F00102D2B21A70064B064A1278D2B242F00102D2B21A70BD465DF8047B7047A8430040B843004080B400AF094B094AEE
:402680001278D2B222F00102D2B21A70064B064A1278D2B222F00102D2B21A70BD465DF8047B7047A8430040B843004080B483B000AF0346FB710C4B0B4A1278D2B222F08C
:4026C0000202D2B21A70084B074A1278D1B2FA7902F00202D2B20A43D2B21A700C37BD465DF8047B704700BF2058004080B582B000AF0346FB710C4B0B4A1278D2B222F0F0
:402700000C02D2B21A70084B074A1278D1B2FA7902F00C02D2B20A43D2B21A7000F016F80837BD4680BD00BF2058004080B483B000AF0346FB71044BFA791A700C37BD4629
:402740005DF8047B704700BF805B004080B483B000AF0B4B1B78DBB203F00C039B08DBB20633FB71074AFB7903F1924303F590731B78DBB213700C37BD465DF8047B704794
:40278000205800400846004080B400AF094B094A1278D2B242F00402D2B21A70064B064A1278D2B242F00402D2B21A70BD465DF8047B7047A2430040B243004080B400AF35
:4027C000094B094A1278D2B222F00402D2B21A70064B064A1278D2B222F00402D2B21A70BD465DF8047B7047A2430040B243004080B584B002AFF871B971BA807B80134B01
:4028000003221A70114B1978FA79BB790020009000200190084611461A460023FEF71CFE0A4B1978BA887B88084611461A46FEF787FD064B1B7818460221FEF753FD034B1C
:402840001B7818460837BD4680BD00BF5481FF1F80B584B002AFF871B971BA807B80134B04221A70114B1978FA79BB790020009000200190084611461A460023FEF7ECFD4B
:402880000A4B1978BA887B88084611461A46FEF757FD064B1B7818460221FEF723FD034B1B7818460837BD4680BD00BF5581FF1F80B500AF0A4B00221A700A4B00221A70CE
:4028C000094B094A1278D2B242F00802D2B21A70002000F05FF8022000F03CF880BD00BF2C5800402D5800409F5A004080B400AF094B094A1278D2B242F00802D2B21A708C
:40290000064B064A1278D2B242F00802D2B21A70BD465DF8047B7047A8430040B843004080B400AF094B094A1278D2B222F00802D2B21A70064B064A1278D2B222F008021D
:40294000D2B21A70BD465DF8047B7047A8430040B843004080B483B000AF0346FB710C4B0B4A1278D2B222F00202D2B21A70084B074A1278D1B2FA7902F00202D2B20A43C1
:40298000D2B21A700C37BD465DF8047B704700BF2C58004080B582B000AF0346FB710C4B0B4A1278D2B222F00C02D2B21A70084B074A1278D1B2FA7902F00C02D2B20A430D
:4029C000D2B21A7000F016F80837BD4680BD00BF2C58004080B483B000AF0346FB71044BFA791A700C37BD465DF8047B704700BF835B004080B483B000AF0B4B1B78DBB278
:402A000003F00C039B08DBB20633FB71074AFB7903F1924303F59C731B78DBB213700C37BD465DF8047B70472C5800400B46004080B500AF022000F025F880BD80B400AF2E
:402A40000D4B0D4A1278D2B242F06002D2B21A700A4B0A4A1278D2B242F00802D2B21A70074B074A1278D2B242F00802D2B21A70BD465DF8047B704777580040A443004037
:402A8000B443004080B483B000AF0346FB710C4B0B4A1278D2B222F00302D2B21A70084B074A1278D1B2FA7902F00302D2B20A43D2B21A700C37BD465DF8047B704700BFAB
:402AC0005E5800404FF0FF3C06E000BF4FF0010C02E000BF4FF0010C4DF804CD4FEA40024FEA41037FEA226C18BF7FEA236C11D001B052EA530C18BF90EA010F58BFB2EB72
:402B0000030088BFC81738BF6FEAE17018BF40F0010070477FEA226C02D15FEA402C05D17FEA236CE4D15FEA412CE1D05DF8040B704700BF844608466146FFE70FB5FFF76A
:402B4000C9FF002848BF10F1000F0FBD4DF808EDFFF7F4FF0CBF012000205DF808FB00BF4DF808EDFFF7EAFF34BF012000205DF808FB00BF4DF808EDFFF7E0FF94BF012055
:402B800000205DF808FB00BF4DF808EDFFF7D2FF94BF012000205DF808FB00BF4DF808EDFFF7C8FF34BF012000205DF808FB00BF014B1868704700BFB881FF1F70B50E4BD9
:402BC0000E4D0024ED1AAD101E46AC4204D056F8242090470134F8E701F0F6FA084D094B0024ED1AAD101E46AC4204D056F8242090470134F8E770BDD4410000D441000083
:402C0000DC410000D4410000024B0146186800F061B800BFB881FF1F024B0146186800F015B800BFB881FF1F10B50023934203D0CC5CC4540133F9E710BD02440346934233
:402C400002D003F8011BFAE77047000030B500293CD051F8042C0B1F1D49002AB8BF9B180A680C4612B95A600B6030BD93420DD219685818904203D15A5811444268196046
:402C80005A60236030BD994203D80A4651680029F9D1146815199D420AD11B682344D0188842136012D10868034413604B680CE002D90C23036030BD18681C188C4203D169
:402CC0000C684968204418605960536030BD00BFF881FF1F70B5CD1C25F0030508350C2D38BF0C25002D06463FDB8D423DD3214B1C6818462146A1B10B685B1B0ED40B2BE1
:402D000003D90B60CC18CD501FE08C4202D1626802601AE04B6863600C4616E00C464968E9E7154C23681BB9304600F027F820602946304600F022F8431C014615D0C41CD5
:402D400024F0030484420AD1256004F10B00231D20F00700C31A0BD05A42E25070BD3046611A00F00BF80130EED10C233360002070BD00BFF881FF1FF481FF1F38B5064CFD
:402D80000023054608462360FDF750FE431C02D1236803B12B6038BD5482FF1F0EB430B59CB01FAC4FF4017254F8045BADF814200290069000F028F80B4B03900B930023D3
:402DC0000F9314934FF6FF73ADF81630074B079002A918682A462346019400F0A1F81CB0BDE8304003B07047F12D0000B881FF1F0020704710F8012B11F8013B012A28BFBB
:402E00009A42F7D0D01A7047034613F8012B002AFBD1181A0138704710B5034632B111F8014B013A03F8014B002CF7D11A44934203D0002103F8011BF9E710BD70B503786F
:402E40000A468BB1064610F8014B3CB10B461A4613F8015B002DF5D0AC42F8D11378002B14BF3046002070BD184670BD38B54B1C144602D14FF0FF3038BD9389CDB223F00F
:402E800020039381536B526883B1A36B9A4207DA23685A1E226003F8015C636801331FE0214600F08BF90028F2D0E3E72169236851B18B4208D913F8010CA84204D1013B22
:402EC00001322360626038BDE36304F1440363630323A3632346226403F8465F236001236360284638BD10B50C46496B69B104F14403994201D0FFF7A9FE236C00206063B9
:402F0000636013B1E36B236010BD23694FF0FF30236000236360A38943F02003A38110BD2DE9F047ADF5247D01930023469347939D4B0DF10C09A2939C4B07460C46904610
:402F4000CDF82091A39398F80050002D00F0248197490B688A462B445A7802F0080202F0FF03EAB16368002B10DD2368DAF8002019780A44527815070ED5479A01330132C4
:402F8000479262682360013A6260EBE7A39B3846214698470028E8D008F10106B046D2E7252D08F101064FD14593439398F801302A2B03D11023439308F102063178354653
:402FC000A1F13003092B06F1010606D8459B0A2202FB0313303B4593F0E7DFF8DC810322404600F07BFA40B1C8EB0008012000FA08F0439B3546034343936E1C2D78672D88
:403000000FD8652D78D25B2D54D005D8002D00F0C580252D18D071E0632D57D0642D3FD06CE0702D32D007D86E2D55D03AD8692D64D10023449339E0752D31D0782D29D045
:40304000732D5BD102233FE06368002B0DDD23681A78AA4240F0A080013362682360479B013A01336260479398E7A39B3846214698470028EBD04698002800F08F80A38904
:4030800013F0400F18BF4FF0FF3089E0439B43F020034393439B43F400734393102302E00A2300E008236E2D449301DC03230BE0042309E03146484600F044FA439B06468E
:4030C00043F040034393012349931BE0439B43F0400343930023F7E7439AD0063FF55EAF12F0010F019A479B02F104010191126814BF1380136051E70523E5E703234993D0
:403100000A2344936368002B03DD439B590611D518E0A39B3846214698470028F5D0AAE7479A013247926268013A002A626013DD013323602368DAF8002019780A4452786F
:403140001207EDD4499B022B0DDC384643A9224601AB00F06DF819E0A39B3846214698470028E7D087E7042B06DC384643A9224601AB00F0BDF809E00E4B002B3FF40EAFCF
:40318000384643A9224601ABAFF30080012803D002287FF403AF6EE7469801E04FF0FF300DF5247DBDE8F0876D2E0000E72E0000BC81FF1F000000003A4000002DE9F04117
:4031C0000C46496B04F1440399421AD14FF48061FFF780FD18B94FF0FF30BDE8F0814FF48063A36394F84630606380F8FF3394F8453000F2FD30437094F84430037020607A
:4032000012E0A66B77003A4600F076F905460028E1D000EB0608404629463246FFF704FDC4F800806563A7630020BDE8F08100002DE9F04115468A6880460C4632B98A69E6
:40324000002A14BF4FF0FF3201228A602268D10603D41A68111D196017680026A069E0B923680136DA0604D42B6801371B7807F8013C2A686B6801322A60A268013B013A75
:403280006B60A26012B3002BE8DCD4F880314046294698470028E1D018E0012807D12A6811786269525C002ADAD1EEB10EE0022801D04EB10AE02A680C49127809680A4460
:4032C00052781307CCD5F4E701280DD0236813F0100305D1E2680132E260A26902B13B70236900201E442661BDE8F081BC81FF1F2DE9F04F89B00C46984605A9734B029106
:403300008146164693E80700029B83E80700A3696F4A7049032B08BF1146A36803915A1EB2F5AE7F07D96FF4AE7503EB050A40F25D13A36001E04FF0000A236804F11C074F
:4033400043F450632360BB460023326805A951F8230011780222019300F0C0F8019B002835D0012B0BD162682AB908226260226842F400722260226822F4A0620BE0022B47
:403380000AD1226802F4C061B1F5007F1FD11021616042F480722260A268511EA160B2B132680BF10105511C316012788BF800207268013A002A726008DC0193D4F8802146
:4033C000484631469047019B002841D1AB460133032BBAD163680BB90A23636063683E496069C91A00F0AEF85D464FF0000BA368002B2FD0326860691178405C50B3302924
:4034000021680BD1080509D50BF1010BBAF1000F0BD001330AF1FF3AA36006E021F4106121601378013505F8013C7368013B002B736003DD33680133336005E0D4F8803193
:4034400048463146984728B9A368013BA360CEE74FF0000B2368D9050DD5BD4209D915F8011CD4F87C3148463246984705F1FF3A5546BD4226D0226812F010021BD12A70A7
:40348000636848463946039EB0472268D8F8003012F0200F07D1D20705D51A1DC8F800201B68188004E01A1DC8F800201B681860E3680133E3602369ED1BAB445B442361C6
:4034C000002000E0012009B0BDE8F08F40400000A9350000AD3600005C40000010B5C9B202449042034605D01C7801308C42F8D1184610BD002010BDF8B5064614460D4661
:4035000021B91146BDE8F840FFF7E4BB1AB9FFF79DFB2046F8BD00F041F9A0420ED230462146FFF7D7FB074650B129462246FFF77BFB30462946FFF789FB01E02846F8BDE7
:403540003846F8BDF0B50B785E2B02D04C1C002102E08C1C4B780121002281540132B2F5807FFAD10BB9651E1BE0C1F10107FEB2C654621C12F8011C551E2D29144604D0A0
:403580005D290DD069B10B46F1E715785D2DFAD09D42F8DB0133AB42C654FBDB0232E9E715462846F0BD000084463F482DE9F04FD0F800800E46344614F8015B08EB05002B
:4035C000407800F0080000F0FF0708B12646F2E72D2D03D1B41C7578012703E02B2D04BF7578B41C33F010000DD1302D08D1207800F0DF00582851D165781023023402E0E1
:40360000002B08BF0A23002F0CBF6FF0004A4FF0004ABAFBF3F903FB19AA0026304608EB050B9BF801B01BF0040F01D0303D0BE01BF0030B1BD0BBF1010F14BF4FF0570B7F
:403640004FF0370BCBEB05059D4210DAB6F1FF3F0AD0484506D801D1554503DC03FB0050012601E04FF0FF3614F8015BD7E7731C0CD1002F4FF022030CBF6FF000404FF033
:403680000040CCF800302AB9BDE8F08F07B1404242B106B1611E1160BDE8F08F002B08BF0823B0E7BDE8F08FBC81FF1F84463A482DE9F04FD0F800800E46344614F8015B85
:4036C00008EB0500407800F0080000F0FF0708B12646F2E72D2D03D1B41C7578012703E02B2D04BF7578B41C33F010000DD1302D08D1207800F0DF00582847D1657810230A
:40370000023402E0002B08BF0A234FF0FF39B9FBF3F903FB09FA00266FEA0A0A304608EB050B9BF801B01BF0040F01D0303D0BE01BF0030B1AD0BBF1010F14BF4FF0570B70
:403740004FF0370BCBEB05059D420FDA002E08DB484506D801D1554503DC03FB0050012601E04FF0FF3614F8015BD8E7002E05DA2223CCF800304FF0FF3001E007B14042B9
:4037800042B106B1611E1160BDE8F08F002B08BF0823BAE7BDE8F08FBC81FF1F51F8040C002802DA04390B581844043870470000000000002350435F5245515F434F4E4E38
:4037C000454354230000000050534F435F524541445900004144430020537461727400002053504600000000256C640020465053000000002046505320746F6F206C6172EA
:4038000067650000205265730000000020535053000000002053746F7000000020556E6B6E6F776E00000000414652535A2300000A0D000044414300204475747900000038
:403840002564000020496E76616C69642064757479000000204672657100000020496E76616C6964206672657175656E63790000204F6666736574002566000020496E760C
:40388000616C6964206F666673657400205650500000000020496E76616C69642056505000000000205761766500000020496E76616C69642077617665666F726D00000093
:4038C0004144464F56575A23000000002350435F5245515F444953434F4E4E4543542300556E73706563696669656420636F6D6D616E640A0D00000020496E76616C6964AF
:40390000205350530000000020496E76616C6964207265736F6C7574696F6E00536C6F7070792070726F6772616D6D696E672E20446174612073697A65202A206672616D19
:40394000652073697A65206D75737420626520006C657373207468616E20343039352062797465732E0D0A526573697A656420746F206D6178206672616D652073697A65D2
:403980002E0D0A0052616E646F6D2062797465730A0D0000444D41205265656E61626C65640D0A0054494D45525F444D4120706572696F6420746F6F20736D616C6C0D0A61
:4039C000000000004672616D652043617074757265640D0A00000000805A0040244300403D510040005B004002008002005100401000405100403000F0510040100000008C
:403A000001400010001401408006001B0140000100400140000A004C01400002005001402000000060520040E40400480600801A0140EC04004880003E404143444647495B
:403A40004A4C4D4E50515354555758595B5C5D5F6061626365666768696A6B6C6D6E6F70717273737475767677787879797A7A7B7B7B7C7C7C7C7D7D7D7D7D7D7D7D7D7D4B
:403A80007D7C7C7C7C7B7B7B7A7A79797878777676757473737271706F6E6D6C6B6A6968676665636261605F5D5C5B59585755545351504E4D4C4A494746444341403F3D16
:403AC0003C3A393736343331302F2D2C2A29282625242221201E1D1C1B1A1817161514131211100F0E0D0C0B0A0A0908070706050504040303020202010101010000000031
:403B0000000000000000000101010102020203030404050506070708090A0A0B0C0D0E0F1011121314151617181A1B1C1D1E20212224252628292A2C2D2F3031333436379F
:403B4000393A3C3D7D7D7D7D7D7D7D7D7D7D7D7D7D7D7D7D7D7D7D7D7D7D7D7D7D7D7D7D7D7D7D7D7D7D7D7D7D7D7D7D7D7D7D7D7D7D7D7D7D7D7D7D7D7D7D7D7D7D7D7D0D
:403B80007D7D7D7D7D7D7D7D7D7D7D7D7D7D7D7D7D7D7D7D7D7D7D7D7D7D7D7D7D7D7D7D7D7D7D7D7D7D7D7D7D7D7D7D7D7D7D7D7D7D7D7D7D7D7D7D7D7D7D7D7D7D7D7DC5
:403BC0007D7D7D7D7D7D7D7D7D7D7D7D7D7D7D7D7D7D7D7D7D7D7D7D7D7D7D7D7D7D7D7D7D7D7D7D7D7D7D7D7D7D7D7D7D7D7D7D7D7D7D7D7D7D7D7D7D7D7D7D7D7D7D7D85
:403C00007D7D7D7D7D7D7D7D7D7D7D7D7D7D7D7D7D7D7D7D7D7D7D7D7D7D7D7D7D7D7D7D7D7D7D7D7D7D7D7D7D7D7D7D7D7D7D7D7D7D7D7D7D7D7D7D7D7D7D7D7D7D00003E
:403C40000000000000000000000000000000000000000000000000000000000000000000000000000000000000000000000000000000000000000000000000000000000044
:403C80000000000000000000000000000000000000000000000000000000000000000000000000000000000000000000000000000000000000000000000000000000000004
:403CC00000000000000000000000000000000000000000000000000000000000000000000000000000000000000000000000000000000000000000000000000000000000C4
:403D000000000000000000000000000000000000000000000000000000000000000000000000000000000000000000000000000000000000000000008081838587898B8D52
:403D40008E90929496989A9B9D9FA1A3A5A7A9AAACAEB0B2B4B6B7B9BBBDBFC1C3C5C6C8CACCCED0D2D3D5D7D9DBDDDFE1E2E4E6E8EAECEEEFF1F3F5F7F9FBFCFBF9F7F51C
:403D8000F3F1EFEEECEAE8E6E4E2E1DFDDDBD9D7D5D3D2D0CECCCAC8C6C5C3C1BFBDBBB9B7B6B4B2B0AEACAAA9A7A5A3A19F9D9B9A98969492908E8D8B8987858381807EE9
:403DC0007C7A78767472716F6D6B6967656462605E5C5A58565553514F4D4B4948464442403E3C3A39373533312F2D2C2A28262422201E1D1B1917151311100E0C0A080683
:403E000004030406080A0C0E1011131517191B1D1E20222426282A2C2D2F31333537393A3C3E4042444648494B4D4F51535556585A5C5E6062646567696B6D6F71727476A5
:403E4000787A7C7EA1A1A1A1A3A3A3A3A3A3A3A3A6A6A6A6A8A8A8A8ABABABABABABABABABABABABABABABABABABABABABABABABABABABABABABABABABABABABABABABABCA
:403E8000ABABABABABABABABABABABABABABABABABABABADADADADB8B8B8B8BABABABABDBDBDC2C2C2C2C2C2C2C2C2C2C2C2C2C2C2C2C4C4C4C4C7C7C7C7E6E6E6E6E6E6EE
:403EC000E6E6EBEBEBEBEDEDEDEDEDEDEDEDF0F0F0F0EBEBEBEBEBEBEBEBE8E8E8E8E8E8E8E8E8E8E8E8E8E8E8E6E6E6E6E3E3E3E3E3E3E3E3E3E3E3E3E3E3E3E3E3E3E3C1
:403F0000E3E3E3E3E3E0E0E0E0BDBDBDBDBABABABABABABABABABABABABABABABABABABABABABABABABABABABABABABABABABABABABABABABFBFBFBFC4C4C4C4C9C9C9C918
:403F4000CFCFCFCFC2C2C2C2B8B8B8B8B5B6B7B89494949491919191919191918F9090918F8F8F8F8F8F8F8F8F8F8F8C8D8E8F8C8C8C8C63636363616161615C5D5D5E54C8
:403F80005454544F4F4F4F4C4D4E4F4A4A4A4A4A4A4A4A4A4A4A4A4A4A4A4A4A4A4A4A4A4A4A4A4A4A4A4A4A4A4A4A4A4A4A4A4A4A4A4A4A4A4A4A4A4A4A6E6E6E6E6E6E69
:403FC0006E6E6E6E6E6E6E6E6E6E6B6B6B6B69696969666666666666666666666666666666666666666666666663636363636363636363636396969696999999999E9E9EC1
:404000009E9E9E9E9EA1A1A1A1A1A1A1A1A1A1A1A1A1A1A1A1A1A1A1A19E9E9E9E9E9E9E9E9E9E9E9E9E9E9E9E9E9E9E9E9E9E9E9E9E9E9E9E9E9E9E4300686C4C00000051
:404040005E4000006140000064400000412D46612D66383930313233343536375D002B2D00303000785800002020202020202020202828282828202020202020202020209B
:404080002020202020202020881010101010101010101010101010100404040404040404040410101010101010414141414141010101010101010101010101010101010159
:4040C0000101011010101010104242424242420202020202020202020202020202020202020202101010102000000000000000000000000000000000000000000000000049
:40410000000000000000000000000000000000000000000000000000000000000000000000000000000000000000000000000000000000000000000000000000000000007F
:40414000000000000000000000000000000000000000000000000000000000000000000000000000000000000000000000000000000000000000000000000000000000003F
:4041800000000000000000000000000000000000000000000000000000000000000000000000000000000000000000000000000000000000000000000000000000000000FF
:4041C0000000000000000000F8B500BFF8BC08BC9E4670474D000000150B0000F8B500BFF8BC08BC9E46704729000000004200000881FF1FB80000009800000000000000F2
:404200000000000008000000A0860100060000009001000064000000000000400000803F0100000032000000010000005882FF1F807F00001F00000000366E01C05D000049
:40424000180000000000E02EFFFFFFFFFFFF0000000000006841000088410000A841000000000000000000000000000000000000384000000000000000000000000000004B
:404280000000000000000000000000000000000000000000000000000000000000000000000000000000000000000000000000005881FF1F67400000000000000000000060
:4042C00000000000000000000000000000000000000000000000000000000000000000000000000000000000000000000000000000000000000000000000000000000000BE
:40430000000000000000000000000000000000000000000000000000000000000000000000000000000000000000000000000000000000000000000000000000000000007D
:40434000000000000000000000000000000000000000000000000000000000000000000000000000000000000000000000000000000000000000000000000000000000003D
:4043800000000000000000000000000000000000000000000000000000000000000000000000000000000000000000000000000000000000000000000000000000000000FD
:020000040003F7
:0200000480007A
:40000000025A00400164004003650040020701405F080140360901402D1401401215014032160140121701403D180140321901400B1A0140481B01400A4001400741014048
:40004000064201400A430140024401400145014001460140034701400B4801400B490140074C01400A4D0140065001400351014087019F01890F870D88388B72E204E604E6
:40008000020C07080B050C0C0E03100111031206131415031603170C211A23042401260E2A082F183303351C360F39083A803B203F044002470449FF4A074BFF4C404D2030
:4000C0004EF04F055008580459045A045F01604061A86240632080098210842C85138611870489038B148C308D0A8E0C8F14901C91139222930C94109A039B15A120A44058
:40010000A814AF08B10FB320B41FB660B710B880BB02BF44C053C102C5E0C6C0C70BC81AC9FFCAFFCBFFCEF0CF44D00CD401D804D904DA04DB04DF01E6C0EA40EB02000567
:4001400002020421056009040A040B800F60102816081708180119801A041D401F40224623402404272829812D802F40302032023602370838243B803D083F204004422077
:40018000472049014A025018542055045628571059215A8881108302C09DC23EC466CA99CCC5CE6ED026D208D60F404549FF4AFF4BFF4F0150185A045D095F0160406240CC
:4001C00064406540668068806A806C806E8082019201B601C045C9FFCAFFCBFFCD83CE03CF01D018D280D804DA04DB04DC09DD99DF01E040E240E440E540E680E880EA8035
:40020000EC80EE8006800C021F804280468048024C02768087809E80A002C010C210D081D218E480E606EC01404549FF4AFF4BFF4D834E034F0150185A045D095F016040BD
:40024000624064406540668068806A806C806E808F019301B701BF40C045C5ECC720C823C9FFCAFFCBFFCD83CE03CF01D018D401D904DA04DB04DD99DF01E040E240E4403F
:40028000E540E680E880EA80EC80EE80224030023A8042804680480249064C02500259065A80CC01CE08D081D218D60BE208EE0401080240041805330808090F0B700C10C6
:4002C0000F73100111221439157F1604183F19731B0C1E402111222623802427250426182819290C2A222D0C2E012F7330403180321F334C350F363837303A283B283E012C
:4003000054185604580459045B045F01920693019801AC02AE04B002B101B201B404BE15D804D904DB04DC20DF01067A08020A040C400D090E0912021680175819101A20B7
:400340001B021D081E091F19220224112504261027582C212E282F80300236153C143D803E825C01678A680279027B80821087408801890892049D10A702C0F0C2FAC4F15B
:40038000CAF0CCE1CEF0D680D8B0E404EE04000402011E052E023002340436013E5058045C015F010102054106240A010D080E0610021480171419021A021B201D011E0296
:4003C0001F4424062540261427402E2C2F5A34803580361037043C023D043F8044404508460847484C0156445E086D046F167420761283208601880189408A018B808D842F
:4004000093209404970898409B089E52A002A104A348A420A540A601A780A802B748C0F8C2E1C471CAF0CC70CED0D0F0D210D640E480EC01300236823B023D444310794034
:400440007A02CCE0CEE0D0103C40954497029F10A402A680CE209440954497029F10A402A680804083109440954497029F10A402A680E220E6203080CC08A480A480324054
:40048000A480CC0820202410840295049702A402A680A940C8C0E210EE20830185048680881095049702A010A680A810E670EC801D10810296809D10A480A910C601104047
:4004C000750288C09902A480AA40C408DE04E201E40100010C01100711011B011C0700FD10AA1102808000004000000000020414004E080000000400010102000000000026
:40050000084E00000804002A020101000008081403010000030100000040000008300401000E034002000000000004053502040001000C0E14FFFFFF62A0F0410C00000080
:4005400000000212040404040000000100000000000040020010301000101012000000000000000000000000000000008000408080008000000000000000000000008000D2
:40058000000000000000020001001801000000000000000000000000000000000000000000000000000000000000000000000000000000000000000000000000000000001F
:4005C00000000000000000000000000000000000000000000000000000000000000000000000000000000000000000000000000000000000000000000000000000000000FB
:4006000000000000000000000000000000000000000000000000000000000000000000000000000000000000000000000000000000000000000000000000000000000000BA
:40064000000000000000000000000000000000000000000000000000000000000000000000000000000000000000000000000000000000000000000000000000000000007A
:40068000000000000000000000000000000000000000000000000000000000000000000000000000000000000000000000000000000000000000000000000000000000003A
:0200000490006A
:0400000000004005B7
:0200000490105A
:04000000BC90ACAF55
:0200000490303A
:02000000BA3311
:0200000490402A
:4000000000000000000000000000000000000000000000000000000000000000000000000000000000000000000000000000000000000000000000000000000000000000C0
:400040000000000000000000000000000000000000000000000000000000000000000000000000000000000000000000000000000000000000000000000000000000000080
:400080000000000000000000000000000000000000000000000000000000000000000000000000000000000000000000000000000000000000000000000000000000000040
:4000C0000000000000000000000000000000000000000000000000000000000000000000000000000000000000000000000000000000000000000000000000000000000000
:0200000490501A
:0C00000000012E16106900012E30CA9C71
:00000001FF